:0300000002193BA7
:0C193B00787FE4F6D8FD75812202198245
:0C000300000000000000000000000000F1
:0B1F3000EF1FAC0670011E4C70F62283
:10002A00AB07AA06EB1BAE0270011A4E60097FAA43
:08003A007E05121F3080ED224B
:10151800907120E04480F07F057E00121F30E4FFC8
:10152800FE12002A75A75575AC589071327450F0A8
:101538009071307403F0907136742FF07F18EF2497
:1015480066FDE434718D82F583E4F00FEFB433EE79
:10155800904011E4935407FF90711CE054F84FF049
:10156800904017E493547FFF90711DE054804FF032
:10157800904010E493FF5401C43333335480FE90F9
:101588007123E0547F4EF0EFC313543F4440FFA350
:10159800E054804FF0904012E493FF540FFE907196
:1015A80046E054F04EF0EFC4540FFF90714FE054F2
:1015B800F04FF0904013E493543FFF907140E05493
:1015C800C04FF0904014E493907126F0904015E4D9
:0E15D80093907128F0904016E49390712AF0E1
:0115E60022E2
:0B1F3B007379732072657365740A00EF
:081F6B007417F0A37470F0225A
:081F6300E5D430E4FB8FD72226
:101E510078C2E254FCF2E24401F290717EE0440463
:0B1E6100F075D60175D59F75D21022D8
:10175A0075D9DD12151875D95590715EE054FEF0F1
:10176A0075D9BB121E517BFF7A1F793B1200B078E4
:10177A00E3E254CFF2E24410F2907194E4F0121EC4
:10178A0034121E9F121E6C121803121C39121E14D8
:10179A00121DF3121CE3121EB178D3E254FCF2E2DA
:1017AA004401F290718AE4F0C294906335121F6B7F
:1017BA00906331121F6B906333121F6B1214473000
:1017CA000D0C7B017A627982120FC512096D906342
:1017DA0029E0FEA3E0FF121C7590632DEEF0A3EF43
:1017EA00F090632BE0FEA3E0FF121C7590632FEECE
:0917FA00F0A3EFF0121DAE80C651
:100E2E004263311770426333177042633517704255
:100E3E006329177042632D177042632B177042633C
:030E4E002F1770EB
:0B1F4600AC06ECF218EFF27817E22274
:101803007812E24401F278567407F278277417F2DB
:1018130018746FF27833E4F218F27819E24401F2A3
:101823007811E24401F27817E24401F27812E244BB
:1018330001F27814E24401F27818E24401F278D319
:10184300E254CFF2E24410F290718C740AF07812F1
:10185300E24402F278577407F278297417F2187485
:101863006FF27837E4F218F27819E24402F2781151
:10187300E24402F27817E24402F27812E24402F2FE
:101883007814E24402F27818E24402F278D3E25484
:0D189300F3F2E24404F290718B7409F0222C
:091F51007833121F464401F2220C
:091F5A007837121F464402F222FE
:0C1F0C007818E230E0037F01227F002201
:0C1F18007818E230E1037F01227F0022F4
:0D1EF2007818E24401F290718C740AF0221D
:0E000F007818E254FEF290718CE4F0D2962242
:0D1EFF007818E24402F290718B7409F02211
:0E1EE4007818E254FDF290718BE4F0D2952252
:101C7500D3906332E09F906331E09E5005E0FEA370
:101C8500E0FFD3906334E09F906333E09E5005E01E
:101C9500FEA3E0FFD3906336E09F906335E09E504E
:061CA50005E0FEA3E0FFD4
:011CAB002216
:100E51004162F800C10A4162FA004162F90041624F
:100E6100D500602062D6FFFF0000000000000000F6
:100E71000000000000000000000000000000000071
:100E81000000000000004162C7004162C800C109C2
:100E91004162C9004162CA004462CB0000000042C5
:090EA10062CF00004262D1FFFFA4
:101D7D007FEA7E0B906364FDFC12058BC302054860
:101D8D00F0E0441EF09071227407F022E0FF9063A2
:101D9D0028E09F906327E09E229062CAE0C39414CE
:011DAD002213
:101E340078F2E24403F278E3E244C0F278F0E25448
:0D1E4400FDF208E254FDF208E2440CF22227
:101E9F0043AA04D2AF786AE24479F27F017E00024E
:021EAF00002A07
:101BBC00EF24FE60191460242402702C907123E031
:101BCC0054D8F0E0441D121D91759917801A90712C
:101BDC0023E054F8121D8D759918800C907123E038
:0F1BEC0054D8121D8D75990B7869E24448F22286
:101E87009062D3E0FEA3E0FF7C007D0C120659E4CC
:081E97007B0AFAF9F80204B617
:1015E7009063641205A3000000009062F8E06402B3
:0515F70070030216A5BF
:1015FC009062C7E004F0E0C3946450030216A5E4C3
:01160C00F0ED
:0F160D00121E879063641205979062F8E07028B0
:10161C00121D7D50089062C8E004F08005E49062D1
:10162C00C8F09062C8E0C3940AE44007F09062F8F6
:08163C0004F0229062F8F02294
:081644009062F8E064017059A6
:10164C0020090FD2099063681205A3000000001254
:0F165C001F24E47F307E75906368121D84403A2E
:10166B00E4121D7D50089062C9E004F08005E490FF
:10167B0062C9F09062C9E0C3940A4018E4F090622A
:10168B00F87402F0121ED49063681205A3000000D8
:0A169B0000C209229062F87401F009
:0116A5002222
:101D4B009062F8E07008301028C2100206A490626E
:101D5B00F8E0B4010B906331740BF0A374B8F0226C
:101D6B009062F8E0B4020A9063317405F0A374DC5E
:021D7B00F02254
:101BFB009062FDE0FEA3E0FF9062FAE0701AD3EF73
:101C0B009420EE940E5004D20A8002C20A906335DF
:101C1B007417F0A37470F022C3EF94C8EE940E40C7
:0D1C2B0002C20A9063357405F0A374DCF06A
:011C38002289
:0300420002115850
:10115800C0E0C0F0C083C082C0D075D000C000C05D
:1011680001C002C003C004C005C006C007786BE216
:0611780020E10302126EEB
:10117E00AF93EF75F010A4FFE594C4540FFDEF4D3F
:10118E00FF906327E5F0F0A3EFF0E24402F29062E5
:09119E00F9E0640260030212454D
:1011A700121DA6505EE004F0E0C39402404A90622C
:1011B700CFE0FEA3D3121D99400CE0FFA3E090629D
:1011C700CFCFF0A3EFF09062D1E0FEA3C3121D9939
:1011D700500CE0FFA3E09062D1CFF0A3EFF0906254
:1011E700CB12058B906327E0FEA3E0FFE4FCFD1222
:1011F700046D9062CB120597121DA650067869E21E
:101207004401F2121DA6405FA312057F7804120560
:10121700599062F6EEF0A3EFF09062F97403F09044
:1012270062CAE4F09062CFF0A3F09062D174FFF04D
:0C123700A3F09062CB1205A300000000A1
:1012430080299062F9E0B4050C906327E0FFA3E0E6
:101253009062D380119062F9E0B4070F906327E0A6
:0B126300FFA3E09062FDCFF0A3EFF0CE
:10126E00D007D006D005D004D003D002D001D000D4
:0B127E00D0D0D082D083D0F0D0E0327E
:0F0EAA0042635E0000426360000042636200002A
:071F7B00E475F001020457B8
:101E6C0043A820D2AF75D10178957401F21874761D
:0B1E7C00F2789174A0F21874FDF222BD
:03001E000216A621
:1016A600C0E0C0F0C083C082C0D075D000C0007852
:1016B60091E220E70302174DE24480F2D2129062D3
:0A16C60083E0C394FF5003E004F03A
:1016D000300D25906269E0601F90635E121F7BC32E
:1016E00090635FE0946090635EE094EA4011E4F000
:0F16F000A3F0906269F0800790635EE4F0A3F0CE
:1016FF00300A27906362121F7B906360E4F0A3F0BF
:10170F00C3906363E09432906362E09400402FE4EF
:10171F00F0A3F09062FA04F08024906360121F7BB4
:10172F00906362E4F0A3F0C3906361E09440906330
:0E173F0060E0941F4008E4F0A3F09062FAF01E
:0D174D00D000D0D0D082D083D0F0D0E032D8
:070EB9004463680000000023
:081F7300789CE2541FF2E22207
:101C3900E5B154CF42B1789CE254E3F2E24414F2A4
:101C4900E254FCF2E24401F208E24480F2E2442068
:101C5900F278A1743BF2187460F2789EE4F208F20B
:0C1C6900121F7344A0F253A8BFD2AF2298
:0C1F2400121F7344C0F243A840D2AF2249
:101ED400121F7344A0F2789EE4F208F253A8BF22C2
:03002100021B2897
:101B2800C0E0C0F0C083C082C0D075D000C000C083
:101B380004C005C006C007789DE230E71DE2448076
:101B4800F290636812057FEF2401FFE43EFEE43D56
:101B5800FDE43CFC906368120597D007D006D005D9
:0F1B6800D004D000D0D0D082D083D0F0D0E032E3
:090EC000C10BC10C4263480000A3
:101AC90090633C12057FEF4401FFEC90633C0205F3
:101AD9009790633BE4F090634022906337E0FEA364
:101AE900E0FF22906339E0FEA3E0FF22E475F001F4
:101AF9000204579063417401F0906340E4F022902E
:101B0900632EE09F90632DE09E22906330E09F90CA
:0F1B1900632FE09E2290633BE004F0E06418220B
:101E140043A901D2AF75D104907105E4F090710427
:101E24007424F090710174A0F090710074FDF0229C
:03002400020BE3E9
:100BE300C0E0C0F0C083C082C0D075D000C000C0D8
:100BF30001C002C003C004C005C006C00790710154
:100C0300E020E703020E13E04480F0906344121ADD
:100C1300F5906346121AF5906348121AF5C3906370
:100C230047E0940D906346E094004006E4F0A3F09F
:100C3300D20CC3906345E0940D906344E09400406C
:070C430006E4F0A3F0D20B60
:100C4A0020833D906342E004F0E0C3941E50030207
:100C5A000D5290633BE064176003020D52906343A8
:100C6A00E09406400AE094145005121AC9800B90C9
:100C7A006343E0C394014002E0FF121AFC020D52E2
:100C8A00906342E0D394005003020D38E0D39432CB
:100C9A00401290633C1205A300000000121ADA0405
:100CAA00F0020D25906340E06024906342E0C39413
:100CBA0002401BE094075016A3E0C39406400FE0DD
:100CCA009414500A121AC9121B1E604F8031906385
:100CDA0040E06039906342E0C394074030E09414E6
:100CEA00502BA3E0C394014024E09406501F906364
:100CFA003C12057FEF54FE121AD2121B1E601CA36F
:100D0A0012057F780112056C121AD4800E90633C8A
:100D1A001205A300000000121ADAF0906342E4F010
:100D2A00A3F090633BE0B41819121AFC8014906384
:100D3A0040E0700E90633C1205A300000000121AF6
:100D4A00DAF0906343E004F0906341E0601B906343
:100D5A003BE4F0906341F0A3F0A3F090633C1205EA
:090D6A007F9062BD120597D20EC4
:100D7300C3906349E09414906348E09400500302E5
:100D83000E13E4F0A3F0301103020E13121AE3D38F
:100D9300121B084009906337E475F0018010121AA2
:100DA300E3C3121B08500A90633774FFF5F0120473
:100DB30057121AECD3121B134009906339E475F0F0
:100DC300018010121AECC3121B13500A906339747A
:100DD300FFF5F0120457121AE3121F51121AEC1204
:100DE3001F5AD3906338E09400906337E094005027
:100DF3000512000F8003121EF2D390633AE09400B1
:100E0300906339E094005005121EE48003121EFF24
:100E1300D007D006D005D004D003D002D001D00033
:0B0E2300D0D0D082D083D0F0D0E032DD
:100EC9004162690044627EFFFFFFFF4662C1000084
:100ED90000000000C10DC10E4462BD0000000054B5
:100EE900626A0821222324042526272802292A2B7D
:100EF9002C012D2E2F30602862951401020304184D
:100F09000506070810090A0B0C150D0E0F1005111F
:100F1900121314081516171806191A1B1C091D1E79
:100F29001F205362823200000000000F12000000EF
:0C0F3900040001FF18A0FF0041626800E6
:10128900740175F02C906329120457D390632AE0F6
:101299009470906329E0941722740175F02C90637F
:1012A9002B120457D390632CE0947090632BE09435
:1012B900172274FE75F0D4120457C390632AE09480
:1012C9002C906329E094012274FF75F06A12045787
:1012D900C390632AE09496906329E094002274FEF7
:1012E90075F0D4120457C390632CE0942C90632BAF
:1012F900E094012274FF75F06A120457C390632CBD
:10130900E0949690632BE09400221205599062C1F3
:1013190012058BC30205489062BD02057F7417F060
:10132900A37470F0229062C6E064C522EE75F005E0
:10133900A4246AF582E4346222EE75F005A42495AA
:10134900F582E43462227B017A6279C17406F0E4A1
:10135900FF2212055990627E0205979062C112051B
:051369007F90627E226E
:1018A000200E03021938C20E121320EC4D4E4F7059
:0418B00003021935E1
:1018B400121320EF9062FFF0906269E0602B906257
:1018C400FFE0540FFBBB010F121320780412135BCB
:1018D4009062FFEBF0804A9062FFE0641470421261
:1018E4001320780812135B803812132E702D906227
:1018F400C5E0B40113121320780412131370099075
:1019040062FFE0540FF080199062C5E0B4020A123D
:1019140013207808121313600880009062FF74FF8C
:10192400F09062BD1205A3000000009062FFE0FF8A
:011934002290
:061935007FFF227FFF226C
:021B7700A907BC
:101B7900E4FFFEEB64017014121335F583E0B5013F
:101B89000512133580180EEEB404ED22EB640270D1
:101B990021FE121342F583E0B50112121342F583B7
:101BA900E5822DF582E43583F583E0FF220EEEB45C
:021BB90008E042
:011BBB002207
:0819C700906300EFF0A3EDF0C6
:1019CF00E4A3F0A3F0906269E06035121364121380
:1019DF0019701812132E70139062C5E0B4010280B3
:1019EF00339062C5E064027050803C906300E0FF6A
:1019FF00B414028037906300E0FF6401703B8019DC
:101A0F00121364121319703112132E702C9062C5B9
:101A1F00E0B4010C906300E0FFA3E0FD7B018011B7
:101A2F009062C5E0B40212906300E0FFA3E0FD7B7B
:0E1A3F0002121B77906302EFF0906302E0FF4B
:011A4D002276
:10096D00E49062FFF0906293E0F47003020BE2E01A
:10097D00FFA3E0FD1219C79062FFEFF09062937430
:05098D00FFF0E4A3F0FF
:10099200906269E06401705A9062FFE0FF906268C1
:1009A200E06F7044EF64036005EF642F705E906245
:1009B200C674C5F090627E12057F9062C1120597DF
:1009C2009062FFE09062C5B403057402F080037484
:1009D20001F0E4FF121EC390630412134F121CAC09
:1009E2009062697402F080249062FFE0906268F085
:1009F200801A906269E0B402139062FFE0FF64041F
:0C0A02006004EFB43006E4906269F0225A
:100A0E0012132E6003020BE2906269E0600F906297
:100A1E007E12057F1213167004906269F09062FFC9
:100A2E00E012062D0A7E010A7E040A8D050A8D0843
:100A3E000A90090A9B0B0AAA0D0AB50F0AC4110ADD
:100A4E00C4140ACA150ACA180AD0190ADF1B0AF5F5
:100A5E001D0B0D1F0B25210B38230B59250B592868
:100A6E000B6E290B952B0BBC2D0BBC3000000BE233
:100A7E00121F0CEF7006121F18EF6003020BC80254
:100A8E000BD61212895003020BE2020BDFE475F053
:100A9E009612128E5003020BE2020BDF1212A250BC
:100AAE0003020BE2020BDFE475F0961212A750035D
:100ABE00020BE2020BDF906329020B6690632B029E
:100ACE000B661212C340191212BB4003020BE280D6
:100ADE00231212D9400A1212D14003020BE28014E3
:100AEE00E4906329020BD21212EF400C1212E7406F
:100AFE0003020BE2E4020BD2E490632B020BD21240
:100B0E001305400C1212FD4003020BE2E4020BD25D
:100B1E00E490632B020BD212128940031213261299
:100B2E0012A25003020BE2020BDF906329E475F070
:100B3E0096121291400312132690632BE475F096D1
:100B4E001212AA5003020BE2020BDF906329740B00
:100B5E00F0A374B8F090632B740BF0A374B8F0226A
:100B6E001212C340081212BB500AE48004E49063D0
:100B7E0029F0A3F01212EF40081212E75056E4804B
:100B8E0043E490632B803D1212D940081212D150CB
:100B9E000AE48004E4906329F0A3F01213054008E0
:100BAE001212FD502FE4801CE490632B8016121F4E
:100BBE000CEF7006121F18EF600EE4906329F0A37D
:100BCE00F090632BF0A3F02290632912132690630A
:040BDE002B1213269D
:010BE20022F0
:101CE30078C0E24408F278C2E2543FF278D0E2448A
:101CF30002F278D2E254F3F2209104D20D8002C2B0
:101D03000D300D0F90630312134F121D179062696C
:041D13007401F02245
:040F450041636F0095
:101DD2009062FFF090636C0205D49000061203C378
:101DE200FE9000080203C390000912043590000C13
:011DF20022CE
:100FC500E49062FFF07FFFA374FFF090636C12055D
:100FD500F49000011203C3FE1203AAFDEEC39D5057
:100FE50003021157121DD6900001E412043590003A
:100FF5000E1205FD120653EFF4600890636F74231B
:10100500F0800990636FE06003E014F0121DD69044
:1010150000031203C36F60159000051203C3600D32
:10102500900004E41204359000030211539000056A
:101035001203C3FE9000041203C3C39E500B121D7E
:10104500D690000474010203F0121DD6900002121E
:1010550003C36F6048EFF4701C121DDCC39E400A89
:101065007404121DD29000028061121DD690000AF0
:10107500740102114A121DD69000087401121DEC6C
:101085001203C36F90636C600C1205D47401121DBA
:10109500E9EF02114A1205D4900009803DEFF47082
:1010A50041121DD69000091203C3D39400500302C8
:1010B500114D90000B1203C3FE90000A1203C3D317
:1010C5009E40117401121DD290000C1203C390634F
:1010D50000F08054121DD690000A74011203F0022C
:1010E500114D121DD6121DE3C394FF500890000840
:1010F50074011203F0121DDCB506089062FF74023C
:10110500F08020121DD6900007121DDF6E703990F9
:1011150062FF7403121DD59000061203C3900008E8
:10112500120435906300EFF0121DD6E4121DE97428
:10113500FF120435906300E09000111204359062AF
:10114500FFE0900012120435121DD6900002EF1236
:0211550004355F
:011157002275
:101EC30075AF3F8FAF75AEB975A402E5A530E1FBE1
:011ED30022EC
:101CAC009063011205F475AF3F8FAF906304E0C3EE
:101CBC0094014022E5A530E0FB906301E475F0014E
:101CCC001205DD1203AAF5A675AEB975A4019063D1
:071CDC0004E014F080D522A2
:101D17009063001205F4906303E06027AE070FEEAF
:101D27002400FDE4343F8D82F583E493FE90630045
:101D3700E475F0011205DDEE120423906303E0144D
:041D4700F080D32233
:101EB10078D2E254CFF2E24410F2907188E4F0C299
:021EC10092226B
:101DAE00C3906338E09458906337E094025012C3A6
:101DBE0090633AE09458906339E094025003D292C3
:041DCE0022C2922279
:040F4900416371018E
:071F82007869E24401F2223C
:101DF30043A902D2AF75D10890710D7401F09071AF
:101E03000C745DF090710974A0F090710874FDF08A
:011E130022AC
:0300270002136E53
:10136E00C0E0C0F0C083C082C0D075D000C000C045
:10137E0001C002C003C004C005C006C007907109B9
:0E138E00E020E70302142C907109E04480F087
:10139C00906370E004F0E0C39408400AA3E0600698
:1013AC00E4F09062F9F0906370E0C3940A4007E4B3
:0613BC00F0D210A304F0C2
:1013C2009062F9E06004E0B4070D7F01121BBC904B
:1013D20062F97401F080539062F9E0B40108121FBF
:1013E200827402F080449062F9E0B4030D7F02122D
:1013F2001BBC9062F97404F080309062F9E0B4048E
:1014020008121F827405F080219062F9E0B4050D84
:101412007F03121BBC9062F97406F0800D9062F992
:10142200E0B40606121F827407F0D007D006D0057A
:10143200D004D003D002D001D000D0D0D082D0834B
:05144200D0F0D0E03203
:100F4D00426003000042626500004262631000418E
:100F5D0062670060406005FFFF00000000000000B8
:100F6D000000000000000000000000000000000074
:100F7D000000000000000000000000000000000064
:100F8D000000000000000000000000000000000054
:100F9D0000000000000000416000004160010041C0
:050FAD00600200C10F0D
:101A4E00EF25E0FFEE33FE74472FF58274603EF50E
:101A5E0083227FC37E05E4FDFC90635612058BD373
:101A6E00020548ECF0A3EDF090635CE475F0010222
:101A7E000457D3906334E094B8906333E0940B2210
:101A8E0090635CE0FEA3E0FFC322906000E025E0DF
:101A9E002405F582E43460F58322E490635CF0A3C0
:101AAE00F02233FE74052FF58274603EF58322908A
:0B1ABE00635DE025E0FF90635CE02228
:1006A4009063561205A3000000009062F6E0FFA3D9
:1006B400E090635ACFF0A3EFF0906005E0F470038C
:0506C400A3E0F4703F0B
:1006C900121AA9121A8E9420EE9400501590635AAA
:1006D900E0FCA3E0FDEF25E0FFEE121AB0121A715B
:1006E90080E1121AA8121A8E940EEE9401505990B4
:0F06F900635AE0FCA3E0FD121A4E121A7180E65C
:10070800121A98E0FFA3E090635CCFF0A3EFF0909B
:10071800635AE0FEA3E0FF90635CEE8FF01204578B
:1007280090635CE0C313FEA3E013FF90635CEEF0FC
:10073800A3EFF0121A98EEF0A3EFF0906000E00437
:09074800F0E0C394204002E4F04B
:10075100121AA890635612058B121ABD121AB0E034
:10076100FEA3E0FFE4FCFD12046D906356120597B1
:10077100121A7690635CE07004A3E0642070D49058
:10078100635612057F780512055990635612059735
:1007910090635612057FAD07AC06906046E025E0F8
:1007A100FF906045E033FE74472FF58274603EF59B
:1007B10083ECF0A3EDF0906045121A79C390604686
:0F07C100E0940E906045E094014004E4F0A3F052
:1007D000121AA8906265F0A3F09062637410F0A3FF
:1007E000E4F0121A8E940EEE940140030208731284
:1007F0001A4EE0FCA3E0FD906265E0FAA3E0FBD3B3
:10080000ED9BEC9A400F121A55E0FFA3E090626551
:10081000CFF0A3EFF0121ABD121A53E0FCA3E0FDD3
:10082000906263E0FAA3E0FBC3ED9BEC9A500F12D9
:100830001A55E0FFA3E0906263CFF0A3EFF090625F
:1008400063E0FEA3E0FFC3906266E09FFF906265F5
:10085000E09EFED3EF9450EE9400400890626774DF
:100860001EF08009906267E06003E014F0121A76CF
:030870000207E29A
:10087300E47F8B7E06FDFC90635612058BC3120545
:1008830048500C300F597F8B7E06121A644050E497
:10089300906001F0A3F0D20F906267E0B41E1BE0FA
:1008A30014F0121A80400774FFF5F0120457C312B4
:1008B3001A81400302096C020927906267E0600312
:1008C30002096C200B0302096CC20BC3906334E072
:1008D3009470906333E09417400302096C803C12D8
:1008E3001A604048E47F6D7E06121A6540089060E6
:1008F30001E064047036300C70C20C906001E0C3F8
:1009030094045003E004F0E4906002F0C20F121A62
:100913008040028043C3121A815006E475F00180BF
:100923003C906333740BF0A374B8F022121A604046
:1009330006906002E06032300C2FC20C90600274AB
:1009430001F0E4906001F0C20FD3906334E09408A7
:10095300906333E09407400874FF75F0FE02045778
:090963009063337407F0A304F063
:01096C002268
:100FB20044634E428C0000C11144634A00000000A9
:020FC200C1125A
:10144700E4906337F0A3F0906339F0A3F0D211C3AF
:10145700906338E094B8906337E0940B4011906341
:101467003AE094B8906339E0940B40030214F730E4
:101477001265C21290634A12057FEF2477FFEE349C
:1014870001FEE43DFDE43CFC90634A120597E47FCE
:10149700E87E03FDFC90634A12058BC312054840A2
:1014A7003690634A12057FC3EF94E8FFEE9403FE7C
:1014B700ED9400FDEC9400FC90634A12059790634D
:1014C70037E475F001120457906337E0FFA3E0900B
:1014D7006339CFF0A3EFF0906337E0FEA3E0FF128C
:1014E7001F51906339E0FEA3E0FF121F5A02145602
:1014F700906337E0FFA3E090632DCFF0A3EFF09068
:101507006339E0FFA3E090632FCFF0A3EFF0C211A0
:0115170022B1
:1019470002175AE493A3F8E493A34003F68001F245
:1019570008DFF48029E493A3F85407240CC8C333A1
:10196700C4540F4420C8834004F456800146F6DF70
:10197700E4800B0102040810204080900E2EE47EC4
:10198700019360BCA3FF543F30E509541FFEE49365
:10199700A360010ECF54C025E060A840B8E493A32C
:1019A700FAE493A3F8E493A3C8C582C8CAC583CA57
:1019B700F0A3C8C582C8CAC583CADFE9DEE780BE0F
:010FC400002C
:1003AA00BB010689828A83E0225002E722BBFE0251
:0903BA00E32289828A83E4932284
:1003C300BB010CE58229F582E5833AF583E02250EF
:1003D30006E92582F8E622BBFE06E92582F8E22239
:0D03E300E58229F582E5833AF583E4932253
:1003F000BB010FF8E58229F582E5833AF583E02811
:10040000F0225009C58229F8E58226F622BBFE09B2
:10041000C58229F8E22582F222F8EA2583F583E9EC
:03042000932822FC
:10042300BB010689828A83F0225002F722BBFE01B8
:02043300F322B2
:10043500F8BB010DE58229F582E5833AF583E8F0FD
:10044500225006E92582C8F622BBFE05E92582C8A9
:02045500F22291
:10045700C5F0F8A3E028F0C5F0F8E5821582700230
:060467001583E038F022CD
:0D046D00EF2BFFEE3AFEED39FDEC38FC22DE
:10047A0075F008758200EF2FFFEE33FECD33CDCC39
:10048A0033CCC58233C5829BED9AEC99E5829840BC
:10049A000CF582EE9BFEED9AFDEC99FC0FD5F0D699
:1004AA00E4CEFBE4CDFAE4CCF9A88222B800C1B9C3
:1004BA000059BA002DEC8BF084CFCECDFCE5F0CB01
:1004CA00F97818EF2FFFEE33FEED33FDEC33FCEB3A
:1004DA0033FB10D703994004EB99FB0FD8E5E4F9F5
:1004EA00FA227818EF2FFFEE33FEED33FDEC33FCE2
:1004FA00C933C910D7059BE99A4007EC9BFCE99AD6
:10050A00F90FD8E0E4C9FAE4CCFB2275F010EF2F1A
:10051A00FFEE33FEED33FDCC33CCC833C810D7071A
:10052A009BEC9AE899400AED9BFDEC9AFCE899F855
:0E053A000FD5F0DAE4CDFBE4CCFAE4C8F922E8
:10054800EB9FF5F0EA9E42F0E99D42F0E89C45F009
:010558002280
:10055900E8600FECC313FCED13FDEE13FEEF13FF80
:03056900D8F122A4
:10056C00E8600FEFC333FFEE33FEED33FDEC33FCED
:03057C00D8F12291
:0C057F00E0FCA3E0FDA3E0FEA3E0FF22EF
:0C058B00E0F8A3E0F9A3E0FAA3E0FB22F3
:0C059700ECF0A3EDF0A3EEF0A3EFF022D7
:1005A300A8828583F0D083D0821205BA1205BA12CD
:1005B30005BA1205BAE473E493A3C583C5F0C583F2
:1005C300C8C582C8F0A3C583C5F0C583C8C582C8A2
:0105D3002205
:0905D400E0FBA3E0FAA3E0F92228
:1005DD00F8E0FBA3A3E0F925F0F0E58215827002A7
:0705ED001583E0FA38F0224B
:0905F400EBF0A3EAF0A3E9F02208
:1005FD00BB010DE58229F582E5833AF5830205D429
:10060D005007E92582F8020686BBFE07E92582F828
:10061D0002068FE58229F582E5833AF58302069875
:10062D00D083D082F8E4937012740193700DA3A35C
:10063D0093F8740193F5828883E473740293686070
:06064D00EFA3A3A380DF70
:060653008A838982E47332
:10065900EC8EF0A4CCC5F0CCCDF8EFA4CEC5F02D2E
:10066900FDE43CFCE8A42EC8C5F03DFDE43CFCEFEC
:0D067900A4FFE5F028FEE43DFDE43CFC227A
:10004500E5082402F582E43463F583E0050822908F
:1000550062FF300703906302E475F0011205DD02CB
:1000650003AA2000E97F2ED2008018EF540F2490B8
:10007500D43440D4FF30040BEF24BFB41A0050032E
:100085002461FFE50960021509050CE50C70020500
:100095000B30070E9062FFE475F0011205DDEF02EB
:1000A5000423021F637403D2078003E4C207F50823
:1000B5009062FF1205F4E4F509F50BF50CE509600E
:1000C500077F2012008880F5750AFFC201C200C2B1
:1000D50002C203C205C206C208120054FF700D30E9
:1000E50007057F00120099AF0CAE0B22B4255FC245
:1000F500D5C204120054FF24D0B40A00501A75F07A
:100105000A780930D50508B6FF0106C6A426F620EB
:10011500D5047002D20380D924CFB41A00EF50045D
:10012500C2E5D20402029AD20180C6D20080C0D2B2
:100135000280BCD2D580BAD20580B47F2012008857
:100145002002077401B5090040F1120045FF1200B5
:10015500880200C2D208D2068095120045FB120023
:1001650045FA120045F94A4B7006796B7A037BFF15
:1001750020022EE509602A7E008E82758300120317
:10018500C360060EEE650A70F0C2D5EBC0E0EAC0AA
:10019500E0E9C0E0EE1202E1D0E0F9D0E0FAD0E00B
:1001A500FB1203AAFF60AAEBC0E0EAC0E0E9C0E0E9
:1001B500120088D0E02401F9D0E03400FAD0E0FB49
:1001C500E50A0460DCD50AD980877BFF7A0279DDF0
:1001D500D202809C791080027908C206C208800884
:1001E500D2D5790A8004790AC2D5E50A047002F5E8
:1001F5000AE4FAFDFEFF120045FC7B0820011312FC
:100205000045FD7B1030000A120045FE120045FF37
:100215007B20EC3382D592D55013C3E43000069F82
:10022500FFE49EFEE42001039DFDE49CFCE4CBF885
:10023500C201EC700CCFCECDCCE824F8F870F38079
:1002450017C3EF33FFEE33FEED33FDEC33FCEB3339
:10025500FB994002FB0FD8E9EB300105F8D0E0C46B
:1002650048B201C0E00AEC4D4E4F78207B0070C2C9
:10027500EAB50A0040BCC0E01202E3D0F0D0E020AD
:100285000104C4C0E0C4B201C0F0120071D0F0D5C1
:10029500F0EB0200C212062D015F5301D95801305F
:1002A5004C012C4201DD4F01E54401E5490145437F
:0802B50001EB5501CF4601CF1A
:1002BD004501CF47038B5001342D01382E015B2BA7
:1002CD00013C2301592003742A00F4480000015316
:1002DD003F3F3F00790AA2D5200314300509B9101C
:1002ED00020404B9080104A2D5200602500104201D
:1002FD0002689202B509005034C0E07F2030031926
:10030D007F30A20272067205500F12033AC202C26A
:10031D0006C205C2087F30800F300503E9C0E01228
:10032D000088300503D0E0F9D0E0B509CC300517D1
:10033D007F30B9100C1200887F583004077F788009
:10034D0003B908031200883002057F2D0200887F53
:10035D00202008F87F2B2006F322920280CF286EF2
:10036D00756C6C2900D2011200453001F8C201787C
:10037D000930D50108F60200F42D504349581200FA
:10038D00452403B405004001E490038693120079DF
:0D039D00743A120079D2037509040201D9E7
:09068600E6FB08E6FA08E6F92299
:09068F00E2FB08E2FA08E2F9229C
:0C069800E493FB740193FA740293F922BE
:00000001FF
