:030000000213AE3A
:0C13AE00787FE4F6D8FD7581210213F56C
:0C000300000000000000000000000000F1
:0B19FF00EF1FAC0670011E4C70F622BA
:10002A00AB07AA06EB1BAE0270011A4E60097FAA43
:08003A007E051219FF80ED2282
:100F8500907120E04480F07F057E001219FFE4FF98
:100F9500FE12002A75A75575AC589071327450F041
:100FA5009071307403F0907136742FF07F18EF2430
:100FB50066FDE434718D82F583E4F00FEFB433EE12
:100FC500904011E4935407FF90711CE054F84FF0E2
:100FD500904017E493547FFF90711DE054804FF0CB
:100FE500904010E493FF5401C43333335480FE9092
:100FF5007123E0547F4EF0EFC313543F4440FFA3E9
:10100500E054804FF0904012E493FF540FFE90712E
:1010150046E054F04EF0EFC4540FFF90714FE0548A
:10102500F04FF0904013E493543FFF907140E0542B
:10103500C04FF0904014E493907126F0904015E471
:0E10450093907128F0904016E49390712AF079
:01105300227A
:081A1C007417F0A37470F022AE
:1011E60075D9DD120F8575D95590715EE054FEF004
:1011F60075D9BB12192212197212193F12128312D3
:10120600179A1218E21218C11219CE12198478D33D
:10121600E254FCF2E24401F290718AE4F0C2949046
:1012260062ED121A1C9062E8121A1C9062EA121AF7
:101236001C9062EC7405F09062DF740BF012111EC4
:1012460012105412175C1218447B017A62796C12E0
:1012560007FB120DAE9062E0E0FEA3E0FF1215352B
:101266009062E4EEF0A3EFF09062E2E0FEA3E0FF0E
:0D1276001215359062E6EEF0A3EFF080C394
:1009CE004262E817704262EA17704262ED17704297
:1009DE0062E017704262E417704262E21770426280
:0B09EE00E617704162EC004162DF0B75
:101613009062E0E0FEA3E0FF7C0012059AE47B64A5
:10162300FAF9F81204389062E0EEF0A3EFF090625A
:10163300E2E0FEA3E0FF7C0022FFE0FCA3E0FD125A
:10164300059AE47B707A17F9F8120438906306EE72
:10165300F0A3EFF0906306E0FEA3E0FFC390630501
:10166300E09F906304E09E22906302E0FEA3E022E9
:0B167300AC06ECF218EFF27817E22250
:101283007812E24401F278567407F278277417F261
:1012930018746FF27833E4F218F27819E24401F229
:1012A3007811E24401F27817E24401F27812E24441
:1012B30001F27814E24401F27818E24401F278D39F
:1012C300E254CFF2E24410F290718C740AF0781277
:1012D300E24402F278577407F278297417F218740B
:1012E3006FF27837E4F218F27819E24402F27811D7
:1012F300E24402F27817E24402F27812E24402F284
:101303007814E24402F27818E24402F278D3E25409
:0D131300F3F2E24404F290718B7409F022B1
:091A0A0078331216734401F22234
:091A130078371216734402F22226
:0C19DB007818E230E0037F01227F002238
:0C19E7007818E230E1037F01227F00222B
:0D19B4007818E24401F290718C740AF02260
:0E000F0090718CE4F0D2967818E254FEF22242
:0D19C1007818E24402F290718B7409F02254
:0E19A60090718BE4F0D2957818E254FDF22295
:08153500906302EEF0A3EFF059
:10153D00A3EEF0A3EFF09062E8E064177004A3E06F
:10154D006470601012166B9062E812163C4005EE46
:10155D00F0A3EFF09062EAE064177004A3E064700A
:10156D00601012166B9062EA12163C4005EEF0A365
:10157D00EFF09062EDE064177004A3E06470601109
:10158D0012166BFF9062ED12163D4005EEF0A3EFC3
:09159D00F0906304E0FEA3E0FFFE
:0115A6002222
:100C8B009062ECE0B407004003020DAD900C9EF8AF
:100C9B00282873020CB3020CC9020CDF020CF502FC
:100CAB000D0B020D1E020D349062E07402F0A37462
:100CBB0094F09062E27416F0A37408F0807C90625A
:100CCB00E07406F0A37418F09062E27413F0A3744E
:100CDB0074F080669062E0740FF0A3743CF0906245
:100CEB00E2740AF0A3748CF080509062E07413F0FD
:100CFB00A37438F09062E27405F0A374DCF0803AD0
:100D0B009062E07417F0A37470F0E49062E2F0A3C9
:100D1B00F080279062E07409F0A374D8F09062E23F
:100D2B00740FF0A3743CF08011E49062E0F0A3F038
:100D3B009062E27417F0A37470F09062DFE024F815
:100D4B00601714601E14602A146036240470537DDF
:100D5B000A1216137D0A020D997D191216137D19AD
:100D6B00020D999062E01216347D3212161D7D32FF
:100D7B00801C9062E01216347D4B12161D7D4B8049
:100D8B000D9062E01216347D6412161D7D641205FF
:100D9B009AE47B64FAF9F81204389062E2EEF0A35D
:030DAB00EFF02244
:1009F9004162D800C1064162DA004162D900416210
:100A0900B500602062B6FFFF000000000000000092
:100A190000000000000000000000000000000000CD
:100A29000000000000004162A7004162A800C10562
:100A39004162A9004162AA004462AB000000004281
:090A490062AF00004262B1FFFF40
:10180E007FEA7E0B906302FDFCE0F8A3E0F9A3E013
:10181E00FAA3E0FB22F0E0441EF09071227407F070
:10182E0022E0FF90630BE09F90630AE09E2290629D
:06183E00AAE0C39414228D
:1019220078F2E24403F278E3E244C0F278F0E2545F
:0D193200FDF208E254FDF208E2440CF2223E
:1019720043AA04D2AF786AE24479F27F017E000280
:02198200002A39
:10171D00EF24FE60191460242402702C907123E0D4
:10172D0054D8F0E0441D121827759917801A90713E
:10173D0023E054F8121823759918800C907123E04A
:0F174D0054D812182375990B7869E24448F22298
:10195A009062B3E0FEA3E0FF7C007D0C12059AE4DE
:08196A007B0AFAF9F8020438C7
:1010540090630212050D000000009062D8E0640263
:05106400700302111DE4
:101069009062A7E004F0E0C39464500302111DE408
:01107900F086
:0F107A0012195A9063021205019062D8E0702C8F
:1010890012180EC31204CA50089062A8E004F08036
:1010990005E49062A8F09062A8E0C3940AE44007CE
:0C10A900F09062D804F0229062D8F0228F
:0810B5009062D8E06401706054
:1010BD0020050FD20590631812050D0000000012D7
:1010CD0019F3E47F307E75906318121815C312045E
:0310DD00CA403DC9
:1010E000E412180E1204CA50089062A9E004F080BD
:1010F00005E49062A9F09062A9E0C3940A4018E464
:10110000F09062D87402F012199690631812050DCF
:0D11100000000000C205229062D87401F0BA
:01111D0022AF
:101844009062D8E07008300828C20802004590620F
:10185400D8E0B4010B9062E8740BF0A374B8F022E2
:101864009062D8E0B4020A9062E87405F0A374DCD4
:02187400F02260
:10175C009062DDE0FEA3E0FF9062DAE0701AD3EF56
:10176C009420EE940E5004D2068002C2069062EDD4
:10177C007417F0A37470F022C3EF94C8EE940E406B
:0D178C0002C2069062ED7405F0A374DCF05B
:01179900222D
:03004200020B4965
:100B4900C0E0C0F0C083C082C0D075D000C000C072
:100B590001C002C003C004C005C006C007786BE22B
:060B690020E103020C7004
:100B6F00AF93EF75F010A4FFE594C4540FFDEF4D54
:100B7F00FF90630AE5F0F0A3EFF0E24402F2906217
:090B8F00D9E064026003020C4786
:100B980012183C5067E004F0E0C39402405390629E
:100BA800AFE0FEA3D312182F400CE0FFA3E0906241
:100BB800AFCFF0A3EFF09062B1E0FEA3C312182FFD
:100BC800500CE0FFA3E09062B1CFF0A3EFF0906289
:100BD800AB12181790630AE0FEA3E0FFE4FCFDEBFC
:100BE8002FFFEA3EFEED39FDEC38FC9062AB1205B2
:100BF8000112183C50067869E24401F212183C4090
:100C080067A3E0FCA3E0FDA3E0FEA3E0FF780412E5
:100C180004DB9062D6EEF0A3EFF09062D97403F093
:100C28009062AAE4F09062AFF0A3F09062B174FF12
:0D0C3800F0A3F09062AB12050D000000006B
:100C450080299062D9E0B4050C90630AE0FFA3E027
:100C55009062B380119062D9E0B4070F90630AE007
:0B0C6500FFA3E09062DDCFF0A3EFF0F2
:100C7000D007D006D005D004D003D002D001D000D8
:0B0C8000D0D0D082D083D0F0D0E03282
:0A0A52004263140000426316000026
:10193F0043A820D2AF75D10178957401F21874764F
:0B194F00F2789174A0F21874FDF222EF
:03001E00021320AA
:10132000C0E0C083C082C0D075D000C0007891E218
:1013300030E770E24480F2D20A90626DE0C394FF1D
:051340005003E004F081
:1013450030062F906317E004F07006906316E004F2
:10135500F0906314E4F0A3F0C3906317E094329027
:101365006316E094004037E4F0A3F09062DA04F0ED
:10137500802C906315E004F07006906314E004F08F
:10138500906316E4F0A3F0C3906315E09440906376
:0E13950014E0941F4008E4F0A3F09062DAF038
:0B13A300D000D0D0D082D083D0E03248
:070A5C0044631800000000D4
:081A2400789CE2541FF2E2225B
:10179A00E5B154CF42B1789CE254E3F2E24414F248
:1017AA00E254FCF2E24401F208E24480F2E244200C
:1017BA00F278A1743BF2187460F2789EE4F208F2AF
:0C17CA00121A2444A0F253A8BFD2AF2290
:0C19F300121A2444C0F243A840D2AF22D4
:10199600121A2444A0F2789EE4F208F253A8BF2259
:0300210002167E46
:10167E00C0E0C0F0C083C082C0D075D000C000C032
:10168E0004C005C006C007789DE230E723E244801F
:10169E00F2906318E0FCA3E0FDA3E0FEA3E02401BA
:1016AE00FFE43EFEE43DFDE43CFC906318120501B0
:1016BE00D007D006D005D004D000D0D0D082D083B1
:0516CE00D0F0D0E03275
:100A6300C103C10442630000004262FA0000C102F4
:020A7300C101BF
:1016D3009062F4E0FCA3E0FDA3E0FEA3E02244015A
:1016E300FFEC9062F40205019062EFE0FEA3E0FFDD
:1016F300229062F1E0FEA3E0FF229062E5E09F907A
:1017030062E4E09E229062E7E09F9062E6E09E2220
:0A1713009062F3E004F0E064182295
:1018E20043A901D2AF75D104907105E4F09071045F
:1018F2007424F090710174A0F090710074FDF022D4
:030024000205EEE4
:1005EE00C0E0C0F0C083C082C0D075D000C000C0D3
:1005FE0001C002C003C004C005C006C0079071014F
:10060E00E020E7030207E0E04480F09062FDE004A2
:10061E00F070069062FCE004F09062FFE004F0706F
:10062E00069062FEE004F0906301E004F070069024
:10063E006300E004F0C39062FFE0940D9062FEE070
:10064E0094004006E4F0A3F0D204C39062FDE0945F
:0F065E000D9062FCE094004006E4F0A3F0D2039C
:10066D002083599062F8E0C394FF5003E004F0300A
:10067D0001079062F8E4F0C2019062F3E064177034
:10068D00339062F8E0C3941E5003020742A3E09436
:10069D0006400DE0941450081216D31216E1800A8C
:1006AD009062F9E0C394014001E09062F9E4F0D268
:1006BD00000207429062F9E4F00207429062F9E00D
:1006CD00C394FF5003E004F020016AD2019062F957
:1006DD00E4F09062F8E0C394014013E0D394075026
:1006ED000D1216D31216E1121713603B801B906288
:1006FD00F8E0C394074021E09414501C1216D35413
:10070D00FE1216E3121713601EA31216D6FF780100
:10071D001204EE1216E5800F9062F412050D000022
:10072D0000009062F3E4F09062F3E0B41802D2009E
:10073D009062F8E4F03000199062F3E4F0C200909A
:10074D0062F8F0A3F01216D3FF90627F120501D26A
:01075D000B90
:10075E00C3906301E09414906300E094004073E44E
:10076E00F0A3F020096C1216EBD31216FD40109078
:10077E0062F0E004F0701F9062EFE004F080171258
:10078E0016EBC31216FD500E9062F0E024FFF090AF
:10079E0062EFE034FFF01216F4D3121708401090F7
:1007AE0062F2E004F0701F9062F1E004F080171224
:1007BE0016F4C3121708500E9062F2E024FFF09068
:1007CE0062F1E034FFF01216EB121A0A1216F4124E
:1007DE001A13D007D006D005D004D003D002D00112
:0D07EE00D000D0D0D082D083D0F0D0E03247
:100A7500C10B44627F000000006024628303010013
:100A85000C04000F0700300A00330D003C10003F36
:100A95001300C01600C31900CC1C00CF1F00F022A4
:100AA5000053626C0A00FF0000004B5A000000145E
:100AB500FF01FF14BEFF00416268FF416269FF420A
:040AC500626A000061
:1019020090627FE0FCA3E0FDA3E0FEA3E0FF0204FF
:10191200DBEC75F003A42483F582E43462F58322C0
:1014BE00300B41C20B90626AE4F0A37419F07810FD
:1014CE00121902BF550A7808121902EF64556014FA
:1014DE00906268E0B4FF0BA374FFF0E4A3F0A3F0F6
:1014EE00803F802B90627FA3A3A3E0FF906269EF01
:1014FE00F0E08029D390626BE0940090626AE094F1
:10150E00004014A3E024FFF090626AE034FFF090F4
:10151E006268E0A3F0800A90626974FFF0906268DE
:06152E00F0906269E0FF8D
:011534002294
:1017D600E4906302F0FEEDB401030E80037F002265
:1017E600E4FC121913E0B50714121913E5822EF55D
:1017F60082E43583F583E0906302F080050CECB457
:071806000CE0906302E0FF1B
:01180D0022B8
:100DAE0090627DE0F47003020EABE0FFA3E0FD1253
:100DBE0017D6E490627EF0EF12056E0DF1010DF97B
:100DCE00040E01070E090A0E110D0E18100E201337
:100DDE000E28160E30190E381C0E401F0E4822001B
:100DEE00000EAB9062DF7407F080559062DF7408DE
:100DFE00F0804D9062DF7409F080459062DF740AD6
:100E0E00F0803DE49062ECF080369062DF740BF07F
:100E1E00802E9062EC7401F080269062EC7404F0E7
:100E2E00801E9062EC7402F080169062EC7405F0F5
:100E3E00800E9062EC7403F080069062EC7406F003
:100E4E00120C8B9062E0E0FEA3E0FF12153590626B
:100E5E00E4EEF0A3EFF09062E2E0FEA3E0FF1215E5
:100E6E00359062E6EEF0A3EFF09062E4E0FFA3E0CF
:100E7E009062EFCFF0A3EFF09062E6E0FFA3E09078
:100E8E0062F1CFF0A3EFF09062EFE0FEA3E0FF126D
:0D0E9E001A0A9062F1E0FEA3E0FF121A13A1
:010EAB002224
:0D19CE0078C0E24408F278C2E2543FF222F1
:040AC90041631F0066
:10187600906302F090631CE0FBA3E0FAA3E0F92278
:1018860090000612037AFF90000802037A12037A88
:07189600FF906303E06F22E5
:1007FB00E4906302F0A374FFF0A3F090631CEBF0A2
:10080B00A3EAF0A3E9F090000112037AFF1203614F
:10081B00FEEFC39E50030209CD12187A900001E43B
:10082B001203DA90000E12053E120594906303EF4B
:10083B00F0E0F4600890631F7423F0800990631F4D
:10084B00E06003E014F012187A9000031218936022
:10085B001990000512037A6011900004E41203DA78
:10086B00906303E09000030209CA90000512037A1B
:10087B00FF90000412037AC39F500B12187A90005A
:10088B000474010203A712187A90000212189360E5
:10089B006CE0F4701D121886C39F400B7405121880
:1008AB007690000202093912187A90000A7401023C
:1008BB0009BB12187A90000874011203DA90000C2D
:1008CB00121893603012187A90000974011203DA2F
:1008DB00906303E090000C1203DA9063027401F052
:1008EB0090000C12037A906304F0900008740112CC
:1008FB0003A702099212187A9000098041906303B2
:10090B00E0F4704212187A90000912037AD3940023
:10091B0050030209BE90000B12037AFF90000A12DB
:10092B00037AD39F4012740212187690000C1203B4
:10093B007A906304F002099812187A90000A7401F5
:10094B001203A70209BE12187A12188DC394FF5016
:10095B000890000874011203A7121886B5070890B7
:10096B0063027403F0802012187A90000712188922
:10097B006F70409063027404121879900006120392
:10098B007A9000081203DA906303E0A3F012187A4E
:10099B00900009E41203DA90000C74FF1203DA9052
:1009AB006304E09000111203DA906302E0900012EE
:1009BB001203DA906303E0FF12187A900002EF1231
:0209CB0003DA4D
:0109CD002207
:1019840078D2E254CFF2E24410F2907188E4F0C2CB
:0219940092229D
:10189D00C39062F0E094589062EFE094025012C34E
:1018AD009062F2E094589062F1E094025003D2926B
:0418BD0022C292228F
:040ACD00416321015F
:071A2C007869E24401F22297
:1018C10043A902D2AF75D10890710D7401F09071E6
:1018D1000C745DF090710974A0F090710874FDF0C2
:0118E10022E4
:03002700020EAC1A
:100EAC00C0E0C0F0C083C082C0D075D000C000C00C
:100EBC0001C002C003C004C005C006C00790710980
:0E0ECC00E020E703020F6A907109E04480F015
:100EDA00906320E004F0E0C39408400AA3E06006AF
:100EEA00E4F09062D9F0906320E0C3940A4007E4EA
:060EFA00F0D208A304F091
:100F00009062D9E06004E0B4070D7F0112171D90D4
:100F100062D97401F080539062D9E0B40108121ACA
:100F20002C7402F080449062D9E0B4030D7F021269
:100F3000171D9062D97404F080309062D9E0B40437
:100F400008121A2C7405F080219062D9E0B4050DC6
:100F50007F0312171D9062D97406F0800D9062D93C
:100F6000E0B40606121A2C7407F0D007D006D0059C
:100F7000D004D003D002D001D000D0D0D082D08312
:050F8000D0F0D0E032CA
:100AD100426003000042626500004262631000410F
:100AE10062670060406005FFFF0000000000000039
:100AF10000000000000000000000000000000000F5
:100B010000000000000000000000000000000000E4
:100B110000000000000000000000000000000000D4
:100B21000000000000000041600000416001004140
:050B3100600200C10795
:10143A007F8BE47E06FDFC906302E0F8A3E0F9A34B
:10144A00E0FAA3E0FB22EF25E0FFEE33FE74472F1C
:10145A00F58274603EF58322D39062EBE094B890F3
:10146A0062EAE0940B22ECF0A3EDF0906309E00449
:10147A00F022906308E0FEA3E0FFC322906000E040
:10148A0025E02405F582E43460F58322E4906308BC
:10149A00F0A3F02233FE74052FF58274603EF583C3
:1014AA0022906308E004F022906309E025E0FF90AF
:0414BA006308E022C1
:1000450090630212050D000000009062D6E0FFA348
:10005500E0906306CFF0A3EFF0906005E0F4700345
:05006500A3E0F4704966
:10006A0012149712147C9420EE9400501A9063068E
:10007A00E0FCA3E0FDEF25E0FFEE12149E121470DF
:10008A0070E11214AB80DC12149612147C940EEEFA
:10009A009401505E906306E0FCA3E0FD1214501236
:0900AA00147070E61214AB80E141
:1000B300121486E0FFA3E0906308CFF0A3EFF09063
:1000C3006306E0FEA3E0FF906309E02FF09063086E
:1000D300E03EF0E0C313FEA3E013FF906308EEF0ED
:1000E300A3EFF0121486EEF0A3EFF0906000E004AB
:0900F300F0E0C394204002E4F0A7
:1000FC001214961214411214B212149EE0FEA3E0D4
:10010C00FFE4FCFDEB2FFFEA3EFEED39FDEC38FC85
:10011C0090630212050112147570031214AB9063F4
:10012C0008E07004A3E0642070C9906302E0FCA3B3
:10013C00E0FDA3E0FEA3E0FF78051204DB90630270
:03014C0012050198
:10014F00906302A3A3E0FEA3E0FDAC06906046E03F
:10015F0025E0FF906045E033FE74472FF582746011
:10016F003EF583ECF0A3EDF0906046E004F07006EE
:10017F00906045E004F0C3906046E0940E906045B7
:09018F00E094014004E4F0A3F047
:10019800121496906265F0A3F09062637410F0A355
:1001A800E4F012147C940EEE940140030202401213
:1001B8001450E0FCA3E0FD906265E0FAA3E0FBD3F5
:1001C800ED9BEC9A400F121457E0FFA3E090626594
:1001D800CFF0A3EFF01214B2121455E0FCA3E0FD27
:1001E800906263E0FAA3E0FBC3ED9BEC9A500F1218
:1001F8001457E0FFA3E0906263CFF0A3EFF09062A2
:1002080063E0FEA3E0FFC3906266E09FFF90626533
:10021800E09EFED3EF9450EE94004008906267741D
:100228001EF08009906267E06003E014F012147514
:0802380070031214AB0201AACD
:1002400012143AC31204CA500B30076812143A123F
:1002500004CA4060E4906001F0A3F0D207906267A6
:10026000E0B41E20E014F0121462400CA3E024FF5E
:10027000F09062EAE034FFF0C3121463400302031B
:100280006002030D906267E06003020360200303D5
:10029000020360C203C39062EBE094709062EAE0F4
:1002A00094174003020360A3E004F070069062EA32
:1002B000E004F022E47FC37E0512143FD31204CA87
:1002C00040537F6D12143CD31204CA400890600161
:1002D000E064047040200403020360C204906001E3
:1002E000E0C394045003E004F0E4906002F0C2071D
:1002F00012146240028053C3121463500DA3E00431
:10030000F070069062EAE004F0229062EA740BF06A
:10031000A374B8F022E47FC37E0512143FD3120405
:10032000CA4006906002E06037300434C204906036
:10033000027401F0E4906001F0C207D39062EBE038
:1003400094089062EAE09407400DA3E024FEF09048
:1003500062EAE034FFF0229062EA7407F0A304F04E
:01036000227A
:100B3600C10944630C00000000446310000000007B
:020B4600C10AE2
:1015A70090630CE0FCA3E0FDA3E0FEA3E022E47F50
:1015B700E87E03FDFCE0F8A3E0F9A3E0FAA3E0FB73
:1015C700C30204CA94E8FFEE9403FEED9400FDEC19
:1015D7009400FC020501FFEE3401FEE43DFDE43C0E
:1015E700FC020501C39062F0E094D89062EFE094AA
:1015F70009229062F2E0943C9062F1E0940F22CFCE
:0C160700F0A3EFF09062F1E0FFA3E022FE
:10111E00E49062EFF0A3F09062F1F0A3F0D2091226
:10112E0015EB40081215F940030211B9300A63C2DB
:10113E000A1215A7243B90630C1215DD90630C1256
:10114E0015B5401A1215A790630C1215CB1215EB9C
:10115E00500CA3E004F070069062EFE004F0906390
:10116E00101215AA24E79063101215DD9063101269
:10117E0015B5401E9063101215AA9063101215CB70
:10118E00C31215F9500CA3E004F070069062F1E062
:10119E0004F09062EFE0FEA3E0FF121A0A9062F1F3
:1011AE00E0FEA3E0FF121A1302112D9062EFE0FF92
:1011BE00A3E09062E41216069062E6CFF0A3EFF081
:1011CE009062EFE0FFA3E09062E01216069062E2FA
:0811DE00CFF0A3EFF0C20922DB
:1013BA000211E6E493A3F8E493A34003F68001F252
:1013CA0008DFF48029E493A3F85407240CC8C33334
:1013DA00C4540F4420C8834004F456800146F6DF03
:1013EA00E4800B01020408102040809009CEE47EBC
:1013FA00019360BCA3FF543F30E509541FFEE493F8
:10140A00A360010ECF54C025E060A840B8E493A3BE
:10141A00FAE493A3F8E493A3C8C582C8CAC583CAE9
:10142A00F0A3C8C582C8CAC583CADFE9DEE780BEA1
:010B480000AC
:10036100BB010689828A83E0225002E722BBFE029A
:09037100E32289828A83E49322CD
:10037A00BB010CE58229F582E5833AF583E0225038
:10038A0006E92582F8E622BBFE06E92582F8E22282
:0D039A00E58229F582E5833AF583E493229C
:1003A700BB010FF8E58229F582E5833AF583E0285A
:1003B700F0225009C58229F8E58226F622BBFE09FC
:1003C700C58229F8E22582F222F8EA2583F583E936
:0303D70093282246
:1003DA00F8BB010DE58229F582E5833AF583E8F059
:1003EA00225006E92582C8F622BBFE05E92582C805
:0203FA00F222ED
:1003FC0075F008758200EF2FFFEE33FECD33CDCCB8
:10040C0033CCC58233C5829BED9AEC99E58298403A
:10041C000CF582EE9BFEED9AFDEC99FC0FD5F0D617
:10042C00E4CEFBE4CDFAE4CCF9A88222B800C1B941
:10043C000059BA002DEC8BF084CFCECDFCE5F0CB7F
:10044C00F97818EF2FFFEE33FEED33FDEC33FCEBB8
:10045C0033FB10D703994004EB99FB0FD8E5E4F973
:10046C00FA227818EF2FFFEE33FEED33FDEC33FC60
:10047C00C933C910D7059BE99A4007EC9BFCE99A54
:10048C00F90FD8E0E4C9FAE4CCFB2275F010EF2F99
:10049C00FFEE33FEED33FDCC33CCC833C810D70799
:1004AC009BEC9AE899400AED9BFDEC9AFCE899F8D4
:0E04BC000FD5F0DAE4CDFBE4CCFAE4C8F92267
:1004CA00EB9FF5F0EA9E42F0E99D42F0E89C45F088
:0104DA0022FF
:1004DB00E8600FECC313FCED13FDEE13FEEF13FFFF
:0304EB00D8F12223
:1004EE00E8600FEFC333FFEE33FEED33FDEC33FC6C
:0304FE00D8F12210
:0C050100ECF0A3EDF0A3EEF0A3EFF0226D
:10050D00A8828583F0D083D082120524120524128F
:10051D000524120524E473E493A3C583C5F0C583B4
:10052D00C8C582C8F0A3C583C5F0C583C8C582C838
:01053D00229B
:10053E00BB010DE58229F582E5833AF5830205D0EC
:10054E005007E92582F80205C7BBFE07E92582F8A8
:10055E000205D9E58229F582E5833AF5830205E2A3
:10056E00D083D082F8E4937012740193700DA3A31C
:10057E0093F8740193F5828883E473740293686030
:06058E00EFA3A3A380DF30
:060594008A838982E473F2
:10059A00EC8EF0A4CCC5F0CCCDF8EFA4CEC5F02DEE
:1005AA00FDE43CFCE8A42EC8C5F03DFDE43CFCEFAC
:0D05BA00A4FFE5F028FEE43DFDE43CFC223A
:0905C700E6FB08E6FA08E6F92259
:0905D000E0FBA3E0FAA3E0F9222C
:0905D900E2FB08E2FA08E2F92253
:0C05E200E493FB740193FA740293F92275
:00000001FF
