:0300000002137E6A
:0C137E00787FE4F6D8FD7581210213C5CC
:0C000300000000000000000000000000F1
:0B192F00EF1FAC0670011E4C70F6228A
:10002A00AB07AA06EB1BAE0270011A4E60097FAA43
:08003A007E0512192F80ED2252
:100F6500907120E04480F07F057E0012192FE4FF88
:100F7500FE12002A75A75575AC589071327450F061
:100F85009071307403F0907136742FF07F18EF2450
:100F950066FDE434718D82F583E4F00FEFB433EE32
:100FA500904011E4935407FF90711CE054F84FF002
:100FB500904017E493547FFF90711DE054804FF0EB
:100FC500904010E493FF5401C43333335480FE90B2
:100FD5007123E0547F4EF0EFC313543F4440FFA309
:100FE500E054804FF0904012E493FF540FFE90714F
:100FF50046E054F04EF0EFC4540FFF90714FE054AB
:10100500F04FF0904013E493543FFF907140E0544B
:10101500C04FF0904014E493907126F0904015E491
:0E10250093907128F0904016E49390712AF099
:01103300229A
:08194C007417F0A37470F0227F
:1012530075D9DD120F6575D95590715EE054FEF0B6
:1012630075D9BB1218521218A212186F1211B612A6
:1012730016B91218121217F11218FE1218B478D3F5
:10128300E254FCF2E24401F290718AE4F0C29490D9
:1012930062DC12194C9062D712194C9062D9121960
:1012A3004C9062DB7406F0120E9112103412167B0E
:1012B30012172B7B017A6279A0120882120CBE905E
:1012C30062CFE0FEA3E0FF12148E9062D3EEF0A390
:1012D300EFF09062D1E0FEA3E0FF12148E9062D58E
:0712E300EEF0A3EFF080C361
:100A1B004262D717704262D917704262DC1770427C
:100A2B0062CF17704262D317704262D11770426265
:070A3B00D517704162DB00DA
:1015BA00FFE0FCA3E0FD12082EE47B707A17F9F82D
:1015CA001206F2906303EEF0A3EFF0906303E0FEDD
:1015DA00A3E0FFC3906302E09F906301E09E229024
:1015EA0062FFE0FEA3E022AC06ECF218EFF27817F5
:0215FA00E222EB
:1011B6007812E24401F278567407F278277417F22F
:1011C60018746FF27833E4F218F27819E24401F2F7
:1011D6007811E24401F27817E24401F27812E2440F
:1011E60001F27814E24401F27818E24401F278D36D
:1011F600E254CFF2E24410F290718C740AF0781245
:10120600E24402F278577407F278297417F21874D8
:101216006FF27837E4F218F27819E24402F27811A4
:10122600E24402F27817E24402F27812E24402F251
:101236007814E24402F27818E24402F278D3E254D7
:0D124600F3F2E24404F290718B7409F0227F
:09193A0078331215F14401F22288
:0919430078371215F14402F2227A
:0C190B007818E230E0037F01227F002208
:0C1917007818E230E1037F01227F0022FB
:0D18E4007818E24401F290718C740AF02231
:0E000F007818E254FEF290718CE4F0D2962242
:0D18F1007818E24402F290718B7409F02225
:0E18D6007818E254FDF290718BE4F0D2952266
:08148E009062FFEEF0A3EFF005
:10149600A3EEF0A3EFF09062D7E064177004A3E028
:1014A600647060101215E99062D71215BA4005EE05
:1014B600F0A3EFF09062D9E064177004A3E06470C3
:1014C60060101215E99062D91215BA4005EEF0A324
:1014D600EFF09062DCE064177004A3E064706011C2
:1014E6001215E9FF9062DC1215BB4005EEF0A3EF82
:0914F600F0906301E0FEA3E0FFA9
:0114FF0022CA
:1010FE009062DBE0B4080040030211B5901111F8C4
:10110E0028287302112902113E021153021168029E
:10111E0011B502117D02118F0211A49062CF7404D9
:10112E00F0A374B0F09062D17412F0A374C0F022E8
:10113E009062CF7409F0A37460F09062D1740EF0D7
:10114E00A37410F0229062CF7412F0A374C0F090CA
:10115E0062D17404F0A374B0F0229062CF740EF0DA
:10116E00A37410F09062D17409F0A37460F0229011
:10117E0062CF7417F0A37470F0E49062D1F0A3F014
:10118E00229062CF740BF0A374B8F09062D1740BFE
:10119E00F0A374B8F022E49062CFF0A3F09062D185
:0811AE007417F0A37470F02225
:100A420041629900C10441629B0041629A00416285
:100A5200760060206277FFFF0000000000000000C7
:100A62000000000000000000000000000000000084
:100A72000000000000004162680041626900C10399
:100A820041626A0041626B0044626C0000000042F5
:090A920062700000426272FFFF75
:1016F5007FEA7E0B9062FFFDFCE0F8A3E0F9A3E032
:10170500FAA3E0FB22F0E0441EF09071227407F08A
:1017150022E0FF906308E09F906307E09E229062BD
:061725006BE0C3941422E6
:1018520078F2E24403F278E3E244C0F278F0E25430
:0D186200FDF208E254FDF208E2440CF2220F
:1018A20043AA04D2AF786AE24479F27F017E000251
:0218B200002A0A
:10163C00EF24FE60191460242402702C907123E0B6
:10164C0054D8F0E0441D12170E759917801A90713A
:10165C0023E054F812170A759918800C907123E046
:0F166C0054D812170A75990B7869E24448F22294
:10188A00906274E0FEA3E0FF7C007D0C12082EE457
:08189A007B0AFAF9F80206F2DC
:101034009062FF1207C700000000906299E064020A
:0510440070030210FD25
:10104900906268E004F0E0C3946450030210FDE488
:01105900F0A6
:0F105A0012188A9062FF1207BB906299E0702C07
:101069001216F5C31207845008906269E004F080F3
:1010790005E4906269F0906269E0C3940AE440076C
:0C108900F090629904F022906299F0222D
:08109500906299E064017060B3
:10109D0020030FD20390630D1207C700000000124A
:1010AD001923E47F307E7590630D1216FCC3120771
:0310BD0084403D2F
:1010C000E41216F5120784500890626AE004F0807A
:1010D00005E490626AF090626AE0C3940A4018E402
:1010E000F09062997402F01218C690630D1207C74F
:0D10F00000000000C203229062997401F01C
:0110FD0022D0
:10172B00906299E07008300628C20602004590626C
:10173B0099E0B4010B9062D7740BF0A374B8F0224C
:10174B00906299E0B4020A9062D77405F0A374DC3E
:02175B00F0227A
:10167B0090629EE0FEA3E0FF90629BE0701AD3EFB6
:10168B009420EE940E5004D2048002C2049062DCCB
:10169B007417F0A37470F022C3EF94C8EE940E404D
:0D16AB0002C2049062DC7405F0A374DCF050
:0116B800220F
:03004200020B7638
:100B7600C0E0C0F0C083C082C0D075D000C000C045
:100B860001C002C003C004C005C006C00775B20894
:090B9600786BE220E103020CA0DF
:100B9F00AF93EF75F010A4FFE594C4540FFDEF4D24
:100BAF00FF906307E5F0F0A3EFF0E24402F29062EA
:090BBF009AE064026003020C7765
:100BC8001217235067E004F0E0C394024053906288
:100BD80070E0FEA3D3121716400CE0FFA3E090626A
:100BE80070CFF0A3EFF0906272E0FEA3C312171665
:100BF800500CE0FFA3E0906272CFF0A3EFF0906298
:100C08006C1216FE906307E0FEA3E0FFE4FCFDEB28
:100C18002FFFEA3EFEED39FDEC38FC90626C1207BE
:100C2800BB12172350067869E24401F212172340D9
:100C380067A3E0FCA3E0FDA3E0FEA3E0FF780412B5
:100C48000795906297EEF0A3EFF090629A7403F024
:100C580090626BE4F0906270F0A3F090627274FF9F
:0D0C6800F0A3F090626C1207C700000000BE
:100C7500802990629AE0B4050C906307E0FFA3E039
:100C8500906274801190629AE0B4070F906307E058
:0B0C9500FFA3E090629ECFF0A3EFF001
:100CA00075B204D007D006D005D004D003D002D04E
:0E0CB00001D000D0D0D082D083D0F0D0E0327E
:0A0A9B00426309000042630B0000F3
:10186F0043A820D2AF75D10178957401F218747620
:0B187F00F2789174A0F21874FDF222C0
:03001E000212EAE1
:1012EA00C0E0C083C082C0D075D000C00075B2080B
:1012FA007891E230E770E24480F2D2089062A1E08D
:08130A00C394FF5003E004F05E
:1013120030042F90630CE004F0700690630BE0043D
:10132200F0906309E4F0A3F0C390630CE094329070
:10133200630BE094004037E4F0A3F090629B04F06A
:10134200802C90630AE004F07006906309E004F0D8
:1013520090630BE4F0A3F0C390630AE094409063BF
:0E13620009E0941F4008E4F0A3F090629BF0B5
:0E13700075B204D000D0D0D082D083D0E0324D
:070AA50044630D0000000096
:08195400789CE2541FF2E2222C
:1016B900E5B154CF42B1789CE254E3F2E24414F22A
:1016C900E254FCF2E24401F208E24480F2E24420EE
:1016D900F278A1743BF2187460F2789EE4F208F291
:0C16E90012195444A0F253A8BFD2AF2243
:0C19230012195444C0F243A840D2AF2275
:1018C60012195444A0F2789EE4F208F253A8BF22FB
:0300210002155F66
:10155F00C0E0C0F0C083C082C0D075D000C000C052
:10156F0004C005C006C00775B208789DE230E723B6
:10157F00E24480F290630DE0FCA3E0FDA3E0FEA344
:10158F00E02401FFE43EFEE43DFDE43CFC90630DEE
:10159F001207BB75B204D007D006D005D004D00017
:0B15AF00D0D0D082D083D0F0D0E0324A
:100AAC00C101C1024262F100004262EB0000C100D0
:101500009062E3E0FCA3E0FDA3E0FEA3E02244013F
:10151000FFEC9062E30207BB9062E2E4F09062E7C6
:10152000229062DEE0FEA3E0FF229062E0E0FEA3F4
:10153000E0FF229062E87401F09062E7E4F022900C
:1015400062D4E09F9062D3E09E229062D6E09F90AA
:0F15500062D5E09E229062E2E004F0E06418228F
:1018120043A901D2AF75D104907105E4F09071042F
:101822007424F090710174A0F090710074FDF022A4
:0300240002036173
:10036100C0E0C0F0C083C082C0D075D000C000C062
:1003710001C002C003C004C005C006C00775B208B1
:10038100907101E020E7030205FDE04480F09062F6
:10039100EEE004F070069062EDE004F09062F0E0AF
:1003A10004F070069062EFE004F09062F2E004F075
:1003B10070069062F1E004F0C39062F0E0940D9059
:1003C10062EFE094004006E4F0A3F0D202C3906231
:1003D100EEE0940D9062EDE094004006E4F0A3F0AD
:0203E100D20147
:1003E3002083409062E9E004F0E0C3941E500302CE
:1003F30004EE9062E2E0641760030204EE9062EAA6
:10040300E09406400DE09414500812150012150EE6
:10041300800B9062EAE0C394014002E0FF121533BF
:100423000204EE9062E9E0D3940050030204D4E0A6
:10043300D3943240129062E31207C7000000001207
:10044300151804F00204C19062E7E060279062E9A6
:10045300E0C39402401EE094075019A3E0C394063E
:100463004012E09414500D12150012150E1215557A
:10047300604C802D9062E7E060369062E9E0C394BF
:1004830007402DE094145028A3E0C394014021E0D9
:100493009406501C12150054FE12151012155560C7
:1004A3001DA3121503FF78011207A8121512800E5F
:1004B3009062E31207C700000000121518F0906263
:1004C300E9E4F0A3F09062E2E0B418191215338066
:1004D300149062E7E0700E9062E31207C700000019
:1004E30000121518F09062EAE004F09062E8E06010
:1004F300199062E2E4F09062E8F0A3F0A3F0121521
:0A05030000FF9062B31207BBD2099B
:10050D00C39062F2E094149062F1E094004073E4C1
:10051D00F0A3F020076C121521D312153F40109057
:10052D0062DFE004F0701F9062DEE004F0801712CD
:10053D001521C312153F500E9062DFE024FFF0909D
:10054D0062DEE034FFF012152AD312154A401090E6
:10055D0062E1E004F0701F9062E0E004F080171299
:10056D00152AC312154A500E9062E1E024FFF09057
:10057D0062E0E034FFF012152112193A12152A1219
:02058D00194310
:10058F009062DBE06404704B9062ECE004F0700664
:10059F009062EBE004F0C39062ECE094719062EB38
:1005AF00E094024049E4F0A3F0B2002000111219C8
:1005BF000BEF70031218E4121917EF7031802C1221
:1005CF00190BEF600312000F121917EF60201218AA
:1005DF00D6801B9062EBE4F0A3F0C20012190BEF70
:0E05EF0070031218E4121917EF70031218F1BE
:1005FD0075B204D007D006D005D004D003D002D0F8
:0E060D0001D000D0D0D082D083D0F0D0E03227
:100ABC00C1094462B3000000005862B70301020F81
:100ACC0003040C05063F070830090A3C0B0CC00D4B
:100ADC000EF00F105362A05000FF000000090B0035
:0A0AEC00000002FF01FF175DFF008C
:101832009062B3E0FCA3E0FDA3E0FEA3E0FF020799
:1018420095EC75F003A424B7F582E43462F58322A3
:10175D007BFF2009037FFF22C2097810121832BFC8
:10176D00550A7808121832EF645560037FFF2290F6
:09177D0062B3A3A3A3E0FFAB07D4
:011786002240
:1015FC00E49062FFF0FEEDB401030E800BEDB4023B
:10160C00047E0280037F0022E4FC121843E0B5073D
:10161C0014121843E5822EF582E43583F583E090AD
:0F162C0062FFF080050CECB408E09062FFE0FF75
:01163B00228C
:100CBE009062B1E0F47003020DB7E0FFA3E0FD1205
:100CCE0015FCE49062B2F0EF14B410004003020D74
:100CDE00B7900CED75F003A4C58325F0C5837302A0
:100CEE000D1D020D1D020D24020D24020D2C020DF0
:100CFE002C020D34020D34020D3C020D3C020D444B
:100D0E00020D44020D4C020D4C020D54020D54E422
:100D1E009062DBF080369062DB7404F0802E90627D
:100D2E00DB7401F080269062DB7405F0801E906209
:100D3E00DB7402F080169062DB7406F0800E906217
:100D4E00DB7403F080069062DB7407F01210FE90E5
:100D5E0062CFE0FEA3E0FF12148E9062D3EEF0A3FA
:100D6E00EFF09062D1E0FEA3E0FF12148E9062D5F8
:100D7E00EEF0A3EFF09062D3E0FFA3E09062DECF3F
:100D8E00F0A3EFF09062D5E0FFA3E09062E0CFF029
:100D9E00A3EFF09062DEE0FEA3E0FF12193A90623C
:090DAE00E0E0FEA3E0FF1219438E
:010DB7002219
:0D18FE0078C0E24408F278C2E2543FF222C2
:040AF6004163140044
:1017AB00906311E0FBA3E0FAA3E0F922900006128C
:1017BB000634FE900008020634900009120694903D
:0317CB00000C22ED
:10088200E49062FFF07FFFA374FFF0906311EBF03E
:10089200A3EAF0A3E9F0900001120634FE12061B4F
:1008A200FDEEC39D5003020A1A1217AB900001E439
:1008B20012069490000E1207F8120828EFF460084E
:1008C2009063147423F08009906314E06003E014D1
:1008D200F01217AB9000031206346F6015900005FA
:1008E200120634600D900004E41206949000030294
:1008F2000A16900005120634FE900004120634C354
:100902009E500B1217AB900004740102066112177D
:10091200AB9000021206346F604AEFF4701E121799
:10092200B7C39E400C9062FF7404F090000202096B
:10093200951217AB90000A7401020A0D1217AB90C0
:10094200000874011217C71206346F906311600C0D
:100952001217AE74011217C4EF020A0D1217AE90ED
:100962000009803EEFF470421217AB9000091206A4
:1009720034D394005003020A1090000B120634FE86
:1009820090000A120634D39E40129062FF7401F066
:1009920090000C120634906300F080521217AB9054
:1009A200000A7401120661020A101217AB1217BE76
:1009B200C394FF500890000874011206611217B721
:1009C200B506089062FF7402F0801E1217AB900009
:1009D200071217BA6E70379062FF7403F090000628
:1009E200120634900008120694906300EFF012177A
:1009F200ABE41217C474FF120694906300E09000F7
:100A0200111206949062FFE09000121206941217DF
:080A1200AB900002EF12069404
:010A1A0022B9
:1018B40078D2E254CFF2E24410F2907188E4F0C29C
:0218C40092226E
:10178700C39062DFE094589062DEE094025012C387
:101797009062E1E094589062E0E094025003D292A4
:0417A70022C29222A6
:040AFA00416316013D
:07195C007869E24401F22268
:1017F10043A902D2AF75D10890710D7401F09071B7
:101801000C745DF090710974A0F090710874FDF092
:0118110022B4
:03002700020DB80F
:100DB800C0E0C0F0C083C082C0D075D000C000C001
:100DC80001C002C003C004C005C006C00790710975
:0E0DD800E020E703020E76907109E04480F0FF
:100DE600906315E004F0E0C39408400AA3E06006AF
:100DF600E4F090629AF0906315E0C3940A4007E429
:060E0600F0D206A304F087
:100E0C0090629AE06004E0B4070D7F0112163C90EA
:100E1C00629A7401F0805390629AE0B4010812193E
:100E2C005C7402F0804490629AE0B4030D7F02126D
:100E3C00163C90629A7404F0803090629AE0B4048C
:100E4C000812195C7405F0802190629AE0B4050DCB
:100E5C007F0312163C90629A7406F0800D90629A91
:100E6C00E0B4060612195C7407F0D007D006D00562
:100E7C00D004D003D002D001D000D0D0D082D08307
:050E8C00D0F0D0E032BF
:100AFE0042600300004262650000426263100041E2
:100B0E0062670060406005FFFF000000000000000B
:100B1E0000000000000000000000000000000000C7
:100B2E0000000000000000000000000000000000B7
:100B3E0000000000000000000000000000000000A7
:100B4E000000000000000041600000416001004113
:050B5E00600200C1056A
:10140A007F8BE47E06FDFC9062FFE0F8A3E0F9A37F
:10141A00E0FAA3E0FB22EF25E0FFEE33FE74472F4C
:10142A00F58274603EF58322D39062DAE094B89034
:10143A0062D9E0940B22ECF0A3EDF0906306E0048D
:10144A00F022906305E0FEA3E0FFC322906000E073
:10145A0025E02405F582E43460F58322E4906305EF
:10146A00F0A3F02233FE74052FF58274603EF583F3
:10147A0022906305E004F022906306E025E0FF90E5
:04148A006305E022F4
:100045009062FF1207C700000000906297E0FFA3CF
:10005500E0906303CFF0A3EFF0906005E0F4700348
:05006500A3E0F4704966
:10006A0012146712144C9420EE9400501A906303F1
:10007A00E0FCA3E0FDEF25E0FFEE12146E1214403F
:10008A0070E112147B80DC12146612144C940EEE8A
:10009A009401505E906303E0FCA3E0FD1214201269
:0900AA00144070E612147B80E1A1
:1000B300121456E0FFA3E0906305CFF0A3EFF09096
:1000C3006303E0FEA3E0FF906306E02FF090630577
:1000D300E03EF0E0C313FEA3E013FF906305EEF0F0
:1000E300A3EFF0121456EEF0A3EFF0906000E004DB
:0900F300F0E0C394204002E4F0A7
:1000FC0012146612141112148212146EE0FEA3E094
:10010C00FFE4FCFDEB2FFFEA3EFEED39FDEC38FC85
:10011C009062FF1207BB121445700312147B90639C
:10012C0005E07004A3E0642070C99062FFE0FCA3BA
:10013C00E0FDA3E0FEA3E0FF78051207959062FFB7
:03014C001207BBDC
:10014F009062FFA3A3E0FEA3E0FDAC06906046E043
:10015F0025E0FF906045E033FE74472FF582746011
:10016F003EF583ECF0A3EDF0906046E004F07006EE
:10017F00906045E004F0C3906046E0940E906045B7
:09018F00E094014004E4F0A3F047
:10019800121466906265F0A3F09062637410F0A385
:1001A800E4F012144C940EEE940140030202401243
:1001B8001420E0FCA3E0FD906265E0FAA3E0FBD325
:1001C800ED9BEC9A400F121427E0FFA3E0906265C4
:1001D800CFF0A3EFF0121482121425E0FCA3E0FD87
:1001E800906263E0FAA3E0FBC3ED9BEC9A500F1218
:1001F8001427E0FFA3E0906263CFF0A3EFF09062D2
:1002080063E0FEA3E0FFC3906266E09FFF90626533
:10021800E09EFED3EF9450EE94004008906267741D
:100228001EF08009906267E06003E014F012144544
:08023800700312147B0201AAFD
:1002400012140AC3120784500B30056812140A12E4
:1002500007844060E4906001F0A3F0D205906267EB
:10026000E0B41E20E014F0121432400CA3E024FF8E
:10027000F09062D9E034FFF0C3121433400302035C
:100280006002030D906267E06003020360200103D7
:10029000020360C201C39062DAE094709062D9E018
:1002A00094174003020360A3E004F070069062D943
:1002B000E004F022E47FC37E0512140FD3120784FA
:1002C00040537F6D12140CD31207844008906001D4
:1002D000E064047040200203020360C202906001E7
:1002E000E0C394045003E004F0E4906002F0C2051F
:1002F00012143240028053C3121433500DA3E00491
:10030000F070069062D9E004F0229062D9740BF08C
:10031000A374B8F022E47FC37E0512140FD3120732
:10032000844006906002E06037300234C202906080
:10033000027401F0E4906001F0C205D39062DAE04B
:1003400094089062D9E09407400DA3E024FEF09059
:1003500062D9E034FFF0229062D97407F0A304F070
:01036000227A
:100B63004462F7428C0000C1074462F300000000B6
:020B7300C108B7
:1017CE009062F3E0FCA3E0FDA3E0FEA3E022CFF0E5
:1017DE00A3EFF09062E0E0FFA3E0229062DEE0FF74
:0317EE00A3E02253
:100E9100E49062DEF0A3F09062E0F0A3F0D207C329
:100EA1009062DFE094B89062DEE0940B40119062B2
:100EB100E1E094B89062E0E0940B4003020F40300F
:100EC1000864C2081217CE2477FFEE3401FEE43D18
:100ED100FDE43CFC9062F31207BBE47FE87E03FD76
:100EE100FC9062F3E0F8A3E0F9A3E0FAA3E0FBC30E
:100EF10012078440311217CE94E8FFEE9403FEED01
:100F01009400FDEC9400FC9062F31207BB9062DF49
:100F1100E004F070069062DEE004F01217E99062DE
:100F2100E0CFF0A3EFF09062DEE0FEA3E0FF121944
:100F31003A9062E0E0FEA3E0FF121943020EA01214
:100F410017E99062D31217DC9062D5CFF0A3EFF0CE
:100F51001217E99062CF1217DC9062D1CFF0A3EFA4
:040F6100F0C20722B1
:10138A00021253E493A3F8E493A34003F68001F214
:10139A0008DFF48029E493A3F85407240CC8C33364
:1013AA00C4540F4420C8834004F456800146F6DF33
:1013BA00E4800B0102040810204080900A1BE47E9E
:1013CA00019360BCA3FF543F30E509541FFEE49328
:1013DA00A360010ECF54C025E060A840B8E493A3EF
:1013EA00FAE493A3F8E493A3C8C582C8CAC583CA1A
:1013FA00F0A3C8C582C8CAC583CADFE9DEE780BED2
:010B7500007F
:10061B00BB010689828A83E0225002E722BBFE02DD
:09062B00E32289828A83E4932210
:10063400BB010CE58229F582E5833AF583E022507B
:1006440006E92582F8E622BBFE06E92582F8E222C5
:0D065400E58229F582E5833AF583E49322DF
:10066100BB010FF8E58229F582E5833AF583E0289D
:10067100F0225009C58229F8E58226F622BBFE093F
:10068100C58229F8E22582F222F8EA2583F583E979
:0306910093282289
:10069400F8BB010DE58229F582E5833AF583E8F09C
:1006A400225006E92582C8F622BBFE05E92582C848
:0206B400F22230
:1006B60075F008758200EF2FFFEE33FECD33CDCCFB
:1006C60033CCC58233C5829BED9AEC99E58298407E
:1006D6000CF582EE9BFEED9AFDEC99FC0FD5F0D65B
:1006E600E4CEFBE4CDFAE4CCF9A88222B800C1B985
:1006F6000059BA002DEC8BF084CFCECDFCE5F0CBC3
:10070600F97818EF2FFFEE33FEED33FDEC33FCEBFB
:1007160033FB10D703994004EB99FB0FD8E5E4F9B6
:10072600FA227818EF2FFFEE33FEED33FDEC33FCA3
:10073600C933C910D7059BE99A4007EC9BFCE99A97
:10074600F90FD8E0E4C9FAE4CCFB2275F010EF2FDC
:10075600FFEE33FEED33FDCC33CCC833C810D707DC
:100766009BEC9AE899400AED9BFDEC9AFCE899F817
:0E0776000FD5F0DAE4CDFBE4CCFAE4C8F922AA
:10078400EB9FF5F0EA9E42F0E99D42F0E89C45F0CB
:010794002242
:10079500E8600FECC313FCED13FDEE13FEEF13FF42
:0307A500D8F12266
:1007A800E8600FEFC333FFEE33FEED33FDEC33FCAF
:0307B800D8F12253
:0C07BB00ECF0A3EDF0A3EEF0A3EFF022B1
:1007C700A8828583F0D083D0821207DE1207DE125B
:1007D70007DE1207DEE473E493A3C583C5F0C58380
:1007E700C8C582C8F0A3C583C5F0C583C8C582C87C
:0107F70022DF
:1007F800BB010DE58229F582E5833AF58302086499
:100808005007E92582F802085BBBFE07E92582F854
:1008180002086DE58229F582E5833AF583020876B8
:060828008A838982E4735B
:10082E00EC8EF0A4CCC5F0CCCDF8EFA4CEC5F02D57
:10083E00FDE43CFCE8A42EC8C5F03DFDE43CFCEF15
:0D084E00A4FFE5F028FEE43DFDE43CFC22A3
:09085B00E6FB08E6FA08E6F922C2
:09086400E0FBA3E0FAA3E0F92295
:09086D00E2FB08E2FA08E2F922BC
:0C087600E493FB740193FA740293F922DE
:00000001FF
