:0300000002136B7D
:0C136B00787FE4F6D8FD7581210213B2F2
:0C000300000000000000000000000000F1
:0B190700EF1FAC0670011E4C70F622B2
:10002A00AB07AA06EB1BAE0270011A4E60097FAA43
:08003A007E0512190780ED227A
:100F6500907120E04480F07F057E00121907E4FFB0
:100F7500FE12002A75A75575AC589071327450F061
:100F85009071307403F0907136742FF07F18EF2450
:100F950066FDE434718D82F583E4F00FEFB433EE32
:100FA500904011E4935407FF90711CE054F84FF002
:100FB500904017E493547FFF90711DE054804FF0EB
:100FC500904010E493FF5401C43333335480FE90B2
:100FD5007123E0547F4EF0EFC313543F4440FFA309
:100FE500E054804FF0904012E493FF540FFE90714F
:100FF50046E054F04EF0EFC4540FFF90714FE054AB
:10100500F04FF0904013E493543FFF907140E0544B
:10101500C04FF0904014E493907126F0904015E491
:0E10250093907128F0904016E49390712AF099
:01103300229A
:081924007417F0A37470F022A7
:1012400075D9DD120F6575D95590715EE054FEF0C9
:1012500075D9BB12181C12186C1218391211A3126E
:1012600016A61217DC1217BB1218D612187E78D3E6
:10127000E254FCF2E24401F290718AE4F0C29490EC
:1012800062DC1219249062D71219249062D91219C3
:10129000249062DB7406F0120E911210341216685C
:1012A0001217187B017A6279A0120882120CBE9084
:1012B00062CFE0FEA3E0FF12147B9062D3EEF0A3B6
:1012C000EFF09062D1E0FEA3E0FF12147B9062D5B4
:0712D000EEF0A3EFF080C374
:100A1B004262D717704262D917704262DC1770427C
:100A2B0062CF17704262D317704262D11770426265
:070A3B00D517704162DB00DA
:1015A700FFE0FCA3E0FD12082EE47B707A17F9F840
:1015B7001206F2906303EEF0A3EFF0906303E0FEF0
:1015C700A3E0FFC3906302E09F906301E09E229037
:1015D70062FFE0FEA3E022AC06ECF218EFF2781708
:0215E700E222FE
:1011A3007812E24401F278567407F278277417F242
:1011B30018746FF27833E4F218F27819E24401F20A
:1011C3007811E24401F27817E24401F27812E24422
:1011D30001F27814E24401F27818E24401F278D380
:1011E300E254CFF2E24410F290718C740AF0781258
:1011F300E24402F278577407F278297417F21874EC
:101203006FF27837E4F218F27819E24402F27811B7
:10121300E24402F27817E24402F27812E24402F264
:101223007814E24402F27818E24402F278D3E254EA
:0D123300F3F2E24404F290718B7409F02292
:0919120078331215DE4401F222C3
:09191B0078371215DE4402F222B5
:0C18E3007818E230E0037F01227F002231
:0C18EF007818E230E1037F01227F002224
:0D18BC007818E24401F290718C740AF02259
:0E000F007818E254FEF290718CE4F0D2962242
:0D18C9007818E24402F290718B7409F0224D
:0E18A0007818E254FDF290718BE4F0D295229C
:08147B009062FFEEF0A3EFF018
:10148300A3EEF0A3EFF09062D7E064177004A3E03B
:10149300647060101215D69062D71215A74005EE3E
:1014A300F0A3EFF09062D9E064177004A3E06470D6
:1014B30060101215D69062D91215A74005EEF0A35D
:1014C300EFF09062DCE064177004A3E064706011D5
:1014D3001215D6FF9062DC1215A84005EEF0A3EFBB
:0914E300F0906301E0FEA3E0FFBC
:0114EC0022DD
:1010FE009062DBE0B4080040030211A2901111F8D7
:10110E0028287302112902113E02114002113E02DB
:10111E0011A202116A02117C0211919062CF740425
:10112E00F0A374B0F09062D17412F0A374C0F022E8
:10113E0080159062CF7412F0A374C0F09062D174D7
:10114E0004F0A374B0F0229062CF7409F0A374601F
:10115E00F09062D17409F0A37460F0229062CF74A3
:10116E0017F0A37470F0E49062D1F0A3F0229062B5
:10117E00CF740BF0A374B8F09062D1740BF0A3741B
:10118E00B8F022E49062CFF0A3F09062D17417F021
:05119E00A37470F022B3
:100A420041629900C10441629B0041629A00416285
:100A5200760060206277FFFF0000000000000000C7
:100A62000000000000000000000000000000000084
:100A72000000000000004162680041626900C10399
:100A820041626A0041626B0044626C0000000042F5
:090A920062700000426272FFFF75
:1016E2007FEA7E0B9062FFFDFCE0F8A3E0F9A3E045
:1016F200FAA3E0FB22F0E0441EF09071227407F09E
:1017020022E0FF906308E09F906307E09E229062D0
:061712006BE0C3941422F9
:10181C0078F2E24403F278E3E244C0F278F0E25466
:0D182C00FDF208E254FDF208E2440CF22245
:10186C0043AA04D2AF786AE24479F27F017E000287
:02187C00002A40
:10162900EF24FE60191460242402702C907123E0C9
:1016390054D8F0E0441D1216FB759917801A907161
:1016490023E054F81216F7759918800C907123E06D
:0F16590054D81216F775990B7869E24448F222BB
:10185400906274E0FEA3E0FF7C007D0C12082EE48D
:081864007B0AFAF9F80206F212
:101034009062FF1207C700000000906299E064020A
:0510440070030210FD25
:10104900906268E004F0E0C3946450030210FDE488
:01105900F0A6
:0F105A001218549062FF1207BB906299E0702C3D
:101069001216E2C31207845008906269E004F08006
:1010790005E4906269F0906269E0C3940AE440076C
:0C108900F090629904F022906299F0222D
:08109500906299E064017060B3
:10109D0020030FD20390630D1207C700000000124A
:1010AD0018FBE47F307E7590630D1216E9C31207AD
:0310BD0084403D2F
:1010C000E41216E2120784500890626AE004F0808D
:1010D00005E490626AF090626AE0C3940A4018E402
:1010E000F09062997402F012189090630D1207C785
:0D10F00000000000C203229062997401F01C
:0110FD0022D0
:10171800906299E07008300628C20602004590627F
:1017280099E0B4010B9062D7740BF0A374B8F0225F
:10173800906299E0B4020A9062D77405F0A374DC51
:02174800F0228D
:1016680090629EE0FEA3E0FF90629BE0701AD3EFC9
:101678009420EE940E5004D2048002C2049062DCDE
:101688007417F0A37470F022C3EF94C8EE940E4060
:0D16980002C2049062DC7405F0A374DCF063
:0116A5002222
:03004200020B7638
:100B7600C0E0C0F0C083C082C0D075D000C000C045
:100B860001C002C003C004C005C006C00775B20894
:090B9600786BE220E103020CA0DF
:100B9F00AF93EF75F010A4FFE594C4540FFDEF4D24
:100BAF00FF906307E5F0F0A3EFF0E24402F29062EA
:090BBF009AE064026003020C7765
:100BC8001217105067E004F0E0C39402405390629B
:100BD80070E0FEA3D3121703400CE0FFA3E090627D
:100BE80070CFF0A3EFF0906272E0FEA3C312170378
:100BF800500CE0FFA3E0906272CFF0A3EFF0906298
:100C08006C1216EB906307E0FEA3E0FFE4FCFDEB3B
:100C18002FFFEA3EFEED39FDEC38FC90626C1207BE
:100C2800BB12171050067869E24401F212171040FF
:100C380067A3E0FCA3E0FDA3E0FEA3E0FF780412B5
:100C48000795906297EEF0A3EFF090629A7403F024
:100C580090626BE4F0906270F0A3F090627274FF9F
:0D0C6800F0A3F090626C1207C700000000BE
:100C7500802990629AE0B4050C906307E0FFA3E039
:100C8500906274801190629AE0B4070F906307E058
:0B0C9500FFA3E090629ECFF0A3EFF001
:100CA00075B204D007D006D005D004D003D002D04E
:0E0CB00001D000D0D0D082D083D0F0D0E0327E
:0A0A9B00426309000042630B0000F3
:1018390043A820D2AF75D10178957401F218747656
:0B184900F2789174A0F21874FDF222F6
:03001E000212D7F4
:1012D700C0E0C083C082C0D075D000C00075B2081E
:1012E7007891E230E770E24480F2D2089062A1E0A0
:0812F700C394FF5003E004F072
:1012FF0030042F90630CE004F0700690630BE00451
:10130F00F0906309E4F0A3F0C390630CE094329083
:10131F00630BE094004037E4F0A3F090629B04F07D
:10132F00802C90630AE004F07006906309E004F0EB
:10133F0090630BE4F0A3F0C390630AE094409063D2
:0E134F0009E0941F4008E4F0A3F090629BF0C8
:0E135D0075B204D000D0D0D082D083D0E03260
:070AA50044630D0000000096
:08192C00789CE2541FF2E22254
:1016A600E5B154CF42B1789CE254E3F2E24414F23D
:1016B600E254FCF2E24401F208E24480F2E2442001
:1016C600F278A1743BF2187460F2789EE4F208F2A4
:0C16D60012192C44A0F253A8BFD2AF227E
:0C18FB0012192C44C0F243A840D2AF22C6
:1018900012192C44A0F2789EE4F208F253A8BF2259
:0300210002154C79
:10154C00C0E0C0F0C083C082C0D075D000C000C065
:10155C0004C005C006C00775B208789DE230E723C9
:10156C00E24480F290630DE0FCA3E0FDA3E0FEA357
:10157C00E02401FFE43EFEE43DFDE43CFC90630D01
:10158C001207BB75B204D007D006D005D004D0002A
:0B159C00D0D0D082D083D0F0D0E0325D
:100AAC00C101C1024262F100004262EB0000C100D0
:1014ED009062E3E0FCA3E0FDA3E0FEA3E022440153
:1014FD00FFEC9062E30207BB9062E2E4F09062E7DA
:10150D00229062DEE0FEA3E0FF229062E0E0FEA307
:10151D00E0FF229062E87401F09062E7E4F022901F
:10152D0062D4E09F9062D3E09E229062D6E09F90BD
:0F153D0062D5E09E229062E2E004F0E0641822A2
:1017DC0043A901D2AF75D104907105E4F090710466
:1017EC007424F090710174A0F090710074FDF022DB
:0300240002036173
:10036100C0E0C0F0C083C082C0D075D000C000C062
:1003710001C002C003C004C005C006C00775B208B1
:10038100907101E020E7030205FDE04480F09062F6
:10039100EEE004F070069062EDE004F09062F0E0AF
:1003A10004F070069062EFE004F09062F2E004F075
:1003B10070069062F1E004F0C39062F0E0940D9059
:1003C10062EFE094004006E4F0A3F0D202C3906231
:1003D100EEE0940D9062EDE094004006E4F0A3F0AD
:0203E100D20147
:1003E3002083409062E9E004F0E0C3941E500302CE
:1003F30004EE9062E2E0641760030204EE9062EAA6
:10040300E09406400DE0941450081214ED1214FB0E
:10041300800B9062EAE0C394014002E0FF121520D2
:100423000204EE9062E9E0D3940050030204D4E0A6
:10043300D3943240129062E31207C7000000001207
:10044300150504F00204C19062E7E060279062E9B9
:10045300E0C39402401EE094075019A3E0C394063E
:100463004012E09414500D1214ED1214FB121542B5
:10047300604C802D9062E7E060369062E9E0C394BF
:1004830007402DE094145028A3E0C394014021E0D9
:100493009406501C1214ED54FE1214FD1215426002
:1004A3001DA31214F0FF78011207A81214FF800E87
:1004B3009062E31207C700000000121505F0906276
:1004C300E9E4F0A3F09062E2E0B418191215208079
:1004D300149062E7E0700E9062E31207C700000019
:1004E30000121505F09062EAE004F09062E8E06023
:1004F300199062E2E4F09062E8F0A3F0A3F0121422
:0A050300EDFF9062B31207BBD209AE
:10050D00C39062F2E094149062F1E094004073E4C1
:10051D00F0A3F020076C12150ED312152C4010907D
:10052D0062DFE004F0701F9062DEE004F0801712CD
:10053D00150EC312152C500E9062DFE024FFF090C3
:10054D0062DEE034FFF0121517D31215374010900C
:10055D0062E1E004F0701F9062E0E004F080171299
:10056D001517C3121537500E9062E1E024FFF0907D
:10057D0062E0E034FFF012150E1219121215171267
:02058D00191B38
:10058F009062DBE06404704B9062ECE004F0700664
:10059F009062EBE004F0C39062ECE094719062EB38
:1005AF00E094024049E4F0A3F0B2002000111218C9
:1005BF00E3EF70031218BC1218EFEF7031802C129A
:1005CF0018E3EF600312000F1218EFEF60201218FC
:1005DF00A0801B9062EBE4F0A3F0C2001218E3EFCF
:0E05EF0070031218BC1218EFEF70031218C937
:1005FD0075B204D007D006D005D004D003D002D0F8
:0E060D0001D000D0D0D082D083D0F0D0E03227
:100ABC00C1094462B3000000005862B70301020F81
:100ACC0003040C05063F070830090A3C0B0CC00D4B
:100ADC000EF00F105362A05000FF000000090B0035
:0A0AEC00000002FF01FF174AFF009F
:1017FC009062B3E0FCA3E0FDA3E0FEA3E0FF0207D0
:10180C0095EC75F003A424B7F582E43462F58322D9
:10174A007BFF2009037FFF22C20978101217FCBF12
:10175A00550A78081217FCEF645560037FFF229040
:09176A0062B3A3A3A3E0FFAB07E7
:011773002253
:1015E900E49062FFF0FEEDB401030E800BEDB4024E
:1015F900047E0280037F0022E4FC12180DE0B50787
:101609001412180DE5822EF582E43583F583E090F6
:0F16190062FFF080050CECB408E09062FFE0FF88
:01162800229F
:100CBE009062B1E0F47003020DB7E0FFA3E0FD1205
:100CCE0015E9E49062B2F0EF14B410004003020D87
:100CDE00B7900CED75F003A4C58325F0C5837302A0
:100CEE000D1D020D1D020D24020D24020D2C020DF0
:100CFE002C020D34020D34020D3C020D3C020D444B
:100D0E00020D44020D4C020D4C020D54020D54E422
:100D1E009062DBF080369062DB7404F0802E90627D
:100D2E00DB7401F080269062DB7405F0801E906209
:100D3E00DB7402F080169062DB7406F0800E906217
:100D4E00DB7403F080069062DB7407F01210FE90E5
:100D5E0062CFE0FEA3E0FF12147B9062D3EEF0A30D
:100D6E00EFF09062D1E0FEA3E0FF12147B9062D50B
:100D7E00EEF0A3EFF09062D3E0FFA3E09062DECF3F
:100D8E00F0A3EFF09062D5E0FFA3E09062E0CFF029
:100D9E00A3EFF09062DEE0FEA3E0FF121912906264
:090DAE00E0E0FEA3E0FF12191BB6
:010DB7002219
:0D18D60078C0E24408F278C2E2543FF222EA
:040AF6004163140044
:10179800906311E0FBA3E0FAA3E0F922900006129F
:1017A8000634FE9000080206349000091206949050
:0317B800000C2200
:10088200E49062FFF07FFFA374FFF0906311EBF03E
:10089200A3EAF0A3E9F0900001120634FE12061B4F
:1008A200FDEEC39D5003020A1A121798900001E44C
:1008B20012069490000E1207F8120828EFF460084E
:1008C2009063147423F08009906314E06003E014D1
:1008D200F01217989000031206346F60159000050D
:1008E200120634600D900004E41206949000030294
:1008F2000A16900005120634FE900004120634C354
:100902009E500B1217989000047401020661121790
:10091200989000021206346F604AEFF4701E1217AC
:10092200A4C39E400C9062FF7404F090000202097E
:100932009512179890000A7401020A0D12179890E6
:10094200000874011217B41206346F906311600C20
:1009520012179B74011217B1EF020A0D12179B9026
:100962000009803EEFF470421217989000091206B7
:1009720034D394005003020A1090000B120634FE86
:1009820090000A120634D39E40129062FF7401F066
:1009920090000C120634906300F080521217989067
:1009A200000A7401120661020A101217981217AB9C
:1009B200C394FF500890000874011206611217A434
:1009C200B506089062FF7402F0801E12179890001C
:1009D200071217A76E70379062FF7403F09000063B
:1009E200120634900008120694906300EFF012177A
:1009F20098E41217B174FF120694906300E090001D
:100A0200111206949062FFE09000121206941217DF
:080A120098900002EF12069417
:010A1A0022B9
:10187E0078D2E254CFF2E24410F2907188E4F0C2D2
:02188E009222A4
:10177400C39062DFE094589062DEE094025012C39A
:101784009062E1E094589062E0E094025003D292B7
:0417940022C29222B9
:040AFA00416316013D
:071934007869E24401F22290
:1017BB0043A902D2AF75D10890710D7401F09071ED
:1017CB000C745DF090710974A0F090710874FDF0C9
:0117DB0022EB
:03002700020DB80F
:100DB800C0E0C0F0C083C082C0D075D000C000C001
:100DC80001C002C003C004C005C006C00790710975
:0E0DD800E020E703020E76907109E04480F0FF
:100DE600906315E004F0E0C39408400AA3E06006AF
:100DF600E4F090629AF0906315E0C3940A4007E429
:060E0600F0D206A304F087
:100E0C0090629AE06004E0B4070D7F0112162990FD
:100E1C00629A7401F0805390629AE0B4010812193E
:100E2C00347402F0804490629AE0B4030D7F021295
:100E3C00162990629A7404F0803090629AE0B4049F
:100E4C00081219347405F0802190629AE0B4050DF3
:100E5C007F0312162990629A7406F0800D90629AA4
:100E6C00E0B406061219347407F0D007D006D0058A
:100E7C00D004D003D002D001D000D0D0D082D08307
:050E8C00D0F0D0E032BF
:100AFE0042600300004262650000426263100041E2
:100B0E0062670060406005FFFF000000000000000B
:100B1E0000000000000000000000000000000000C7
:100B2E0000000000000000000000000000000000B7
:100B3E0000000000000000000000000000000000A7
:100B4E000000000000000041600000416001004113
:050B5E00600200C1056A
:1013F7007F8BE47E06FDFC9062FFE0F8A3E0F9A393
:10140700E0FAA3E0FB22EF25E0FFEE33FE74472F5F
:10141700F58274603EF58322D39062DAE094B89047
:1014270062D9E0940B22ECF0A3EDF0906306E004A0
:10143700F022906305E0FEA3E0FFC322906000E086
:1014470025E02405F582E43460F58322E490630502
:10145700F0A3F02233FE74052FF58274603EF58306
:1014670022906305E004F022906306E025E0FF90F8
:041477006305E02207
:100045009062FF1207C700000000906297E0FFA3CF
:10005500E0906303CFF0A3EFF0906005E0F4700348
:05006500A3E0F4704966
:10006A001214541214399420EE9400501A90630317
:10007A00E0FCA3E0FDEF25E0FFEE12145B12142D65
:10008A0070E112146880DC121453121439940EEEC3
:10009A009401505E906303E0FCA3E0FD12140D127C
:0900AA00142D70E612146880E1C7
:1000B300121443E0FFA3E0906305CFF0A3EFF090A9
:1000C3006303E0FEA3E0FF906306E02FF090630577
:1000D300E03EF0E0C313FEA3E013FF906305EEF0F0
:1000E300A3EFF0121443EEF0A3EFF0906000E004EE
:0900F300F0E0C394204002E4F0A7
:1000FC001214531213FE12146F12145BE0FEA3E0E1
:10010C00FFE4FCFDEB2FFFEA3EFEED39FDEC38FC85
:10011C009062FF1207BB12143270031214689063C2
:10012C0005E07004A3E0642070C99062FFE0FCA3BA
:10013C00E0FDA3E0FEA3E0FF78051207959062FFB7
:03014C001207BBDC
:10014F009062FFA3A3E0FEA3E0FDAC06906046E043
:10015F0025E0FF906045E033FE74472FF582746011
:10016F003EF583ECF0A3EDF0906046E004F07006EE
:10017F00906045E004F0C3906046E0940E906045B7
:09018F00E094014004E4F0A3F047
:10019800121453906265F0A3F09062637410F0A398
:1001A800E4F0121439940EEE940140030202401256
:1001B800140DE0FCA3E0FD906265E0FAA3E0FBD338
:1001C800ED9BEC9A400F121414E0FFA3E0906265D7
:1001D800CFF0A3EFF012146F121412E0FCA3E0FDAD
:1001E800906263E0FAA3E0FBC3ED9BEC9A500F1218
:1001F8001414E0FFA3E0906263CFF0A3EFF09062E5
:1002080063E0FEA3E0FFC3906266E09FFF90626533
:10021800E09EFED3EF9450EE94004008906267741D
:100228001EF08009906267E06003E014F012143257
:0802380070031214680201AA10
:100240001213F7C3120784500B3005681213F7120C
:1002500007844060E4906001F0A3F0D205906267EB
:10026000E0B41E20E014F012141F400CA3E024FFA1
:10027000F09062D9E034FFF0C3121420400302036F
:100280006002030D906267E06003020360200103D7
:10029000020360C201C39062DAE094709062D9E018
:1002A00094174003020360A3E004F070069062D943
:1002B000E004F022E47FC37E051213FCD31207840E
:1002C00040537F6D1213F9D31207844008906001E8
:1002D000E064047040200203020360C202906001E7
:1002E000E0C394045003E004F0E4906002F0C2051F
:1002F00012141F40028053C3121420500DA3E004B7
:10030000F070069062D9E004F0229062D9740BF08C
:10031000A374B8F022E47FC37E051213FCD3120746
:10032000844006906002E06037300234C202906080
:10033000027401F0E4906001F0C205D39062DAE04B
:1003400094089062D9E09407400DA3E024FEF09059
:1003500062D9E034FFF0229062D97407F0A304F070
:01036000227A
:100B63004462F7428C0000C1074462F300000000B6
:020B7300C108B7
:0E18AE009062F3E0FCA3E0FDA3E0FEA3E022C5
:100E9100E49062DEF0A3F09062E0F0A3F0D207C329
:100EA1009062DFE094B89062DEE0940B40119062B2
:100EB100E1E094B89062E0E0940B4003020F44300B
:100EC1000868C2081218AE2477FFEE3401FEE43D33
:100ED100FDE43CFC9062F31207BBE47FE87E03FD76
:100EE100FC9062F3E0F8A3E0F9A3E0FAA3E0FBC30E
:100EF10012078440351218AE94E8FFEE9403FEED1C
:100F01009400FDEC9400FC9062F31207BB9062DF49
:100F1100E004F070069062DEE004F09062DEE0FF33
:100F2100A3E09062E0CFF0A3EFF09062DEE0FEA3D9
:100F3100E0FF1219129062E0E0FEA3E0FF12191B1C
:100F4100020EA09062DEE0FFA3E09062D3CFF0A397
:100F5100EFF09062E0E0FFA3E09062D5CFF0A3EF65
:040F6100F0C20722B1
:10137700021240E493A3F8E493A34003F68001F23A
:1013870008DFF48029E493A3F85407240CC8C33377
:10139700C4540F4420C8834004F456800146F6DF46
:1013A700E4800B0102040810204080900A1BE47EB1
:1013B700019360BCA3FF543F30E509541FFEE4933B
:1013C700A360010ECF54C025E060A840B8E493A302
:1013D700FAE493A3F8E493A3C8C582C8CAC583CA2D
:1013E700F0A3C8C582C8CAC583CADFE9DEE780BEE5
:010B7500007F
:10061B00BB010689828A83E0225002E722BBFE02DD
:09062B00E32289828A83E4932210
:10063400BB010CE58229F582E5833AF583E022507B
:1006440006E92582F8E622BBFE06E92582F8E222C5
:0D065400E58229F582E5833AF583E49322DF
:10066100BB010FF8E58229F582E5833AF583E0289D
:10067100F0225009C58229F8E58226F622BBFE093F
:10068100C58229F8E22582F222F8EA2583F583E979
:0306910093282289
:10069400F8BB010DE58229F582E5833AF583E8F09C
:1006A400225006E92582C8F622BBFE05E92582C848
:0206B400F22230
:1006B60075F008758200EF2FFFEE33FECD33CDCCFB
:1006C60033CCC58233C5829BED9AEC99E58298407E
:1006D6000CF582EE9BFEED9AFDEC99FC0FD5F0D65B
:1006E600E4CEFBE4CDFAE4CCF9A88222B800C1B985
:1006F6000059BA002DEC8BF084CFCECDFCE5F0CBC3
:10070600F97818EF2FFFEE33FEED33FDEC33FCEBFB
:1007160033FB10D703994004EB99FB0FD8E5E4F9B6
:10072600FA227818EF2FFFEE33FEED33FDEC33FCA3
:10073600C933C910D7059BE99A4007EC9BFCE99A97
:10074600F90FD8E0E4C9FAE4CCFB2275F010EF2FDC
:10075600FFEE33FEED33FDCC33CCC833C810D707DC
:100766009BEC9AE899400AED9BFDEC9AFCE899F817
:0E0776000FD5F0DAE4CDFBE4CCFAE4C8F922AA
:10078400EB9FF5F0EA9E42F0E99D42F0E89C45F0CB
:010794002242
:10079500E8600FECC313FCED13FDEE13FEEF13FF42
:0307A500D8F12266
:1007A800E8600FEFC333FFEE33FEED33FDEC33FCAF
:0307B800D8F12253
:0C07BB00ECF0A3EDF0A3EEF0A3EFF022B1
:1007C700A8828583F0D083D0821207DE1207DE125B
:1007D70007DE1207DEE473E493A3C583C5F0C58380
:1007E700C8C582C8F0A3C583C5F0C583C8C582C87C
:0107F70022DF
:1007F800BB010DE58229F582E5833AF58302086499
:100808005007E92582F802085BBBFE07E92582F854
:1008180002086DE58229F582E5833AF583020876B8
:060828008A838982E4735B
:10082E00EC8EF0A4CCC5F0CCCDF8EFA4CEC5F02D57
:10083E00FDE43CFCE8A42EC8C5F03DFDE43CFCEF15
:0D084E00A4FFE5F028FEE43DFDE43CFC22A3
:09085B00E6FB08E6FA08E6F922C2
:09086400E0FBA3E0FAA3E0F92295
:09086D00E2FB08E2FA08E2F922BC
:0C087600E493FB740193FA740293F922DE
:00000001FF
