:03000000021435B2
:0C143500787FE4F6D8FD75812102147C5C
:0C000300000000000000000000000000F1
:0B1A5E00EF1FAC0670011E4C70F6225A
:10002A00AB07AA06EB1BAE0270011A4E60097FAA43
:08003A007E05121A5E80ED2222
:100F4400907120E04480F07F057E00121A5EE4FF79
:100F5400FE12002A75A75575AC589071327450F082
:100F64009071307403F0907136742FF07F18EF2471
:100F740066FDE434718D82F583E4F00FEFB433EE53
:100F8400904011E4935407FF90711CE054F84FF023
:100F9400904017E493547FFF90711DE054804FF00C
:100FA400904010E493FF5401C43333335480FE90D3
:100FB4007123E0547F4EF0EFC313543F4440FFA32A
:100FC400E054804FF0904012E493FF540FFE907170
:100FD40046E054F04EF0EFC4540FFF90714FE054CC
:100FE400F04FF0904013E493543FFF907140E0546D
:100FF400C04FF0904014E493907126F0904015E4B3
:0E10040093907128F0904016E49390712AF0BA
:0110120022BB
:081A7B007417F0A37470F0224F
:1013100075D9DD120F4475D95590715EE054FEF019
:1013200075D9BB1219811219D112199E121273129A
:1013300017F812191F121940121A2D1219E378D337
:10134000E254FCF2E24401F290718AE4F0C294901B
:1013500062EC121A7B9062E7121A7B9062E9121A11
:101360007B9062EB7405F01211AB1210E11217BA08
:101370001218A27B017A62796C1208E1120D6D904D
:1013800062DFE0FEA3E0FF1215BC9062E3EEF0A383
:10139000EFF09062E1E0FEA3E0FF1215BC9062E581
:0713A000EEF0A3EFF080C3A3
:100AB4004262E717704262E917704262EC177042B3
:100AC40062DF17704262E317704262E1177042629C
:070AD400E517704162EB0021
:10173900FFE0FCA3E0FD12088DE47B707A17F9F84D
:1017490012072B906305EEF0A3EFF0906305E0FE1E
:10175900A3E0FFC3906304E09F906303E09E22909F
:101769006301E0FEA3E022AC06ECF218EFF2781771
:02177900E2226A
:101273007812E24401F278567407F278277417F271
:1012830018746FF27833E4F218F27819E24401F239
:101293007811E24401F27817E24401F27812E24451
:1012A30001F27814E24401F27818E24401F278D3AF
:1012B300E254CFF2E24410F290718C740AF0781287
:1012C300E24402F278577407F278297417F218741B
:1012D3006FF27837E4F218F27819E24402F27811E7
:1012E300E24402F27817E24402F27812E24402F294
:1012F3007814E24402F27818E24402F278D3E2541A
:0D130300F3F2E24404F290718B7409F022C1
:091A690078331217704401F222D7
:091A720078371217704402F222C9
:0C1A3A007818E230E0037F01227F0022D8
:0C1A46007818E230E1037F01227F0022CB
:0D1A13007818E24401F290718C740AF02200
:0E000F0090718CE4F0D2967818E254FEF22242
:0D1A20007818E24402F290718B7409F022F4
:0E1A050090718BE4F0D2957818E254FDF22235
:0815BC00906301EEF0A3EFF0D3
:1015C400A3EEF0A3EFF09062E7E064177004A3E0E9
:1015D400647060101217689062E71217394005EEC4
:1015E400F0A3EFF09062E9E064177004A3E0647084
:1015F40060101217689062E91217394005EEF0A3E3
:10160400EFF09062ECE064177004A3E06470601182
:10161400121768FF9062EC12173A4005EEF0A3EF40
:09162400F0906303E0FEA3E0FF77
:01162D00229A
:101013009062EBE0B40C0040030210E0901026F85D
:1010230028287302104A02105F021074021089020A
:10103300109E0210B00210C50210D70210D7021082
:10104300D70210D70210D79062DF7402F0A3749412
:10105300F09062E17416F0A37408F0229062DF74DA
:1010630006F0A37418F09062E17413F0A37474F0A3
:10107300229062DF740FF0A3743CF09062E1740A73
:10108300F0A3748CF0229062DF7413F0A37438F031
:101093009062E17405F0A374DCF0229062DF7417B0
:1010A300F0A37470F0E49062E1F0A3F0229062DFA9
:1010B3007409F0A374D8F09062E1740FF0A3743C48
:1010C300F022E49062DFF0A3F09062E17417F0A3E2
:0E10D3007470F022E49062F9F0A3F0C20222E1
:100ADB004162D800C1064162DA004162D90041622D
:100AEB00B500602062B6FFFF0000000000000000B0
:100AFB0000000000000000000000000000000000EB
:100B0B000000000000004162A7004162A800C1057F
:100B1B004162A9004162AA004462AB00000000429E
:090B2B0062AF00004262B1FFFF5D
:10186C007FEA7E0B906301FDFCE0F8A3E0F9A3E0B6
:10187C00FAA3E0FB22F0E0441EF09071227407F012
:10188C0022E0FF90630AE09F906309E09E22906241
:06189C00AAE0C39414222F
:1019810078F2E24403F278E3E244C0F278F0E25400
:0D199100FDF208E254FDF208E2440CF222DF
:1019D10043AA04D2AF786AE24479F27F017E000221
:0219E100002ADA
:10177B00EF24FE60191460242402702C907123E076
:10178B0054D8F0E0441D121885759917801A907182
:10179B0023E054F8121881759918800C907123E08E
:0F17AB0054D812188175990B7869E24448F222DC
:1019B9009062B3E0FEA3E0FF7C007D0C12088DE489
:0819C9007B0AFAF9F802072B72
:1010E100906301120800000000009062D8E06402E1
:0510F10070030211AACA
:1010F6009062A7E004F0E0C3946450030211AAE4EE
:01110600F0F8
:0F1107001219B99063011207F49062D8E0702CAE
:1011160012186CC31207BD50089062A8E004F08054
:1011260005E49062A8F09062A8E0C3940AE4400740
:0C113600F09062D804F0229062D8F02201
:081142009062D8E064017060C6
:10114A0020050FD205906319120800000000001252
:10115A001A52E47F307E75906319121873C312070E
:03116A00BD403D48
:10116D00E412186C1207BD50089062A9E004F080DB
:10117D0005E49062A9F09062A9E0C3940A4018E4D6
:10118D00F09062D87402F01219F5906319120800EC
:0D119D0000000000C205229062D87401F02D
:0111AA002222
:1018A2009062D8E07008300828C2080200459062B1
:1018B200D8E0B4010B9062E7740BF0A374B8F02285
:1018C2009062D8E0B4020A9062E77405F0A374DC77
:0218D200F02202
:1017BA009062DDE0FEA3E0FF9062DAE0701AD3EFF8
:1017CA009420EE940E5004D2068002C2069062EC77
:1017DA007417F0A37470F022C3EF94C8EE940E400D
:0D17EA0002C2069062EC7405F0A374DCF0FE
:0117F70022CF
:03004200020C2B82
:100C2B00C0E0C0F0C083C082C0D075D000C000C08F
:100C3B0001C002C003C004C005C006C007786BE248
:060C4B0020E103020D523E
:100C5100AF93EF75F010A4FFE594C4540FFDEF4D71
:100C6100FF906309E5F0F0A3EFF0E24402F2906235
:090C7100D9E064026003020D29C0
:100C7A0012189A5067E004F0E0C39402405390625D
:100C8A00AFE0FEA3D312188D400CE0FFA3E0906200
:100C9A00AFCFF0A3EFF09062B1E0FEA3C312188DBC
:100CAA00500CE0FFA3E09062B1CFF0A3EFF09062A6
:100CBA00AB121875906309E0FEA3E0FFE4FCFDEBBC
:100CCA002FFFEA3EFEED39FDEC38FC9062AB1207CD
:100CDA00F412189A50067869E24401F212189A40FE
:100CEA0067A3E0FCA3E0FDA3E0FEA3E0FF78041203
:100CFA0007CE9062D6EEF0A3EFF09062D97403F0BB
:100D0A009062AAE4F09062AFF0A3F09062B174FF2F
:0D0D1A00F0A3F09062AB1208000000000092
:100D270080299062D9E0B4050C906309E0FFA3E045
:100D37009062B380119062D9E0B4070F906309E025
:0B0D4700FFA3E09062DDCFF0A3EFF00F
:100D5200D007D006D005D004D003D002D001D000F5
:0B0D6200D0D0D082D083D0F0D0E0329F
:0A0B34004263150000426317000041
:10199E0043A820D2AF75D10178957401F2187476F0
:0B19AE00F2789174A0F21874FDF22290
:03001E000213A723
:1013A700C0E0C083C082C0D075D000C0007891E291
:1013B70030E770E24480F2D20A90626DE0C394FF96
:0513C7005003E004F0FA
:1013CC0030062F906318E004F07006906317E00469
:1013DC00F0906315E4F0A3F0C3906318E09432909E
:1013EC006317E094004037E4F0A3F09062DA04F065
:1013FC00802C906316E004F07006906315E004F006
:10140C00906317E4F0A3F0C3906316E094409063EC
:0E141C0015E0941F4008E4F0A3F09062DAF0AF
:0B142A00D000D0D0D082D083D0E032C0
:070B3E0044631900000000F0
:081A8300789CE2541FF2E222FC
:1017F800E5B154CF42B1789CE254E3F2E24414F2EA
:10180800E254FCF2E24401F208E24480F2E24420AD
:10181800F278A1743BF2187460F2789EE4F208F250
:0C182800121A8344A0F253A8BFD2AF22D2
:0C1A5200121A8344C0F243A840D2AF2215
:1019F500121A8344A0F2789EE4F208F253A8BF229B
:0300210002169A2A
:10169A00C0E0C0F0C083C082C0D075D000C000C016
:1016AA0004C005C006C007789DE230E723E2448003
:1016BA00F2906319E0FCA3E0FDA3E0FEA3E024019D
:1016CA00FFE43EFEE43DFDE43CFC9063191207F49E
:1016DA00D007D006D005D004D000D0D0D082D08395
:0516EA00D0F0D0E03259
:100B4500C103C1044262FF00004262F90000C10214
:020B5500C101DC
:1016EF009062F3E0FCA3E0FDA3E0FEA3E02244013F
:1016FF00FFEC9062F30207F49062EEE0FEA3E0FFCE
:10170F00229062F0E0FEA3E0FF229062E4E09F905F
:10171F0062E3E09E229062E6E09F9062E5E09E2207
:0A172F009062F2E004F0E06418227A
:10191F0043A901D2AF75D1049071057409F090718C
:10192F0004745FF090710174A0F090710074FDF079
:01193F002285
:0300240002036173
:10036100C0E0C0F0C083C082C0D075D000C000C062
:1003710001C002C003C004C005C006C007907101DE
:10038100E020E703020639E04480F09062FCE004DB
:10039100F070069062FBE004F09062FEE004F07001
:1003A100069062FDE004F0906300E004F0700690B6
:1003B10062FFE004F0C39062FEE0940D9062FDE004
:1003C10094004006E4F0A3F0D204C39062FCE094F0
:0F03D1000D9062FBE094004006E4F0A3F0D2032D
:1003E00020835A9062F7E0C394FF5003E004F0309A
:1003F00001079062F7E4F0C2019062F2E0641770C6
:10040000349062F7E0C3941E50030204B6A3E09454
:1004100006400DE0941450081216EF1216FD800BE2
:100420009062F8E0C394014002E0FF9062F8E4F0CB
:10043000D2000204B69062F8E4F00204B69062F8CA
:10044000E0C394FF5003E004F020016AD2019062FF
:10045000F8E4F09062F7E0C394014013E0D394070E
:10046000500D1216EF1216FD12172F603B801B90D5
:1004700062F7E0C394074021E09414501C1216EF79
:1004800054FE1216FF12172F601EA31216F2FF78E9
:10049000011207E1121701800F9062F312080000A9
:1004A0000000009062F2E4F09062F2E0B41802D230
:1004B000009062F7E4F03000199062F2E4F0C200BC
:1004C0009062F7F0A3F01216EFFF90627F1207F42C
:0204D000D20B4D
:1004D200C3906300E094149062FFE094004073E4E0
:1004E200F0A3F020096C121707D3121719401090CD
:1004F20062EFE004F0701F9062EEE004F0801712E9
:100502001707C3121719500E9062EFE024FFF09004
:1005120062EEE034FFF0121710D31217244010904D
:1005220062F1E004F0701F9062F0E004F0801712B4
:100532001710C3121724500E9062F1E024FFF090BE
:1005420062F0E034FFF0121707121A691217101244
:100552001A729062EBE0C39407500302061EE0D3C6
:07056200940B400302061E8A
:1005690090630BE4F0A3F09062EBE0B4070C9063A6
:100579000B7413F0A37488F0804A9062EBE0B4081E
:100589000C90630B7406F0A37482F080379062EBD1
:10059900E0B4090C90630B7403F0A37441F0802458
:1005A9009062EBE0B40A0C90630B7401F0A374F44D
:1005B900F080119062EBE0B40B0A90630B7401F0C8
:1005C900A3744DF09062FAE004F070069062F9E0CD
:1005D90004F090630BE0FEA3E0FFC39062FAE09F92
:1005E9009062F9E09E4006E4F0A3F0B20220021105
:1005F900121A3AEF7003121A13121A46EF70318069
:100609002C121A3AEF600312000F121A46EF6020FB
:03061900121A05AD
:10061C00801B9062F9E4F0A3F0C202121A3AEF7058
:10062C0003121A13121A46EF7003121A20D007D0B5
:10063C0006D005D004D003D002D001D000D0D0D049
:08064C0082D083D0F0D0E0322F
:100B5700C10B44627F000000006024628303010030
:100B67000C04000F0700300A00330D003C10003F53
:100B77001300C01600C31900CC1C00CF1F00F022C1
:100B87000053626C0A00FF0000004B5A000000147B
:100B9700FF01FF1545FF00416268FF416269FF429F
:040BA700626A00007E
:1019610090627FE0FCA3E0FDA3E0FEA3E0FF02079D
:10197100CEEC75F003A42483F582E43462F583226E
:10154500300B41C20B90626AE4F0A37419F0781075
:10155500121961BF550A7808121961EF64556014B4
:10156500906268E0B4FF0BA374FFF0E4A3F0A3F06E
:10157500803F802B90627FA3A3A3E0FF906269EF79
:10158500F0E08029D390626BE0940090626AE09469
:10159500004014A3E024FFF090626AE034FFF0906D
:1015A5006268E0A3F0800A90626974FFF090626857
:0615B500F0906269E0FF06
:0115BB00220D
:10183400E4906301F0FEEDB401030E80037F002207
:10184400E4FC121972E0B50714121972E5822EF540
:1018540082E43583F583E0906301F080050CECB4F9
:071864000CE0906301E0FFBE
:01186B00225A
:100D6D0090627DE0F47003020E6AE0FFA3E0FD12D5
:100D7D001834E490627EF0EF1208610DB0010DB8E9
:100D8D00040DC0070DC80A0DD00D0DD7100DDF13C2
:100D9D000DE7160DEF190DF71C0DFF1F0E072200A5
:100DAD00000E6A9062EB7407F080559062EB740848
:100DBD00F0804D9062EB7409F080459062EB740AFF
:100DCD00F0803DE49062EBF080369062EB740BF0B6
:100DDD00802E9062EB7401F080269062EB7404F02B
:100DED00801E9062EB7402F080169062EB7405F039
:100DFD00800E9062EB7403F080069062EB7406F047
:100E0D001210139062DFE0FEA3E0FF1215BC90629A
:100E1D00E3EEF0A3EFF09062E1E0FEA3E0FF121528
:100E2D00BC9062E5EEF0A3EFF09062E3E0FFA3E08B
:100E3D009062EECFF0A3EFF09062E5E0FFA3E090BB
:100E4D0062F0CFF0A3EFF09062EEE0FEA3E0FF12B0
:0D0E5D001A699062F0E0FEA3E0FF121A7225
:010E6A002265
:0D1A2D0078C0E24408F278C2E2543FF22291
:040BAB004163200082
:1018D400906301F090631DE0FBA3E0FAA3E0F9221A
:1018E40090000612066DFF90000802066D12066D48
:0718F400FF906302E06F2288
:1008E100E4906301F0A374FFF0A3F090631DEBF0BB
:1008F100A3EAF0A3E9F090000112066DFF1206547D
:10090100FEEFC39E5003020AB31218D8900001E40F
:100911001206CD90000E120831120887906302EF83
:10092100F0E0F460089063207423F0800990632064
:10093100E06003E014F01218D89000031218F1607F
:100941001990000512066D6011900004E41206CDA5
:10095100906302E0900003020AB090000512066D58
:10096100FF90000412066DC39F500B1218D890001F
:1009710004740102069A1218D89000021218F1604C
:100981006CE0F4701D1218E4C39F400B740512183B
:10099100D4900002020A1F1218D890000A740102B2
:1009A1000AA11218D890000874011206CD90000C0B
:1009B1001218F160301218D890000974011206CD96
:1009C100906302E090000C1206CD9063017401F077
:1009D10090000C12066D906303F0900008740112F0
:1009E100069A020A781218D8900009804190630291
:1009F100E0F470421218D890000912066DD39400E9
:100A01005003020AA490000B12066DFF90000A1217
:100A1100066DD39F401274021218D490000C120676
:100A21006D906303F0020A7E1218D890000A7401D7
:100A310012069A020AA41218D81218EBC394FF5096
:100A410008900008740112069A1218E4B50708907C
:100A510063017403F080201218D89000071218E780
:100A61006F704090630174041218D790000612064B
:100A71006D9000081206CD906302E0A3F01218D821
:100A8100900009E41206CD90000C74FF1206CD907F
:100A91006303E09000111206CD906301E090001213
:100AA1001206CD906302E0FF1218D8900002EF12F7
:020AB10006CD70
:010AB3002220
:1019E30078D2E254CFF2E24410F2907188E4F0C26C
:0219F30092223E
:1018FB00C39062EFE094589062EEE094025012C3F2
:10190B009062F1E094589062F0E094025003D2920E
:04191B0022C2922230
:040BAF00416322017B
:071A8B007869E24401F22238
:1019400043A902D2AF75D10890710D7401F0907166
:101950000C745DF090710974A0F090710874FDF042
:011960002264
:03002700020E6B5B
:100E6B00C0E0C0F0C083C082C0D075D000C000C04D
:100E7B0001C002C003C004C005C006C007907109C1
:0E0E8B00E020E703020F29907109E04480F097
:100E9900906321E004F0E0C39408400AA3E06006EF
:100EA900E4F09062D9F0906321E0C3940A4007E42A
:060EB900F0D208A304F0D2
:100EBF009062D9E06004E0B4070D7F0112177B90B8
:100ECF0062D97401F080539062D9E0B40108121A0C
:100EDF008B7402F080449062D9E0B4030D7F02124C
:100EEF00177B9062D97404F080309062D9E0B4041B
:100EFF0008121A8B7405F080219062D9E0B4050DA9
:100F0F007F0312177B9062D97406F0800D9062D91F
:100F1F00E0B40606121A8B7407F0D007D006D0057E
:100F2F00D004D003D002D001D000D0D0D082D08353
:050F3F00D0F0D0E0320B
:100BB300426003000042626500004262631000412C
:100BC30062670060406005FFFF0000000000000056
:100BD3000000000000000000000000000000000012
:100BE3000000000000000000000000000000000002
:100BF30000000000000000000000000000000000F2
:100C0300000000000000004160000041600100415D
:050C1300600200C107B2
:1014C1007F8BE47E06FDFC906301E0F8A3E0F9A3C5
:1014D100E0FAA3E0FB22EF25E0FFEE33FE74472F95
:1014E100F58274603EF58322D39062EAE094B8906D
:1014F10062E9E0940B22ECF0A3EDF0906308E004C4
:10150100F022906307E0FEA3E0FFC322906000E0B9
:1015110025E02405F582E43460F58322E490630735
:10152100F0A3F02233FE74052FF58274603EF5833B
:1015310022906307E004F022906308E025E0FF9029
:041541006307E0223A
:10004500906301120800000000009062D6E0FFA353
:10005500E0906305CFF0A3EFF0906005E0F4700346
:05006500A3E0F4704966
:10006A0012151E1215039420EE9400501A9063057F
:10007A00E0FCA3E0FDEF25E0FFEE1215251214F7D0
:10008A0070E112153280DC12151D121503940EEE62
:10009A009401505E906305E0FCA3E0FD1214D712B0
:0900AA0014F770E612153280E132
:1000B30012150DE0FFA3E0906307CFF0A3EFF090DC
:1000C3006305E0FEA3E0FF906308E02FF090630771
:1000D300E03EF0E0C313FEA3E013FF906307EEF0EE
:1000E300A3EFF012150DEEF0A3EFF0906000E00423
:0900F300F0E0C394204002E4F0A7
:1000FC0012151D1214C8121539121525E0FEA3E0B5
:10010C00FFE4FCFDEB2FFFEA3EFEED39FDEC38FC85
:10011C009063011207F41214FC70031215329063F1
:10012C0007E07004A3E0642070C9906301E0FCA3B5
:10013C00E0FDA3E0FEA3E0FF78051207CE9063017B
:03014C001207F4A3
:10014F00906301A3A3E0FEA3E0FDAC06906046E040
:10015F0025E0FF906045E033FE74472FF582746011
:10016F003EF583ECF0A3EDF0906046E004F07006EE
:10017F00906045E004F0C3906046E0940E906045B7
:09018F00E094014004E4F0A3F047
:1001980012151D906265F0A3F09062637410F0A3CD
:1001A800E4F0121503940EEE94014003020240128B
:1001B80014D7E0FCA3E0FD906265E0FAA3E0FBD36E
:1001C800ED9BEC9A400F1214DEE0FFA3E09062650D
:1001D800CFF0A3EFF01215391214DCE0FCA3E0FD18
:1001E800906263E0FAA3E0FBC3ED9BEC9A500F1218
:1001F80014DEE0FFA3E0906263CFF0A3EFF090621B
:1002080063E0FEA3E0FFC3906266E09FFF90626533
:10021800E09EFED3EF9450EE94004008906267741D
:100228001EF08009906267E06003E014F01214FC8D
:0802380070031215320201AA45
:100240001214C1C31207BD500B3007681214C1123B
:1002500007BD4060E4906001F0A3F0D207906267B0
:10026000E0B41E20E014F01214E9400CA3E024FFD7
:10027000F09062E9E034FFF0C31214EA4003020395
:100280006002030D906267E06003020360200303D5
:10029000020360C203C39062EAE094709062E9E0F6
:1002A00094174003020360A3E004F070069062E933
:1002B000E004F022E47FC37E051214C6D31207BD0A
:1002C00040537F6D1214C3D31207BD4008906001E4
:1002D000E064047040200403020360C204906001E3
:1002E000E0C394045003E004F0E4906002F0C2071D
:1002F0001214E940028053C31214EA500DA3E00423
:10030000F070069062E9E004F0229062E9740BF06C
:10031000A374B8F022E47FC37E051214C6D312077B
:10032000BD4006906002E06037300434C204906043
:10033000027401F0E4906001F0C207D39062EAE039
:1003400094089062E9E09407400DA3E024FEF09049
:1003500062E9E034FFF0229062E97407F0A304F050
:01036000227A
:100C1800C10944630D000000004463110000000096
:020C2800C10AFF
:10162E0090630DE0FCA3E0FDA3E0FEA3E022E47FC7
:10163E00E87E03FDFCE0F8A3E0F9A3E0FAA3E0FBEB
:10164E00C30207BD94E8FFEE9403FEED9400FDEC9B
:10165E009400FC0207F4FFEE3401FEE43DFDE43C91
:10166E00FC0207F4C39062EFE094D89062EEE0942F
:10167E0009229062F1E0943C9062F0E0940F22CF48
:0C168E00F0A3EFF09062F0E0FFA3E02278
:1011AB00E49062EEF0A3F09062F0F0A3F0D209129B
:1011BB00167240081216804003021246300A63C2B0
:1011CB000A12162E243B90630D12166490630D12B7
:1011DB00163C401A12162E90630D121652121672EE
:1011EB00500CA3E004F070069062EEE004F0906304
:1011FB001112163124E790631112166490631112C9
:10120B00163C401E90631112163190631112165248
:10121B00C3121680500CA3E004F070069062F0E04D
:10122B0004F09062EEE0FEA3E0FF121A699062F008
:10123B00E0FEA3E0FF121A720211BA9062EEE0FF19
:10124B00A3E09062E312168D9062E5CFF0A3EFF06E
:10125B009062EEE0FFA3E09062DF12168D9062E1E8
:08126B00CFF0A3EFF0C209224D
:10144100021310E493A3F8E493A34003F68001F29E
:1014510008DFF48029E493A3F85407240CC8C333AC
:10146100C4540F4420C8834004F456800146F6DF7B
:10147100E4800B0102040810204080900AB4E47E4D
:10148100019360BCA3FF543F30E509541FFEE49370
:10149100A360010ECF54C025E060A840B8E493A337
:1014A100FAE493A3F8E493A3C8C582C8CAC583CA62
:1014B100F0A3C8C582C8CAC583CADFE9DEE780BE1A
:010C2A0000C9
:10065400BB010689828A83E0225002E722BBFE02A4
:09066400E32289828A83E49322D7
:10066D00BB010CE58229F582E5833AF583E0225042
:10067D0006E92582F8E622BBFE06E92582F8E2228C
:0D068D00E58229F582E5833AF583E49322A6
:10069A00BB010FF8E58229F582E5833AF583E02864
:1006AA00F0225009C58229F8E58226F622BBFE0906
:1006BA00C58229F8E22582F222F8EA2583F583E940
:0306CA0093282250
:1006CD00F8BB010DE58229F582E5833AF583E8F063
:1006DD00225006E92582C8F622BBFE05E92582C80F
:0206ED00F222F7
:1006EF0075F008758200EF2FFFEE33FECD33CDCCC2
:1006FF0033CCC58233C5829BED9AEC99E582984045
:10070F000CF582EE9BFEED9AFDEC99FC0FD5F0D621
:10071F00E4CEFBE4CDFAE4CCF9A88222B800C1B94B
:10072F000059BA002DEC8BF084CFCECDFCE5F0CB89
:10073F00F97818EF2FFFEE33FEED33FDEC33FCEBC2
:10074F0033FB10D703994004EB99FB0FD8E5E4F97D
:10075F00FA227818EF2FFFEE33FEED33FDEC33FC6A
:10076F00C933C910D7059BE99A4007EC9BFCE99A5E
:10077F00F90FD8E0E4C9FAE4CCFB2275F010EF2FA3
:10078F00FFEE33FEED33FDCC33CCC833C810D707A3
:10079F009BEC9AE899400AED9BFDEC9AFCE899F8DE
:0E07AF000FD5F0DAE4CDFBE4CCFAE4C8F92271
:1007BD00EB9FF5F0EA9E42F0E99D42F0E89C45F092
:0107CD002209
:1007CE00E8600FECC313FCED13FDEE13FEEF13FF09
:0307DE00D8F1222D
:1007E100E8600FEFC333FFEE33FEED33FDEC33FC76
:0307F100D8F1221A
:0C07F400ECF0A3EDF0A3EEF0A3EFF02278
:10080000A8828583F0D083D08212081712081712AD
:100810000817120817E473E493A3C583C5F0C583D2
:10082000C8C582C8F0A3C583C5F0C583C8C582C842
:0108300022A5
:10083100BB010DE58229F582E5833AF5830208C300
:100841005007E92582F80208BABBFE07E92582F8BC
:100851000208CCE58229F582E5833AF5830208D5C1
:10086100D083D082F8E4937012740193700DA3A326
:1008710093F8740193F5828883E47374029368603A
:06088100EFA3A3A380DF3A
:060887008A838982E473FC
:10088D00EC8EF0A4CCC5F0CCCDF8EFA4CEC5F02DF8
:10089D00FDE43CFCE8A42EC8C5F03DFDE43CFCEFB6
:0D08AD00A4FFE5F028FEE43DFDE43CFC2244
:0908BA00E6FB08E6FA08E6F92263
:0908C300E0FBA3E0FAA3E0F92236
:0908CC00E2FB08E2FA08E2F9225D
:0C08D500E493FB740193FA740293F9227F
:00000001FF
