:0300000002139D4B
:0C139D00787FE4F6D8FD7581210213E48E
:0C000300000000000000000000000000F1
:0B19EE00EF1FAC0670011E4C70F622CB
:10002A00AB07AA06EB1BAE0270011A4E60097FAA43
:08003A007E051219EE80ED2293
:100F7400907120E04480F07F057E001219EEE4FFBA
:100F8400FE12002A75A75575AC589071327450F052
:100F94009071307403F0907136742FF07F18EF2441
:100FA40066FDE434718D82F583E4F00FEFB433EE23
:100FB400904011E4935407FF90711CE054F84FF0F3
:100FC400904017E493547FFF90711DE054804FF0DC
:100FD400904010E493FF5401C43333335480FE90A3
:100FE4007123E0547F4EF0EFC313543F4440FFA3FA
:100FF400E054804FF0904012E493FF540FFE907140
:1010040046E054F04EF0EFC4540FFF90714FE0549B
:10101400F04FF0904013E493543FFF907140E0543C
:10102400C04FF0904014E493907126F0904015E482
:0E10340093907128F0904016E49390712AF08A
:01104200228B
:081A0B007417F0A37470F022BF
:1011D50075D9DD120F7475D95590715EE054FEF026
:1011E50075D9BB12191112196112192E1212721228
:1011F50017891218D11218B01219BD12197378D3A4
:10120500E254FCF2E24401F290718AE4F0C2949057
:1012150062ED121A0B9062E8121A0B9062EA121A2A
:101225000B9062EC7404F09062DF740BF012110DF8
:1012350012104312174B1218337B017A62796C1224
:1012450007FB120D9D9062E0E0FEA3E0FF1215245E
:101255009062E4EEF0A3EFF09062E2E0FEA3E0FF1F
:0D1265001215249062E6EEF0A3EFF080C3B6
:1009CE004262E817704262EA17704262ED17704297
:1009DE0062E017704262E417704262E21770426280
:0B09EE00E617704162EC004162DF0A76
:101602009062E0E0FEA3E0FF7C0012059AE47B64B6
:10161200FAF9F81204389062E0EEF0A3EFF090626B
:10162200E2E0FEA3E0FF7C0022FFE0FCA3E0FD126B
:10163200059AE47B707A17F9F8120438906306EE83
:10164200F0A3EFF0906306E0FEA3E0FFC390630512
:10165200E09F906304E09E22906302E0FEA3E022FA
:0B166200AC06ECF218EFF27817E22261
:101272007812E24401F278567407F278277417F272
:1012820018746FF27833E4F218F27819E24401F23A
:101292007811E24401F27817E24401F27812E24452
:1012A20001F27814E24401F27818E24401F278D3B0
:1012B200E254CFF2E24410F290718C740AF0781288
:1012C200E24402F278577407F278297417F218741C
:1012D2006FF27837E4F218F27819E24402F27811E8
:1012E200E24402F27817E24402F27812E24402F295
:1012F2007814E24402F27818E24402F278D3E2541B
:0D130200F3F2E24404F290718B7409F022C2
:0919F90078331216624401F22257
:091A020078371216624402F22248
:0C19CA007818E230E0037F01227F002249
:0C19D6007818E230E1037F01227F00223C
:0D19A3007818E24401F290718C740AF02271
:0E000F0090718CE4F0D2967818E254FEF22242
:0D19B0007818E24402F290718B7409F02265
:0E19950090718BE4F0D2957818E254FDF222A6
:08152400906302EEF0A3EFF06A
:10152C00A3EEF0A3EFF09062E8E064177004A3E080
:10153C006470601012165A9062E812162B4005EE79
:10154C00F0A3EFF09062EAE064177004A3E064701B
:10155C00601012165A9062EA12162B4005EEF0A398
:10156C00EFF09062EDE064177004A3E0647060111A
:10157C0012165AFF9062ED12162C4005EEF0A3EFF6
:09158C00F0906304E0FEA3E0FF0F
:011595002233
:100C8B009062ECE014602914603C14604F14605FB8
:100C9B0014607224056003020D9C9062E07406F0F0
:100CAB00A37418F09062E27413F0A37474F080666E
:100CBB009062E0740FF0A3743CF09062E2740AF05F
:100CCB00A3748CF080509062E07413F0A37438F02E
:100CDB009062E27405F0A374DCF0803A9062E074E9
:100CEB0017F0A37470F0E49062E2F0A3F080279009
:100CFB0062E07409F0A374D8F09062E2740FF0A371
:100D0B00743CF08011E49062E0F0A3F09062E27426
:100D1B0017F0A37470F09062DFE024F9601A14608E
:100D2B002114602E14603A146046240570637D050F
:100D3B001216027D05020D887D0A1216027D0A022B
:100D4B000D889062E01216237D1912160C7D190284
:100D5B000D889062E01216237D3212160C7D3280C4
:100D6B001C9062E01216237D4B12160C7D4B800DEE
:100D7B009062E01216237D6412160C7D6412059AA4
:100D8B00E47B64FAF9F81204389062E2EEF0A3EF18
:020D9B00F02244
:1009F9004162D800C1064162DA004162D900416210
:100A0900B500602062B6FFFF000000000000000092
:100A190000000000000000000000000000000000CD
:100A29000000000000004162A7004162A800C10562
:100A39004162A9004162AA004462AB000000004281
:090A490062AF00004262B1FFFF40
:1017FD007FEA7E0B906302FDFCE0F8A3E0F9A3E025
:10180D00FAA3E0FB22F0E0441EF09071227407F081
:10181D0022E0FF90630BE09F90630AE09E229062AE
:06182D00AAE0C39414229E
:1019110078F2E24403F278E3E244C0F278F0E25470
:0D192100FDF208E254FDF208E2440CF2224F
:1019610043AA04D2AF786AE24479F27F017E000291
:02197100002A4A
:10170C00EF24FE60191460242402702C907123E0E5
:10171C0054D8F0E0441D121816759917801A907160
:10172C0023E054F8121812759918800C907123E06C
:0F173C0054D812181275990B7869E24448F222BA
:101949009062B3E0FEA3E0FF7C007D0C12059AE4EF
:081959007B0AFAF9F8020438D8
:1010430090630212050D000000009062D8E0640274
:05105300700302110C06
:101058009062A7E004F0E0C39464500302110CE42A
:01106800F097
:0F1069001219499063021205019062D8E0702CB1
:101078001217FDC31204CA50089062A8E004F08059
:1010880005E49062A8F09062A8E0C3940AE44007DF
:0C109800F09062D804F0229062D8F022A0
:0810A4009062D8E06401706065
:1010AC0020050FD20590631812050D0000000012E8
:1010BC0019E2E47F307E75906318121804C3120491
:0310CC00CA403DDA
:1010CF00E41217FD1204CA50089062A9E004F080E0
:1010DF0005E49062A9F09062A9E0C3940A4018E475
:1010EF00F09062D87402F012198590631812050DF2
:0D10FF0000000000C205229062D87401F0CC
:01110C0022C0
:101833009062D8E07008300828C208020045906220
:10184300D8E0B4010B9062E8740BF0A374B8F022F3
:101853009062D8E0B4020A9062E87405F0A374DCE5
:02186300F02271
:10174B009062DDE0FEA3E0FF9062DAE0701AD3EF67
:10175B009420EE940E5004D2068002C2069062EDE5
:10176B007417F0A37470F022C3EF94C8EE940E407C
:0D177B0002C2069062ED7405F0A374DCF06C
:01178800223E
:03004200020B4965
:100B4900C0E0C0F0C083C082C0D075D000C000C072
:100B590001C002C003C004C005C006C007786BE22B
:060B690020E103020C7004
:100B6F00AF93EF75F010A4FFE594C4540FFDEF4D54
:100B7F00FF90630AE5F0F0A3EFF0E24402F2906217
:090B8F00D9E064026003020C4786
:100B980012182B5067E004F0E0C3940240539062AF
:100BA800AFE0FEA3D312181E400CE0FFA3E0906252
:100BB800AFCFF0A3EFF09062B1E0FEA3C312181E0E
:100BC800500CE0FFA3E09062B1CFF0A3EFF0906289
:100BD800AB12180690630AE0FEA3E0FFE4FCFDEB0D
:100BE8002FFFEA3EFEED39FDEC38FC9062AB1205B2
:100BF8000112182B50067869E24401F212182B40B2
:100C080067A3E0FCA3E0FDA3E0FEA3E0FF780412E5
:100C180004DB9062D6EEF0A3EFF09062D97403F093
:100C28009062AAE4F09062AFF0A3F09062B174FF12
:0D0C3800F0A3F09062AB12050D000000006B
:100C450080299062D9E0B4050C90630AE0FFA3E027
:100C55009062B380119062D9E0B4070F90630AE007
:0B0C6500FFA3E09062DDCFF0A3EFF0F2
:100C7000D007D006D005D004D003D002D001D000D8
:0B0C8000D0D0D082D083D0F0D0E03282
:0A0A52004263140000426316000026
:10192E0043A820D2AF75D10178957401F218747660
:0B193E00F2789174A0F21874FDF22200
:03001E0002130FBB
:10130F00C0E0C083C082C0D075D000C0007891E229
:10131F0030E770E24480F2D20A90626DE0C394FF2E
:05132F005003E004F092
:1013340030062F906317E004F07006906316E00403
:10134400F0906314E4F0A3F0C3906317E094329038
:101354006316E094004037E4F0A3F09062DA04F0FE
:10136400802C906315E004F07006906314E004F0A0
:10137400906316E4F0A3F0C3906315E09440906387
:0E13840014E0941F4008E4F0A3F09062DAF049
:0B139200D000D0D0D082D083D0E03259
:070A5C0044631800000000D4
:081A1300789CE2541FF2E2226C
:10178900E5B154CF42B1789CE254E3F2E24414F259
:10179900E254FCF2E24401F208E24480F2E244201D
:1017A900F278A1743BF2187460F2789EE4F208F2C0
:0C17B900121A1344A0F253A8BFD2AF22B2
:0C19E200121A1344C0F243A840D2AF22F6
:10198500121A1344A0F2789EE4F208F253A8BF227B
:0300210002166D57
:10166D00C0E0C0F0C083C082C0D075D000C000C043
:10167D0004C005C006C007789DE230E723E2448030
:10168D00F2906318E0FCA3E0FDA3E0FEA3E02401CB
:10169D00FFE43EFEE43DFDE43CFC906318120501C1
:1016AD00D007D006D005D004D000D0D0D082D083C2
:0516BD00D0F0D0E03286
:100A6300C103C10442630000004262FA0000C102F4
:020A7300C101BF
:1016C2009062F4E0FCA3E0FDA3E0FEA3E02244016B
:1016D200FFEC9062F40205019062EFE0FEA3E0FFEE
:1016E200229062F1E0FEA3E0FF229062E5E09F908B
:1016F20062E4E09E229062E7E09F9062E6E09E2232
:0A1702009062F3E004F0E0641822A6
:1018D10043A901D2AF75D104907105E4F090710470
:1018E1007424F090710174A0F090710074FDF022E5
:030024000205EEE4
:1005EE00C0E0C0F0C083C082C0D075D000C000C0D3
:1005FE0001C002C003C004C005C006C0079071014F
:10060E00E020E7030207E0E04480F09062FDE004A2
:10061E00F070069062FCE004F09062FFE004F0706F
:10062E00069062FEE004F0906301E004F070069024
:10063E006300E004F0C39062FFE0940D9062FEE070
:10064E0094004006E4F0A3F0D204C39062FDE0945F
:0F065E000D9062FCE094004006E4F0A3F0D2039C
:10066D002083599062F8E0C394FF5003E004F0300A
:10067D0001079062F8E4F0C2019062F3E064177034
:10068D00339062F8E0C3941E5003020742A3E09436
:10069D0006400DE0941450081216C21216D0800AAE
:1006AD009062F9E0C394014001E09062F9E4F0D268
:1006BD00000207429062F9E4F00207429062F9E00D
:1006CD00C394FF5003E004F020016AD2019062F957
:1006DD00E4F09062F8E0C394014013E0D394075026
:1006ED000D1216C21216D0121702603B801B9062BB
:1006FD00F8E0C394074021E09414501C1216C25424
:10070D00FE1216D2121702601EA31216C5FF780133
:10071D001204EE1216D4800F9062F412050D000033
:10072D0000009062F3E4F09062F3E0B41802D2009E
:10073D009062F8E4F03000199062F3E4F0C200909A
:10074D0062F8F0A3F01216C2FF90627F120501D27B
:01075D000B90
:10075E00C3906301E09414906300E094004073E44E
:10076E00F0A3F020096C1216DAD31216EC4010909A
:10077E0062F0E004F0701F9062EFE004F080171258
:10078E0016DAC31216EC500E9062F0E024FFF090D1
:10079E0062EFE034FFF01216E3D31216F74010901A
:1007AE0062F2E004F0701F9062F1E004F080171224
:1007BE0016E3C31216F7500E9062F2E024FFF0908B
:1007CE0062F1E034FFF01216DA1219F91216E31282
:1007DE001A02D007D006D005D004D003D002D00123
:0D07EE00D000D0D0D082D083D0F0D0E03247
:100A7500C10B44627F000000006024628303010013
:100A85000C04000F0700300A00330D003C10003F36
:100A95001300C01600C31900CC1C00CF1F00F022A4
:100AA5000053626C0A00FF0000004B5A000000145E
:100AB500FF01FF14ADFF00416268FF416269FF421B
:040AC500626A000061
:1018F10090627FE0FCA3E0FDA3E0FEA3E0FF020411
:10190100DBEC75F003A42483F582E43462F58322D1
:1014AD00300B41C20B90626AE4F0A37419F078100E
:1014BD001218F1BF550A78081218F1EF645560142F
:1014CD00906268E0B4FF0BA374FFF0E4A3F0A3F007
:1014DD00803F802B90627FA3A3A3E0FF906269EF12
:1014ED00F0E08029D390626BE0940090626AE09402
:1014FD00004014A3E024FFF090626AE034FFF09006
:10150D006268E0A3F0800A90626974FFF0906268EF
:06151D00F0906269E0FF9E
:0115230022A5
:1017C500E4906302F0FEEDB401030E80037F002276
:1017D500E4FC121902E0B50714121902E5822EF590
:1017E50082E43583F583E0906302F080050CECB468
:0717F5000CE0906302E0FF2D
:0117FC0022CA
:100D9D0090627DE0F47003020E9AE0FFA3E0FD1275
:100DAD0017C5E490627EF0EF12056E0DE0010DE8BF
:100DBD00040DF0070DF80A0E000D0E08100E10139D
:100DCD000E17160E1F190E271C0E2F1F0E37220081
:100DDD00000E9A9062DF7406F080559062DF740702
:100DED00F0804D9062DF7408F080459062DF7409E9
:100DFD00F0803D9062DF740AF080359062DF740BF5
:100E0D00F0802DE49062ECF080269062EC7403F09B
:100E1D00801E9062EC7401F080169062EC7404F008
:100E2D00800E9062EC7402F080069062EC7405F016
:100E3D00120C8B9062E0E0FEA3E0FF12152490628D
:100E4D00E4EEF0A3EFF09062E2E0FEA3E0FF1215F6
:100E5D00249062E6EEF0A3EFF09062E4E0FFA3E0F1
:100E6D009062EFCFF0A3EFF09062E6E0FFA3E09089
:100E7D0062F1CFF0A3EFF09062EFE0FEA3E0FF127E
:0D0E8D0019F99062F1E0FEA3E0FF121A02D5
:010E9A002235
:0D19BD0078C0E24408F278C2E2543FF22202
:040AC90041631F0066
:10186500906302F090631CE0FBA3E0FAA3E0F92289
:1018750090000612037AFF90000802037A12037A99
:07188500FF906303E06F22F6
:1007FB00E4906302F0A374FFF0A3F090631CEBF0A2
:10080B00A3EAF0A3E9F090000112037AFF1203614F
:10081B00FEEFC39E50030209CD121869900001E44C
:10082B001203DA90000E12053E120594906303EF4B
:10083B00F0E0F4600890631F7423F0800990631F4D
:10084B00E06003E014F01218699000031218826044
:10085B001990000512037A6011900004E41203DA78
:10086B00906303E09000030209CA90000512037A1B
:10087B00FF90000412037AC39F500B12186990006B
:10088B000474010203A71218699000021218826007
:10089B006CE0F4701D121875C39F400B7405121891
:1008AB006590000202093912186990000A7401025E
:1008BB0009BB12186990000874011203DA90000C3E
:1008CB00121882603012186990000974011203DA51
:1008DB00906303E090000C1203DA9063027401F052
:1008EB0090000C12037A906304F0900008740112CC
:1008FB0003A70209921218699000098041906303C3
:10090B00E0F4704212186990000912037AD3940034
:10091B0050030209BE90000B12037AFF90000A12DB
:10092B00037AD39F4012740212186590000C1203C5
:10093B007A906304F002099812186990000A740106
:10094B001203A70209BE12186912187CC394FF5038
:10095B000890000874011203A7121875B5070890C8
:10096B0063027403F0802012186990000712187844
:10097B006F704090630274041218689000061203A3
:10098B007A9000081203DA906303E0A3F01218695F
:10099B00900009E41203DA90000C74FF1203DA9052
:1009AB006304E09000111203DA906302E0900012EE
:1009BB001203DA906303E0FF121869900002EF1242
:0209CB0003DA4D
:0109CD002207
:1019730078D2E254CFF2E24410F2907188E4F0C2DC
:021983009222AE
:10188C00C39062F0E094589062EFE094025012C35F
:10189C009062F2E094589062F1E094025003D2927C
:0418AC0022C29222A0
:040ACD00416321015F
:071A1B007869E24401F222A8
:1018B00043A902D2AF75D10890710D7401F09071F7
:1018C0000C745DF090710974A0F090710874FDF0D3
:0118D00022F5
:03002700020E9B2B
:100E9B00C0E0C0F0C083C082C0D075D000C000C01D
:100EAB0001C002C003C004C005C006C00790710991
:0E0EBB00E020E703020F59907109E04480F037
:100EC900906320E004F0E0C39408400AA3E06006C0
:100ED900E4F09062D9F0906320E0C3940A4007E4FB
:060EE900F0D208A304F0A2
:100EEF009062D9E06004E0B4070D7F0112170C90F7
:100EFF0062D97401F080539062D9E0B40108121ADC
:100F0F001B7402F080449062D9E0B4030D7F02128B
:100F1F00170C9062D97404F080309062D9E0B40459
:100F2F0008121A1B7405F080219062D9E0B4050DE8
:100F3F007F0312170C9062D97406F0800D9062D95E
:100F4F00E0B40606121A1B7407F0D007D006D005BE
:100F5F00D004D003D002D001D000D0D0D082D08323
:050F6F00D0F0D0E032DB
:100AD100426003000042626500004262631000410F
:100AE10062670060406005FFFF0000000000000039
:100AF10000000000000000000000000000000000F5
:100B010000000000000000000000000000000000E4
:100B110000000000000000000000000000000000D4
:100B21000000000000000041600000416001004140
:050B3100600200C10795
:101429007F8BE47E06FDFC906302E0F8A3E0F9A35C
:10143900E0FAA3E0FB22EF25E0FFEE33FE74472F2D
:10144900F58274603EF58322D39062EBE094B89004
:1014590062EAE0940B22ECF0A3EDF0906309E0045A
:10146900F022906308E0FEA3E0FFC322906000E051
:1014790025E02405F582E43460F58322E4906308CD
:10148900F0A3F02233FE74052FF58274603EF583D4
:1014990022906308E004F022906309E025E0FF90C0
:0414A9006308E022D2
:1000450090630212050D000000009062D6E0FFA348
:10005500E0906306CFF0A3EFF0906005E0F4700345
:05006500A3E0F4704966
:10006A0012148612146B9420EE9400501A906306B0
:10007A00E0FCA3E0FDEF25E0FFEE12148D12145F01
:10008A0070E112149A80DC12148512146B940EEE2D
:10009A009401505E906306E0FCA3E0FD12143F1247
:0900AA00145F70E612149A80E163
:1000B300121475E0FFA3E0906308CFF0A3EFF09074
:1000C3006306E0FEA3E0FF906309E02FF09063086E
:1000D300E03EF0E0C313FEA3E013FF906308EEF0ED
:1000E300A3EFF0121475EEF0A3EFF0906000E004BC
:0900F300F0E0C394204002E4F0A7
:1000FC001214851214301214A112148DE0FEA3E018
:10010C00FFE4FCFDEB2FFFEA3EFEED39FDEC38FC85
:10011C00906302120501121464700312149A906316
:10012C0008E07004A3E0642070C9906302E0FCA3B3
:10013C00E0FDA3E0FEA3E0FF78051204DB90630270
:03014C0012050198
:10014F00906302A3A3E0FEA3E0FDAC06906046E03F
:10015F0025E0FF906045E033FE74472FF582746011
:10016F003EF583ECF0A3EDF0906046E004F07006EE
:10017F00906045E004F0C3906046E0940E906045B7
:09018F00E094014004E4F0A3F047
:10019800121485906265F0A3F09062637410F0A366
:1001A800E4F012146B940EEE940140030202401224
:1001B800143FE0FCA3E0FD906265E0FAA3E0FBD306
:1001C800ED9BEC9A400F121446E0FFA3E0906265A5
:1001D800CFF0A3EFF01214A1121444E0FCA3E0FD49
:1001E800906263E0FAA3E0FBC3ED9BEC9A500F1218
:1001F8001446E0FFA3E0906263CFF0A3EFF09062B3
:1002080063E0FEA3E0FFC3906266E09FFF90626533
:10021800E09EFED3EF9450EE94004008906267741D
:100228001EF08009906267E06003E014F012146425
:08023800700312149A0201AADE
:10024000121429C31204CA500B3007681214291261
:1002500004CA4060E4906001F0A3F0D207906267A6
:10026000E0B41E20E014F0121451400CA3E024FF6F
:10027000F09062EAE034FFF0C3121452400302032C
:100280006002030D906267E06003020360200303D5
:10029000020360C203C39062EBE094709062EAE0F4
:1002A00094174003020360A3E004F070069062EA32
:1002B000E004F022E47FC37E0512142ED31204CA98
:1002C00040537F6D12142BD31204CA400890600172
:1002D000E064047040200403020360C204906001E3
:1002E000E0C394045003E004F0E4906002F0C2071D
:1002F00012145140028053C3121452500DA3E00453
:10030000F070069062EAE004F0229062EA740BF06A
:10031000A374B8F022E47FC37E0512142ED3120416
:10032000CA4006906002E06037300434C204906036
:10033000027401F0E4906001F0C207D39062EBE038
:1003400094089062EAE09407400DA3E024FEF09048
:1003500062EAE034FFF0229062EA7407F0A304F04E
:01036000227A
:100B3600C10944630C00000000446310000000007B
:020B4600C10AE2
:1015960090630CE0FCA3E0FDA3E0FEA3E022E47F61
:1015A600E87E03FDFCE0F8A3E0F9A3E0FAA3E0FB84
:1015B600C30204CA94E8FFEE9403FEED9400FDEC2A
:1015C6009400FC020501FFEE3401FEE43DFDE43C1F
:1015D600FC020501C39062F0E094D89062EFE094BB
:1015E60009229062F2E0943C9062F1E0940F22CFDF
:0C15F600F0A3EFF09062F1E0FFA3E02210
:10110D00E49062EFF0A3F09062F1F0A3F0D2091237
:10111D0015DA40081215E840030211A8300A63C21F
:10112D000A121596243B90630C1215CC90630C1289
:10113D0015A4401A12159690630C1215BA1215DAF1
:10114D00500CA3E004F070069062EFE004F09063A1
:10115D001012159924E79063101215CC906310129C
:10116D0015A4401E9063101215999063101215BAB4
:10117D00C31215E8500CA3E004F070069062F1E084
:10118D0004F09062EFE0FEA3E0FF1219F99062F116
:10119D00E0FEA3E0FF121A0202111C9062EFE0FFC5
:1011AD00A3E09062E41215F59062E6CFF0A3EFF0A4
:1011BD009062EFE0FFA3E09062E01215F59062E21D
:0811CD00CFF0A3EFF0C20922EC
:1013A9000211D5E493A3F8E493A34003F68001F274
:1013B90008DFF48029E493A3F85407240CC8C33345
:1013C900C4540F4420C8834004F456800146F6DF14
:1013D900E4800B01020408102040809009CEE47ECD
:1013E900019360BCA3FF543F30E509541FFEE49309
:1013F900A360010ECF54C025E060A840B8E493A3D0
:10140900FAE493A3F8E493A3C8C582C8CAC583CAFA
:10141900F0A3C8C582C8CAC583CADFE9DEE780BEB2
:010B480000AC
:10036100BB010689828A83E0225002E722BBFE029A
:09037100E32289828A83E49322CD
:10037A00BB010CE58229F582E5833AF583E0225038
:10038A0006E92582F8E622BBFE06E92582F8E22282
:0D039A00E58229F582E5833AF583E493229C
:1003A700BB010FF8E58229F582E5833AF583E0285A
:1003B700F0225009C58229F8E58226F622BBFE09FC
:1003C700C58229F8E22582F222F8EA2583F583E936
:0303D70093282246
:1003DA00F8BB010DE58229F582E5833AF583E8F059
:1003EA00225006E92582C8F622BBFE05E92582C805
:0203FA00F222ED
:1003FC0075F008758200EF2FFFEE33FECD33CDCCB8
:10040C0033CCC58233C5829BED9AEC99E58298403A
:10041C000CF582EE9BFEED9AFDEC99FC0FD5F0D617
:10042C00E4CEFBE4CDFAE4CCF9A88222B800C1B941
:10043C000059BA002DEC8BF084CFCECDFCE5F0CB7F
:10044C00F97818EF2FFFEE33FEED33FDEC33FCEBB8
:10045C0033FB10D703994004EB99FB0FD8E5E4F973
:10046C00FA227818EF2FFFEE33FEED33FDEC33FC60
:10047C00C933C910D7059BE99A4007EC9BFCE99A54
:10048C00F90FD8E0E4C9FAE4CCFB2275F010EF2F99
:10049C00FFEE33FEED33FDCC33CCC833C810D70799
:1004AC009BEC9AE899400AED9BFDEC9AFCE899F8D4
:0E04BC000FD5F0DAE4CDFBE4CCFAE4C8F92267
:1004CA00EB9FF5F0EA9E42F0E99D42F0E89C45F088
:0104DA0022FF
:1004DB00E8600FECC313FCED13FDEE13FEEF13FFFF
:0304EB00D8F12223
:1004EE00E8600FEFC333FFEE33FEED33FDEC33FC6C
:0304FE00D8F12210
:0C050100ECF0A3EDF0A3EEF0A3EFF0226D
:10050D00A8828583F0D083D082120524120524128F
:10051D000524120524E473E493A3C583C5F0C583B4
:10052D00C8C582C8F0A3C583C5F0C583C8C582C838
:01053D00229B
:10053E00BB010DE58229F582E5833AF5830205D0EC
:10054E005007E92582F80205C7BBFE07E92582F8A8
:10055E000205D9E58229F582E5833AF5830205E2A3
:10056E00D083D082F8E4937012740193700DA3A31C
:10057E0093F8740193F5828883E473740293686030
:06058E00EFA3A3A380DF30
:060594008A838982E473F2
:10059A00EC8EF0A4CCC5F0CCCDF8EFA4CEC5F02DEE
:1005AA00FDE43CFCE8A42EC8C5F03DFDE43CFCEFAC
:0D05BA00A4FFE5F028FEE43DFDE43CFC223A
:0905C700E6FB08E6FA08E6F92259
:0905D000E0FBA3E0FAA3E0F9222C
:0905D900E2FB08E2FA08E2F92253
:0C05E200E493FB740193FA740293F92275
:00000001FF
