:03000000021437B0
:0C143700787FE4F6D8FD75812102147E58
:0C000300000000000000000000000000F1
:0B19E800EF1FAC0670011E4C70F622D1
:10002A00AB07AA06EB1BAE0270011A4E60097FAA43
:08003A007E051219E880ED2299
:10102100907120E04480F07F057E001219E8E4FF12
:10103100FE12002A75A75575AC589071327450F0A4
:101041009071307403F0907136742FF07F18EF2493
:1010510066FDE434718D82F583E4F00FEFB433EE75
:10106100904011E4935407FF90711CE054F84FF045
:10107100904017E493547FFF90711DE054804FF02E
:10108100904010E493FF5401C43333335480FE90F5
:101091007123E0547F4EF0EFC313543F4440FFA34C
:1010A100E054804FF0904012E493FF540FFE907192
:1010B10046E054F04EF0EFC4540FFF90714FE054EE
:1010C100F04FF0904013E493543FFF907140E0548F
:1010D100C04FF0904014E493907126F0904015E4D5
:0E10E10093907128F0904016E49390712AF0DD
:0110EF0022DE
:081A05007417F0A37470F022C5
:10130C0075D9DD12102175D95590715EE054FEF03F
:10131C0075D9BB12190B12195B12192812126F1204
:10132C0017721218CB1218AA1219B712196D78D39A
:10133C00E254FCF2E24401F290718AE4F0C294901F
:10134C0062E8121A059062E3121A059062E5121A0D
:10135C00059062E77405F0120F4D1210F01217345D
:10136C001217E47B017A6279681208F9120D429027
:10137C0062DBE0FEA3E0FF1215479062DFEEF0A304
:10138C00EFF09062DDE0FEA3E0FF1215479062E102
:07139C00EEF0A3EFF080C3A7
:100A92004262E317704262E517704262E8177042E1
:100AA20062DB17704262DF17704262DD17704262CA
:070AB200E117704162E7004B
:10167300FFE0FCA3E0FD1208A5E47B707A17F9F8FC
:1016830012076990630FEEF0A3EFF090630FE0FE93
:10169300A3E0FFC390630EE09F90630DE09E229052
:1016A300630BE0FEA3E022AC06ECF218EFF278172E
:0216B300E22231
:10126F007812E24401F278567407F278277417F275
:10127F0018746FF27833E4F218F27819E24401F23D
:10128F007811E24401F27817E24401F27812E24455
:10129F0001F27814E24401F27818E24401F278D3B3
:1012AF00E254CFF2E24410F290718C740AF078128B
:1012BF00E24402F278577407F278297417F218741F
:1012CF006FF27837E4F218F27819E24402F27811EB
:1012DF00E24402F27817E24402F27812E24402F298
:1012EF007814E24402F27818E24402F278D3E2541E
:0D12FF00F3F2E24404F290718B7409F022C6
:0919F30078331216AA4401F22215
:0919FC0078371216AA4402F22207
:0C19C4007818E230E0037F01227F00224F
:0C19D0007818E230E1037F01227F002242
:0D199D007818E24401F290718C740AF02277
:0E000F0090718CE4F0D2967818E254FEF22242
:0D19AA007818E24402F290718B7409F0226B
:0E198F0090718BE4F0D2957818E254FDF222AC
:0815470090630BEEF0A3EFF03E
:10154F00A3EEF0A3EFF09062E3E064177004A3E062
:10155F00647060101216A29062E31216734005EECB
:10156F00F0A3EFF09062E5E064177004A3E06470FD
:10157F0060101216A29062E51216734005EEF0A3EA
:10158F00EFF09062E8E064177004A3E064706011FC
:10159F001216A2FF9062E81216744005EEF0A3EF48
:0915AF00F090630DE0FEA3E0FFE3
:0115B8002210
:1011BA009062E7E0B40700400302126E9011CDF886
:1011CA002828730211E20211F702120C02122102FC
:1011DA00123602124802125D9062DB7404F0A374A4
:1011EA00B0F09062DD7412F0A374C0F0229062DB5A
:1011FA007409F0A37460F09062DD740EF0A37410A9
:10120A00F0229062DB740EF0A37410F09062DD7429
:10121A0009F0A37460F0229062DB7412F0A374C028
:10122A00F09062DD7404F0A374B0F0229062DB7473
:10123A0017F0A37470F0E49062DDF0A3F0229062DC
:10124A00DB740BF0A374B8F09062DD740BF0A37436
:10125A00B8F022E49062DBF0A3F09062DD7417F03C
:05126A00A37470F022E6
:100AB9004162D400C1044162D6004162D50041625D
:100AC900B100602062B2FFFF0000000000000000DA
:100AD900000000000000000000000000000000000D
:100AE9000000000000004162A3004162A400C103AC
:100AF9004162A5004162A6004462A70000000042CD
:090B090062AB00004262ADFFFF87
:1017AE007FEA7E0B90630BFDFCE0F8A3E0F9A3E06B
:1017BE00FAA3E0FB22F0E0441EF09071227407F0D1
:1017CE0022E0FF906314E09F906313E09E229062EC
:0617DE00A6E0C3941422F2
:10190B0078F2E24403F278E3E244C0F278F0E25476
:0D191B00FDF208E254FDF208E2440CF22255
:10195B0043AA04D2AF786AE24479F27F017E000297
:02196B00002A50
:1016F500EF24FE60191460242402702C907123E0FD
:1017050054D8F0E0441D1217C7759917801A9071C7
:1017150023E054F81217C3759918800C907123E0D3
:0F17250054D81217C375990B7869E24448F22221
:101943009062AFE0FEA3E0FF7C007D0C1208A5E4EB
:081953007B0AFAF9F8020769AA
:1010F00090630B12083E000000009062D4E064028E
:0511000070030211B9AB
:101105009062A3E004F0E0C3946450030211B9E4D3
:01111500F0E9
:0F11160012194390630B1208329062D4E0702CD0
:101125001217AEC31207FB50089062A4E004F080CA
:1011350005E49062A4F09062A4E0C3940AE4400739
:0C114500F09062D404F0229062D4F022FA
:081151009062D4E064017060BB
:1011590020030FD20390631B12083E000000001207
:1011690019DCE47F307E7590631B1217B5C3120733
:03117900FB403DFB
:10117C00E41217AE1207FB50089062A5E004F08051
:10118C0005E49062A5F09062A5E0C3940A4018E4CF
:10119C00F09062D47402F012197F90631B12083E17
:0D11AC0000000000C203229062D47401F024
:0111B9002213
:1017E4009062D4E07008300628C206020376906244
:1017F400D4E0B4010B9062E3740BF0A374B8F0224C
:101804009062D4E0B4020A9062E37405F0A374DC3D
:02181400F022C0
:101734009062D9E0FEA3E0FF9062D6E0701AD3EF86
:101744009420EE940E5004D2048002C2049062E805
:101754007417F0A37470F022C3EF94C8EE940E4093
:0D17640002C2049062E87405F0A374DCF08A
:011771002255
:03004200020BFAB4
:100BFA00C0E0C0F0C083C082C0D075D000C000C0C1
:100C0A0001C002C003C004C005C006C00775B2080F
:090C1A00786BE220E103020D24D5
:100C2300AF93EF75F010A4FFE594C4540FFDEF4D9F
:100C3300FF906313E5F0F0A3EFF0E24402F2906259
:090C4300D5E064026003020CFB21
:100C4C001217DC5067E004F0E0C39402405390624A
:100C5C00ABE0FEA3D31217CF400CE0FFA3E09062F1
:100C6C00ABCFF0A3EFF09062ADE0FEA3C31217CFB1
:100C7C00500CE0FFA3E09062ADCFF0A3EFF09062D8
:100C8C00A71217B7906313E0FEA3E0FFE4FCFDEBA3
:100C9C002FFFEA3EFEED39FDEC38FC9062A71208FE
:100CAC00321217DC50067869E24401F21217DC406C
:100CBC0067A3E0FCA3E0FDA3E0FEA3E0FF78041231
:100CCC00080C9062D2EEF0A3EFF09062D57403F0B2
:100CDC009062A6E4F09062ABF0A3F09062AD74FF6A
:0D0CEC00F0A3F09062A712083E0000000087
:100CF90080299062D5E0B4050C906313E0FFA3E06E
:100D09009062AF80119062D5E0B4070F906313E051
:0B0D1900FFA3E09062D9CFF0A3EFF041
:100D240075B204D007D006D005D004D003D002D0C9
:0E0D340001D000D0D0D082D083D0F0D0E032F9
:0A0B1200426317000042631900005F
:1019280043A820D2AF75D10178957401F218747666
:0B193800F2789174A0F21874FDF22206
:03001E000213A327
:1013A300C0E0C083C082C0D075D000C00075B20851
:1013B3007891E230E770E24480F2D208906269E00B
:0813C300C394FF5003E004F0A5
:1013CB0030042F90631AE004F07006906319E00468
:1013DB00F0906317E4F0A3F0C390631AE09432909B
:1013EB006319E094004037E4F0A3F09062D604F068
:1013FB00802C906318E004F07006906317E004F003
:10140B00906319E4F0A3F0C3906318E094409063E9
:0E141B0017E0941F4008E4F0A3F09062D6F0B2
:0E14290075B204D000D0D0D082D083D0E03293
:070B1C0044631B0000000010
:081A0D00789CE2541FF2E22272
:10177200E5B154CF42B1789CE254E3F2E24414F270
:10178200E254FCF2E24401F208E24480F2E2442034
:10179200F278A1743BF2187460F2789EE4F208F2D7
:0C17A200121A0D44A0F253A8BFD2AF22CF
:0C19DC00121A0D44C0F243A840D2AF2202
:10197F00121A0D44A0F2789EE4F208F253A8BF2287
:03002100021618AC
:10161800C0E0C0F0C083C082C0D075D000C000C098
:1016280004C005C006C00775B208789DE230E723FC
:10163800E24480F290631BE0FCA3E0FDA3E0FEA37C
:10164800E02401FFE43EFEE43DFDE43CFC90631B26
:1016580012083275B204D007D006D005D004D000E5
:0B166800D0D0D082D083D0F0D0E03290
:100B2300C101C1024262FD00004262F70000C10040
:1015B9009062EFE0FCA3E0FDA3E0FEA3E02244017A
:1015C900FFEC9062EF0208329062EEE4F09062F371
:1015D900229062EAE0FEA3E0FF229062ECE0FEA323
:1015E900E0FF229062F47401F09062F3E4F022903B
:1015F90062E0E09F9062DFE09E229062E2E09F90CD
:0F16090062E1E09E229062EEE004F0E0641822BD
:1018CB0043A901D2AF75D104907105E4F090710476
:1018DB007424F090710174A0F090710074FDF022EB
:0300240002004592
:10004500C0E0C0F0C083C082C0D075D000C000C081
:1000550001C002C003C004C005C006C00775B208D0
:10006500907101E020E703020358E04480F09062BC
:10007500FAE004F070069062F9E004F09062FCE0AA
:1000850004F070069062FBE004F09062FEE004F07C
:1000950070069062FDE004F0C39062FCE0940D9060
:1000A50062FBE094004006E4F0A3F0D202C3906244
:1000B500FAE0940D9062F9E094004006E4F0A3F0B4
:0200C500D20166
:1000C7002083409062F5E004F0E0C3941E500302E1
:1000D70001D29062EEE0641760030201D29062F6EB
:1000E700E09406400DE0941450081215B91215C794
:1000F700800B9062F6E0C394014002E0FF1215EC1A
:100107000201D29062F5E0D3940050030201B8E0F7
:10011700D3943240129062EF12083E0000000012A2
:1001270015D104F00201A59062F3E060279062F513
:10013700E0C39402401EE094075019A3E0C394065D
:100147004012E09414500D1215B91215C712160E6D
:10015700604C802D9062F3E060369062F5E0C394C6
:1001670007402DE094145028A3E0C394014021E0F8
:100177009406501C1215B954FE1215C912160E60BA
:100187001DA31215BCFF780112081F1215CB800E94
:100197009062EF12083E000000001215D1F0906245
:1001A700F5E4F0A3F09062EEE0B418191215EC80B4
:1001B700149062F3E0700E9062EF12083E000000A8
:1001C700001215D1F09062F6E004F09062F4E0605E
:1001D700199062EEE4F09062F4F0A3F0A3F0121528
:0A01E700B9FF90627B120832D209C2
:1001F100C39062FEE094149062FDE094004073E4C9
:10020100F0A3F020076C1215DAD31215F840109004
:1002110062EBE004F0701F9062EAE004F0801712D4
:1002210015DAC31215F8500E9062EBE024FFF0903E
:1002310062EAE034FFF01215E3D312160340109086
:1002410062EDE004F0701F9062ECE004F0801712A0
:1002510015E3C3121603500E9062EDE024FFF090F7
:1002610062ECE034FFF01215DA1219F31215E31201
:0202710019FC76
:100273009062E7E0C39407500302033DE0D3940B7D
:05028300400302033DF1
:10028800906315E4F0A3F09062E7E0B4070C906384
:10029800157413F0A37488F0804A9062E7E0B408FC
:1002A8000C9063157406F0A37482F080379062E7AF
:1002B800E0B4090C9063157403F0A374E8F080248B
:1002C8009062E7E0B40A0C9063157401F0A374F42B
:1002D800F080119062E7E0B40B0A9063157401F0A6
:1002E800A3744DF09062F8E004F070069062F7E0B5
:1002F80004F0906315E0FEA3E0FFC39062F8E09F6E
:100308009062F7E09E4006E4F0A3F0B200200011EE
:100318001219C4EF700312199D1219D0EF703180B1
:100328002C1219C4EF600312000F1219D0EF6020CD
:0303380012198F08
:10033B00801B9062F7E4F0A3F0C2001219C4EF70B7
:0D034B000312199D1219D0EF70031219AAA8
:1003580075B204D007D006D005D004D003D002D09F
:0E03680001D000D0D0D082D083D0F0D0E032CF
:100B3300C10944627B000000006024627F0301025C
:100B43000C03040F050630070833090A3C0B0C3F5E
:100B53000D0EC00F10C31112CC1314CF1516F017BE
:100B6300185362685000FF000000090B00000002E8
:070B7300FF01FF1816FF004F
:1018EB0090627BE0FCA3E0FDA3E0FEA3E0FF020817
:1018FB000CEC75F003A4247FF582E43462F58322AB
:101816007BFF2009037FFF22C20978101218EBBF55
:10182600550A78081218EBEF645560037FFF229083
:09183600627BA3A3A3E0FFAB0752
:01183F002286
:1016B500E490630BF0FEEDB401030E800BEDB40274
:1016C500047E0280037F0022E4FC1218FCE0B507CB
:1016D500141218FCE5822EF582E43583F583E0903B
:0F16E500630BF080050CECB40CE090630BE0FF9E
:0116F40022D3
:100D4200906279E0F47003020E73E0FFA3E0FD12FB
:100D520016B5E490627AF0EF14B418004003020E64
:100D620073900D7175F003A4C58325F0C5837302DA
:100D72000DB9020DB9020DC1020DC1020DC9020D5C
:100D8200C9020DD1020DD1020DD9020DD9020DE019
:100D9200020DE0020DE8020DE8020DF0020DF00274
:100DA2000DF8020DF8020E00020E00020E08020EED
:100DB20008020E10020E109062E77407F080559040
:100DC20062E77408F0804D9062E77409F080459004
:100DD20062E7740AF0803DE49062E7F08036906248
:100DE200E7740BF0802E9062E77401F08026906227
:100DF200E77404F0801E9062E77402F0801690623D
:100E0200E77405F0800E9062E77403F0800690624A
:100E1200E77406F01211BA9062DBE0FEA3E0FF1263
:100E220015479062DFEEF0A3EFF09062DDE0FEA3E3
:100E3200E0FF1215479062E1EEF0A3EFF09062DF5F
:100E4200E0FFA3E09062EACFF0A3EFF09062E1E06E
:100E5200FFA3E09062ECCFF0A3EFF09062EAE0FE35
:100E6200A3E0FF1219F39062ECE0FEA3E0FF121977
:010E7200FC83
:010E7300225C
:0D19B70078C0E24408F278C2E2543FF22208
:040B7A0041632200B1
:1018640090631FE0FBA3E0FAA3E0F92290000612C4
:1018740006ABFE9000080206AB90000912070B901D
:03188400000C2233
:1008F900E490630BF07FFFA374FFF090631FEBF0AC
:10090900A3EAF0A3E9F09000011206ABFE120692E9
:10091900FDEEC39D5003020A91121864900001E490
:1009290012070B90000E12086F12089FEFF460086F
:100939009063227423F08009906322E06003E0143D
:10094900F01218649000031206AB6F601590000551
:100959001206AB600D900004E412070B900003022D
:100969000A8D9000051206ABFE9000041206ABC377
:100979009E500B12186490000474010206D81218D4
:10098900649000021206AB6F604AEFF4701E1218F1
:1009990070C39E400C90630B7404F0900002020A2D
:1009A9000C12186490000A7401020A8412186490E7
:1009B900000874011218801206AB6F90631F600C57
:1009C900121867740112187DEF020A8412186790D1
:1009D9000009803EEFF47042121864900009120673
:1009E900ABD394005003020A8790000B1206ABFEAA
:1009F90090000A1206ABD39E401290630B7401F06B
:100A090090000C1206AB90630CF08052121864909F
:100A1900000A74011206D8020A871218641218779C
:100A2900C394FF500890000874011206D812187078
:100A3900B5060890630B7402F0801E1218649000CA
:100A4900071218736E703790630B7403F0900006E9
:100A59001206AB90000812070B90630CEFF0121806
:100A690064E412187D74FF12070B90630CE0900088
:100A79001112070B90630BE090001212070B12186A
:080A890064900002EF12070B5C
:010A91002242
:10196D0078D2E254CFF2E24410F2907188E4F0C2E2
:02197D009222B4
:10184000C39062EBE094589062EAE094025012C3B5
:101850009062EDE094589062ECE094025003D292D2
:0418600022C29222EC
:040B7E0041632401AA
:071A15007869E24401F222AE
:1018AA0043A902D2AF75D10890710D7401F09071FD
:1018BA000C745DF090710974A0F090710874FDF0D9
:0118CA0022FB
:03002700020E7452
:100E7400C0E0C0F0C083C082C0D075D000C000C044
:100E840001C002C003C004C005C006C007907109B8
:0E0E9400E020E703020F32907109E04480F085
:100EA200906323E004F0E0C39408400AA3E06006E4
:100EB200E4F09062D5F0906323E0C3940A4007E423
:060EC200F0D206A304F0CB
:100EC8009062D5E06004E0B4070D7F011216F5903A
:100ED80062D57401F080539062D5E0B40108121A0B
:100EE800157402F080449062D5E0B4030D7F0212BD
:100EF80016F59062D57404F080309062D5E0B404A1
:100F080008121A157405F080219062D5E0B4050D19
:100F18007F031216F59062D57406F0800D9062D5A5
:100F2800E0B40606121A157407F0D007D006D005EB
:100F3800D004D003D002D001D000D0D0D082D0834A
:050F4800D0F0D0E03202
:100B8200426003000042626500004262631000415D
:100B920062670060406005FFFF0000000000000087
:100BA2000000000000000000000000000000000043
:100BB2000000000000000000000000000000000033
:100BC2000000000000000000000000000000000023
:100BD200000000000000004160000041600100418F
:050BE200600200C105E6
:1014C3007F8BE47E06FDFC90630BE0F8A3E0F9A3B9
:1014D300E0FAA3E0FB22EF25E0FFEE33FE74472F93
:1014E300F58274603EF58322D39062E6E094B8906F
:1014F30062E5E0940B22ECF0A3EDF0906312E004BC
:10150300F022906311E0FEA3E0FFC322906000E0AD
:1015130025E02405F582E43460F58322E490631129
:10152300F0A3F02233FE74052FF58274603EF58339
:1015330022906311E004F022906312E025E0FF9013
:041543006311E0222E
:1003760090630B12083E000000009062D2E0FFA3DB
:10038600E090630FCFF0A3EFF0906005E0F4700308
:05039600A3E0F4704932
:10039B001215201215059420EE9400501A90630F3D
:1003AB00E0FCA3E0FDEF25E0FFEE1215271214F998
:1003BB0070E112153480DC12151F121505940EEE28
:1003CB009401505E90630FE0FCA3E0FD1214D91270
:0903DB0014F970E612153480E1FA
:1003E40012150FE0FFA3E0906311CFF0A3EFF0909C
:1003F400630FE0FEA3E0FF906312E02FF09063111F
:10040400E03EF0E0C313FEA3E013FF906311EEF0AF
:10041400A3EFF012150FEEF0A3EFF0906000E004EC
:09042400F0E0C394204002E4F072
:10042D0012151F1214CA12153B121527E0FEA3E078
:10043D00FFE4FCFDEB2FFFEA3EFEED39FDEC38FC51
:10044D0090630B1208321214FE7003121534906370
:10045D0011E07004A3E0642070C990630BE0FCA36D
:10046D00E0FDA3E0FEA3E0FF780512080C90630BFE
:03047D0012083230
:1004800090630BA3A3E0FEA3E0FDAC06906046E002
:1004900025E0FF906045E033FE74472FF5827460DD
:1004A0003EF583ECF0A3EDF0906046E004F07006BA
:1004B000906045E004F0C3906046E0940E90604583
:0904C000E094014004E4F0A3F013
:1004C90012151F906265F0A3F09062637410F0A397
:1004D900E4F0121505940EEE940140030205711221
:1004E90014D9E0FCA3E0FD906265E0FAA3E0FBD338
:1004F900ED9BEC9A400F1214E0E0FFA3E0906265D7
:10050900CFF0A3EFF012153B1214DEE0FCA3E0FDDF
:10051900906263E0FAA3E0FBC3ED9BEC9A500F12E3
:1005290014E0E0FFA3E0906263CFF0A3EFF09062E4
:1005390063E0FEA3E0FFC3906266E09FFF906265FF
:10054900E09EFED3EF9450EE9400400890626774E9
:100559001EF08009906267E06003E014F01214FE57
:0805690070031215340204DBDB
:100571001214C3C31207FB500B3005681214C312C7
:1005810007FB4060E4906001F0A3F0D20590626740
:10059100E0B41E20E014F01214EB400CA3E024FFA1
:1005A100F09062E5E034FFF0C31214EC4003020660
:1005B1009102063E906267E060030206912001030A
:1005C100020691C201C39062E6E094709062E5E098
:1005D10094174003020691A3E004F070069062E5CF
:1005E100E004F022E47FC37E051214C8D31207FB96
:1005F10040537F6D1214C5D31207FB400890600170
:10060100E064047040200203020691C2029060017E
:10061100E0C394045003E004F0E4906002F0C205EA
:100621001214EB40028053C31214EC500DA3E004EA
:10063100F070069062E5E004F0229062E5740BF040
:10064100A374B8F022E47FC37E051214C8D3120745
:10065100FB4006906002E06037300234C2029060D5
:10066100027401F0E4906001F0C205D39062E6E00B
:1006710094089062E5E09407400DA3E024FEF09019
:1006810062E5E034FFF0229062E57407F0A304F024
:010691002246
:100BE700446303428C0000C1074462FF0000000019
:020BF700C10833
:101887009062FFE0FCA3E0FDA3E0FEA3E022CFF01F
:10189700A3EFF09062ECE0FFA3E0229062EAE0FFA2
:0318A700A3E02299
:100F4D00E49062EAF0A3F09062ECF0A3F0D207C354
:100F5D009062EBE094B89062EAE0940B40119062DD
:100F6D00EDE094B89062ECE0940B4003020FFC307E
:100F7D000864C2081218872477FFEE3401FEE43DA1
:100F8D00FDE43CFC9062FF120832E47FE87E03FD35
:100F9D00FC9062FFE0F8A3E0F9A3E0FAA3E0FBC345
:100FAD001207FB403112188794E8FFEE9403FEED13
:100FBD009400FDEC9400FC9062FF1208329062EBFD
:100FCD00E004F070069062EAE004F01218A290625C
:100FDD00ECCFF0A3EFF09062EAE0FEA3E0FF121970
:100FED00F39062ECE0FEA3E0FF1219FC020F5C121D
:100FFD0018A29062DF1218959062E1CFF0A3EFF086
:10100D001218A29062DB1218959062DDCFF0A3EF5B
:04101D00F0C20722F4
:1014430002130CE493A3F8E493A34003F68001F2A0
:1014530008DFF48029E493A3F85407240CC8C333AA
:10146300C4540F4420C8834004F456800146F6DF79
:10147300E4800B0102040810204080900A92E47E6D
:10148300019360BCA3FF543F30E509541FFEE4936E
:10149300A360010ECF54C025E060A840B8E493A335
:1014A300FAE493A3F8E493A3C8C582C8CAC583CA60
:1014B300F0A3C8C582C8CAC583CADFE9DEE780BE18
:010BF90000FB
:10069200BB010689828A83E0225002E722BBFE0266
:0906A200E32289828A83E4932299
:1006AB00BB010CE58229F582E5833AF583E0225004
:1006BB0006E92582F8E622BBFE06E92582F8E2224E
:0D06CB00E58229F582E5833AF583E4932268
:1006D800BB010FF8E58229F582E5833AF583E02826
:1006E800F0225009C58229F8E58226F622BBFE09C8
:1006F800C58229F8E22582F222F8EA2583F583E902
:0307080093282211
:10070B00F8BB010DE58229F582E5833AF583E8F024
:10071B00225006E92582C8F622BBFE05E92582C8D0
:02072B00F222B8
:10072D0075F008758200EF2FFFEE33FECD33CDCC83
:10073D0033CCC58233C5829BED9AEC99E582984006
:10074D000CF582EE9BFEED9AFDEC99FC0FD5F0D6E3
:10075D00E4CEFBE4CDFAE4CCF9A88222B800C1B90D
:10076D000059BA002DEC8BF084CFCECDFCE5F0CB4B
:10077D00F97818EF2FFFEE33FEED33FDEC33FCEB84
:10078D0033FB10D703994004EB99FB0FD8E5E4F93F
:10079D00FA227818EF2FFFEE33FEED33FDEC33FC2C
:1007AD00C933C910D7059BE99A4007EC9BFCE99A20
:1007BD00F90FD8E0E4C9FAE4CCFB2275F010EF2F65
:1007CD00FFEE33FEED33FDCC33CCC833C810D70765
:1007DD009BEC9AE899400AED9BFDEC9AFCE899F8A0
:0E07ED000FD5F0DAE4CDFBE4CCFAE4C8F92233
:1007FB00EB9FF5F0EA9E42F0E99D42F0E89C45F054
:01080B0022CA
:10080C00E8600FECC313FCED13FDEE13FEEF13FFCA
:03081C00D8F122EE
:10081F00E8600FEFC333FFEE33FEED33FDEC33FC37
:03082F00D8F122DB
:0C083200ECF0A3EDF0A3EEF0A3EFF02239
:10083E00A8828583F0D083D08212085512085512F3
:10084E000855120855E473E493A3C583C5F0C58318
:10085E00C8C582C8F0A3C583C5F0C583C8C582C804
:01086E002267
:10086F00BB010DE58229F582E5833AF5830208DBAA
:10087F005007E92582F80208D2BBFE07E92582F866
:10088F000208E4E58229F582E5833AF5830208ED53
:06089F008A838982E473E4
:1008A500EC8EF0A4CCC5F0CCCDF8EFA4CEC5F02DE0
:1008B500FDE43CFCE8A42EC8C5F03DFDE43CFCEF9E
:0D08C500A4FFE5F028FEE43DFDE43CFC222C
:0908D200E6FB08E6FA08E6F9224B
:0908DB00E0FBA3E0FAA3E0F9221E
:0908E400E2FB08E2FA08E2F92245
:0C08ED00E493FB740193FA740293F92267
:00000001FF
