:0300000002142BBC
:0C142B00787FE4F6D8FD75812102147270
:0C000300000000000000000000000000F1
:0B1A2500EF1FAC0670011E4C70F62293
:10002A00AB07AA06EB1BAE0270011A4E60097FAA43
:08003A007E05121A2580ED225B
:100F4D00907120E04480F07F057E00121A25E4FFA9
:100F5D00FE12002A75A75575AC589071327450F079
:100F6D009071307403F0907136742FF07F18EF2468
:100F7D0066FDE434718D82F583E4F00FEFB433EE4A
:100F8D00904011E4935407FF90711CE054F84FF01A
:100F9D00904017E493547FFF90711DE054804FF003
:100FAD00904010E493FF5401C43333335480FE90CA
:100FBD007123E0547F4EF0EFC313543F4440FFA321
:100FCD00E054804FF0904012E493FF540FFE907167
:100FDD0046E054F04EF0EFC4540FFF90714FE054C3
:100FED00F04FF0904013E493543FFF907140E05464
:100FFD00C04FF0904014E493907126F0904015E4AA
:0E100D0093907128F0904016E49390712AF0B1
:01101B0022B2
:081A42007417F0A37470F02288
:1013000075D9DD120F4D75D95590715EE054FEF020
:1013100075D9BB1219481219981219651212631265
:1013200017D21219081218E71219F41219AA78D351
:10133000E254FCF2E24401F290718AE4F0C294902B
:1013400062E8121A429062E3121A429062E5121A9F
:10135000429062E77405F01210E612101C12179406
:101360001218447B017A6279681208F9120D4290D2
:1013700062DBE0FEA3E0FF12153B9062DFEEF0A31C
:10138000EFF09062DDE0FEA3E0FF12153B9062E11A
:07139000EEF0A3EFF080C3B3
:100A92004262E317704262E517704262E8177042E1
:100AA20062DB17704262DF17704262DD17704262CA
:070AB200E117704162E7004B
:1016D300FFE0FCA3E0FD1208A5E47B707A17F9F89C
:1016E300120769906303EEF0A3EFF0906303E0FE4B
:1016F300A3E0FFC3906302E09F906301E09E22900A
:1017030062FFE0FEA3E022AC06ECF218EFF27817DA
:02171300E222D0
:101263007812E24401F278567407F278277417F281
:1012730018746FF27833E4F218F27819E24401F249
:101283007811E24401F27817E24401F27812E24461
:1012930001F27814E24401F27818E24401F278D3BF
:1012A300E254CFF2E24410F290718C740AF0781297
:1012B300E24402F278577407F278297417F218742B
:1012C3006FF27837E4F218F27819E24402F27811F7
:1012D300E24402F27817E24402F27812E24402F2A4
:1012E3007814E24402F27818E24402F278D3E2542A
:0D12F300F3F2E24404F290718B7409F022D2
:091A3000783312170A4401F22276
:091A3900783712170A4402F22268
:0C1A01007818E230E0037F01227F002211
:0C1A0D007818E230E1037F01227F002204
:0D19DA007818E24401F290718C740AF0223A
:0E000F0090718CE4F0D2967818E254FEF22242
:0D19E7007818E24402F290718B7409F0222E
:0E19CC0090718BE4F0D2957818E254FDF2226F
:08153B009062FFEEF0A3EFF057
:10154300A3EEF0A3EFF09062E3E064177004A3E06E
:10155300647060101217029062E31216D34005EE16
:10156300F0A3EFF09062E5E064177004A3E0647009
:1015730060101217029062E51216D34005EEF0A335
:10158300EFF09062E8E064177004A3E06470601108
:10159300121702FF9062E81216D44005EEF0A3EF93
:0915A300F0906301E0FEA3E0FFFB
:0115AC00221C
:1011AE009062E7E0B4070040030212629011C1F8AA
:1011BE002828730211D60211EB0212000212150238
:1011CE00122A02123C0212519062DB7402F0A374D6
:1011DE0094F09062DD7416F0A37408F0229062DB36
:1011EE007406F0A37418F09062DD7413F0A3747497
:1011FE00F0229062DB740FF0A3743CF09062DD7409
:10120E000AF0A3748CF0229062DB7413F0A374388E
:10121E00F09062DD7405F0A374DCF0229062DB7452
:10122E0017F0A37470F0E49062DDF0A3F0229062E8
:10123E00DB7409F0A374D8F09062DD740FF0A37420
:10124E003CF022E49062DBF0A3F09062DD7417F0C4
:05125E00A37470F022F2
:100AB9004162D400C1044162D6004162D50041625D
:100AC900B100602062B2FFFF0000000000000000DA
:100AD900000000000000000000000000000000000D
:100AE9000000000000004162A3004162A400C103AC
:100AF9004162A5004162A6004462A70000000042CD
:090B090062AB00004262ADFFFF87
:10180E007FEA7E0B9062FFFDFCE0F8A3E0F9A3E017
:10181E00FAA3E0FB22F0E0441EF09071227407F070
:10182E0022E0FF906308E09F906307E09E229062A3
:06183E00A6E0C394142291
:1019480078F2E24403F278E3E244C0F278F0E25439
:0D195800FDF208E254FDF208E2440CF22218
:1019980043AA04D2AF786AE24479F27F017E00025A
:0219A800002A13
:10175500EF24FE60191460242402702C907123E09C
:1017650054D8F0E0441D121827759917801A907106
:1017750023E054F8121823759918800C907123E012
:0F17850054D812182375990B7869E24448F22260
:101980009062AFE0FEA3E0FF7C007D0C1208A5E4AE
:081990007B0AFAF9F80207696D
:10101C009062FF12083E000000009062D4E064026F
:05102C0070030210E555
:101031009062A3E004F0E0C3946450030210E5E47D
:01104100F0BE
:0F1042001219809062FF1208329062D4E0702C75
:1010510012180EC31207FB50089062A4E004F0803E
:1010610005E49062A4F09062A4E0C3940AE440070E
:0C107100F09062D404F0229062D4F022CF
:08107D009062D4E06401706090
:1010850020030FD20390631712083E0000000012E0
:101095001A19E47F307E75906317121815C312076D
:0310A500FB403DD0
:1010A800E412180E1207FB50089062A5E004F080C5
:1010B80005E49062A5F09062A5E0C3940A4018E4A4
:1010C800F09062D47402F01219BC90631712083EB3
:0D10D80000000000C203229062D47401F0F9
:0110E50022E8
:101844009062D4E07008300628C2060203769062E3
:10185400D4E0B4010B9062E3740BF0A374B8F022EB
:101864009062D4E0B4020A9062E37405F0A374DCDD
:02187400F02260
:101794009062D9E0FEA3E0FF9062D6E0701AD3EF26
:1017A4009420EE940E5004D2048002C2049062E8A5
:1017B4007417F0A37470F022C3EF94C8EE940E4033
:0D17C40002C2049062E87405F0A374DCF02A
:0117D10022F5
:03004200020BFAB4
:100BFA00C0E0C0F0C083C082C0D075D000C000C0C1
:100C0A0001C002C003C004C005C006C00775B2080F
:090C1A00786BE220E103020D24D5
:100C2300AF93EF75F010A4FFE594C4540FFDEF4D9F
:100C3300FF906307E5F0F0A3EFF0E24402F2906265
:090C4300D5E064026003020CFB21
:100C4C0012183C5067E004F0E0C3940240539062E9
:100C5C00ABE0FEA3D312182F400CE0FFA3E0906290
:100C6C00ABCFF0A3EFF09062ADE0FEA3C312182F50
:100C7C00500CE0FFA3E09062ADCFF0A3EFF09062D8
:100C8C00A7121817906307E0FEA3E0FFE4FCFDEB4E
:100C9C002FFFEA3EFEED39FDEC38FC9062A71208FE
:100CAC003212183C50067869E24401F212183C40AA
:100CBC0067A3E0FCA3E0FDA3E0FEA3E0FF78041231
:100CCC00080C9062D2EEF0A3EFF09062D57403F0B2
:100CDC009062A6E4F09062ABF0A3F09062AD74FF6A
:0D0CEC00F0A3F09062A712083E0000000087
:100CF90080299062D5E0B4050C906307E0FFA3E07A
:100D09009062AF80119062D5E0B4070F906307E05D
:0B0D1900FFA3E09062D9CFF0A3EFF041
:100D240075B204D007D006D005D004D003D002D0C9
:0E0D340001D000D0D0D082D083D0F0D0E032F9
:0A0B12004263130000426315000067
:1019650043A820D2AF75D10178957401F218747629
:0B197500F2789174A0F21874FDF222C9
:03001E0002139733
:10139700C0E0C083C082C0D075D000C00075B2085D
:1013A7007891E230E770E24480F2D208906269E017
:0813B700C394FF5003E004F0B1
:1013BF0030042F906316E004F07006906315E0047C
:1013CF00F0906313E4F0A3F0C3906316E0943290AF
:1013DF006315E094004037E4F0A3F09062D604F078
:1013EF00802C906314E004F07006906313E004F017
:1013FF00906315E4F0A3F0C3906314E094409063FE
:0E140F0013E0941F4008E4F0A3F09062D6F0C2
:0E141D0075B204D000D0D0D082D083D0E0329F
:070B1C004463170000000014
:081A4A00789CE2541FF2E22235
:1017D200E5B154CF42B1789CE254E3F2E24414F210
:1017E200E254FCF2E24401F208E24480F2E24420D4
:1017F200F278A1743BF2187460F2789EE4F208F277
:0C180200121A4A44A0F253A8BFD2AF2231
:0C1A1900121A4A44C0F243A840D2AF2287
:1019BC00121A4A44A0F2789EE4F208F253A8BF220D
:030021000216784C
:10167800C0E0C0F0C083C082C0D075D000C000C038
:1016880004C005C006C00775B208789DE230E7239C
:10169800E24480F2906317E0FCA3E0FDA3E0FEA320
:1016A800E02401FFE43EFEE43DFDE43CFC906317CA
:1016B80012083275B204D007D006D005D004D00085
:0B16C800D0D0D082D083D0F0D0E03230
:100B2300C101C1024262FD00004262F70000C10040
:101619009062EFE0FCA3E0FDA3E0FEA3E022440119
:10162900FFEC9062EF0208329062EEE4F09062F310
:10163900229062EAE0FEA3E0FF229062ECE0FEA3C2
:10164900E0FF229062F47401F09062F3E4F02290DA
:1016590062E0E09F9062DFE09E229062E2E09F906C
:0F16690062E1E09E229062EEE004F0E06418225D
:1019080043A901D2AF75D104907105E4F090710438
:101918007424F090710174A0F090710074FDF022AD
:0300240002004592
:10004500C0E0C0F0C083C082C0D075D000C000C081
:1000550001C002C003C004C005C006C00775B208D0
:10006500907101E020E703020358E04480F09062BC
:10007500FAE004F070069062F9E004F09062FCE0AA
:1000850004F070069062FBE004F09062FEE004F07C
:1000950070069062FDE004F0C39062FCE0940D9060
:1000A50062FBE094004006E4F0A3F0D202C3906244
:1000B500FAE0940D9062F9E094004006E4F0A3F0B4
:0200C500D20166
:1000C7002083409062F5E004F0E0C3941E500302E1
:1000D70001D29062EEE0641760030201D29062F6EB
:1000E700E09406400DE094145008121619121627D2
:1000F700800B9062F6E0C394014002E0FF12164CB9
:100107000201D29062F5E0D3940050030201B8E0F7
:10011700D3943240129062EF12083E0000000012A2
:10012700163104F00201A59062F3E060279062F5B2
:10013700E0C39402401EE094075019A3E0C394065D
:100147004012E09414500D12161912162712166E4B
:10015700604C802D9062F3E060369062F5E0C394C6
:1001670007402DE094145028A3E0C394014021E0F8
:100177009406501C12161954FE12162912166E6098
:100187001DA312161CFF780112081F12162B800ED2
:100197009062EF12083E00000000121631F09062E4
:1001A700F5E4F0A3F09062EEE0B4181912164C8053
:1001B700149062F3E0700E9062EF12083E000000A8
:1001C70000121631F09062F6E004F09062F4E060FD
:1001D700199062EEE4F09062F4F0A3F0A3F0121627
:0A01E70019FF90627B120832D20962
:1001F100C39062FEE094149062FDE094004073E4C9
:10020100F0A3F020076C12163AD312165840109042
:1002110062EBE004F0701F9062EAE004F0801712D4
:10022100163AC3121658500E9062EBE024FFF0907C
:1002310062EAE034FFF0121643D3121663401090C5
:1002410062EDE004F0701F9062ECE004F0801712A0
:100251001643C3121663500E9062EDE024FFF09036
:1002610062ECE034FFF012163A121A301216431201
:020271001A3938
:100273009062E7E0C39407500302033DE0D3940B7D
:05028300400302033DF1
:10028800906309E4F0A3F09062E7E0B4070C906390
:10029800097413F0A37488F0804A9062E7E0B40808
:1002A8000C9063097406F0A37482F080379062E7BB
:1002B800E0B4090C9063097403F0A37441F080243E
:1002C8009062E7E0B40A0C9063097401F0A374F437
:1002D800F080119062E7E0B40B0A9063097401F0B2
:1002E800A3744DF09062F8E004F070069062F7E0B5
:1002F80004F0906309E0FEA3E0FFC39062F8E09F7A
:100308009062F7E09E4006E4F0A3F0B200200011EE
:10031800121A01EF70031219DA121A0DEF703180F8
:100328002C121A01EF600312000F121A0DEF602051
:030338001219CCCB
:10033B00801B9062F7E4F0A3F0C200121A01EF7079
:0D034B00031219DA121A0DEF70031219E7F0
:1003580075B204D007D006D005D004D003D002D09F
:0E03680001D000D0D0D082D083D0F0D0E032CF
:100B3300C10944627B000000006024627F0301025C
:100B43000C03040F050630070833090A3C0B0C3F5E
:100B53000D0EC00F10C31112CC1314CF1516F017BE
:100B6300185362685000FF000000090B00000002E8
:070B7300FF01FF1876FF00EF
:1019280090627BE0FCA3E0FDA3E0FEA3E0FF0208D9
:101938000CEC75F003A4247FF582E43462F583226D
:101876007BFF2009037FFF22C2097810121928BFB7
:10188600550A7808121928EF645560037FFF2290E5
:09189600627BA3A3A3E0FFAB07F2
:01189F002226
:10171500E49062FFF0FEEDB401030E800BEDB40220
:10172500047E0280037F0022E4FC121939E0B5072C
:1017350014121939E5822EF582E43583F583E0909C
:0F17450062FFF080050CECB40CE09062FFE0FF57
:011754002272
:100D4200906279E0F47003020E73E0FFA3E0FD12FB
:100D52001715E490627AF0EF14B418004003020E03
:100D620073900D7175F003A4C58325F0C5837302DA
:100D72000DB9020DB9020DC1020DC1020DC9020D5C
:100D8200C9020DD1020DD1020DD9020DD9020DE019
:100D9200020DE0020DE8020DE8020DF0020DF00274
:100DA2000DF8020DF8020E00020E00020E08020EED
:100DB20008020E10020E109062E77407F080559040
:100DC20062E77408F0804D9062E77409F080459004
:100DD20062E7740AF0803DE49062E7F08036906248
:100DE200E7740BF0802E9062E77401F08026906227
:100DF200E77404F0801E9062E77402F0801690623D
:100E0200E77405F0800E9062E77403F0800690624A
:100E1200E77406F01211AE9062DBE0FEA3E0FF126F
:100E2200153B9062DFEEF0A3EFF09062DDE0FEA3EF
:100E3200E0FF12153B9062E1EEF0A3EFF09062DF6B
:100E4200E0FFA3E09062EACFF0A3EFF09062E1E06E
:100E5200FFA3E09062ECCFF0A3EFF09062EAE0FE35
:100E6200A3E0FF121A309062ECE0FEA3E0FF121A38
:010E72003946
:010E7300225C
:0D19F40078C0E24408F278C2E2543FF222CB
:040B7A0041631E00B5
:1018C40090631BE0FBA3E0FAA3E0F9229000061268
:1018D40006ABFE9000080206AB90000912070B90BD
:0318E400000C22D3
:1008F900E49062FFF07FFFA374FFF090631BEBF0BD
:10090900A3EAF0A3E9F09000011206ABFE120692E9
:10091900FDEEC39D5003020A911218C4900001E430
:1009290012070B90000E12086F12089FEFF460086F
:1009390090631E7423F0800990631EE06003E01445
:10094900F01218C49000031206AB6F6015900005F1
:100959001206AB600D900004E412070B900003022D
:100969000A8D9000051206ABFE9000041206ABC377
:100979009E500B1218C490000474010206D8121874
:10098900C49000021206AB6F604AEFF4701E121891
:10099900D0C39E400C9062FF7404F0900002020ADA
:1009A9000C1218C490000A7401020A841218C49027
:1009B900000874011218E01206AB6F90631B600CFB
:1009C9001218C774011218DDEF020A841218C790B1
:1009D9000009803EEFF470421218C4900009120613
:1009E900ABD394005003020A8790000B1206ABFEAA
:1009F90090000A1206ABD39E40129062FF7401F078
:100A090090000C1206AB906300F080521218C4904B
:100A1900000A74011206D8020A871218C41218D7DC
:100A2900C394FF500890000874011206D81218D018
:100A3900B506089062FF7402F0801E1218C4900077
:100A4900071218D36E70379062FF7403F090000696
:100A59001206AB90000812070B906300EFF0121812
:100A6900C4E41218DD74FF12070B906300E09000D4
:100A79001112070B9062FFE090001212070B121877
:080A8900C4900002EF12070BFC
:010A91002242
:1019AA0078D2E254CFF2E24410F2907188E4F0C2A5
:0219BA00922277
:1018A000C39062EBE094589062EAE094025012C355
:1018B0009062EDE094589062ECE094025003D29272
:0418C00022C292228C
:040B7E0041632001AE
:071A52007869E24401F22271
:1018E70043A902D2AF75D10890710D7401F09071C0
:1018F7000C745DF090710974A0F090710874FDF09C
:0119070022BD
:03002700020E7452
:100E7400C0E0C0F0C083C082C0D075D000C000C044
:100E840001C002C003C004C005C006C007907109B8
:0E0E9400E020E703020F32907109E04480F085
:100EA20090631FE004F0E0C39408400AA3E06006E8
:100EB200E4F09062D5F090631FE0C3940A4007E427
:060EC200F0D206A304F0CB
:100EC8009062D5E06004E0B4070D7F0112175590D9
:100ED80062D57401F080539062D5E0B40108121A0B
:100EE800527402F080449062D5E0B4030D7F021280
:100EF80017559062D57404F080309062D5E0B40440
:100F080008121A527405F080219062D5E0B4050DDC
:100F18007F031217559062D57406F0800D9062D544
:100F2800E0B40606121A527407F0D007D006D005AE
:100F3800D004D003D002D001D000D0D0D082D0834A
:050F4800D0F0D0E03202
:100B8200426003000042626500004262631000415D
:100B920062670060406005FFFF0000000000000087
:100BA2000000000000000000000000000000000043
:100BB2000000000000000000000000000000000033
:100BC2000000000000000000000000000000000023
:100BD200000000000000004160000041600100418F
:050BE200600200C105E6
:1014B7007F8BE47E06FDFC9062FFE0F8A3E0F9A3D2
:1014C700E0FAA3E0FB22EF25E0FFEE33FE74472F9F
:1014D700F58274603EF58322D39062E6E094B8907B
:1014E70062E5E0940B22ECF0A3EDF0906306E004D4
:1014F700F022906305E0FEA3E0FFC322906000E0C6
:1015070025E02405F582E43460F58322E490630541
:10151700F0A3F02233FE74052FF58274603EF58345
:1015270022906305E004F022906306E025E0FF9037
:041537006305E02246
:100376009062FF12083E000000009062D2E0FFA3E8
:10038600E0906303CFF0A3EFF0906005E0F4700314
:05039600A3E0F4704932
:10039B001215141214F99420EE9400501A90630362
:1003AB00E0FCA3E0FDEF25E0FFEE12151B1214EDB0
:1003BB0070E112152880DC1215131214F9940EEE4D
:1003CB009401505E906303E0FCA3E0FD1214CD1288
:0903DB0014ED70E612152880E112
:1003E400121503E0FFA3E0906305CFF0A3EFF090B4
:1003F4006303E0FEA3E0FF906306E02FF090630543
:10040400E03EF0E0C313FEA3E013FF906305EEF0BB
:10041400A3EFF0121503EEF0A3EFF0906000E004F8
:09042400F0E0C394204002E4F072
:10042D001215131214BE12152F12151BE0FEA3E0A8
:10043D00FFE4FCFDEB2FFFEA3EFEED39FDEC38FC51
:10044D009062FF1208321214F27003121528906395
:10045D0005E07004A3E0642070C99062FFE0FCA386
:10046D00E0FDA3E0FEA3E0FF780512080C9062FF0B
:03047D0012083230
:100480009062FFA3A3E0FEA3E0FDAC06906046E00F
:1004900025E0FF906045E033FE74472FF5827460DD
:1004A0003EF583ECF0A3EDF0906046E004F07006BA
:1004B000906045E004F0C3906046E0940E90604583
:0904C000E094014004E4F0A3F013
:1004C900121513906265F0A3F09062637410F0A3A3
:1004D900E4F01214F9940EEE94014003020571122E
:1004E90014CDE0FCA3E0FD906265E0FAA3E0FBD344
:1004F900ED9BEC9A400F1214D4E0FFA3E0906265E3
:10050900CFF0A3EFF012152F1214D2E0FCA3E0FDF7
:10051900906263E0FAA3E0FBC3ED9BEC9A500F12E3
:1005290014D4E0FFA3E0906263CFF0A3EFF09062F0
:1005390063E0FEA3E0FFC3906266E09FFF906265FF
:10054900E09EFED3EF9450EE9400400890626774E9
:100559001EF08009906267E06003E014F01214F263
:0805690070031215280204DBE7
:100571001214B7C31207FB500B3005681214B712DF
:1005810007FB4060E4906001F0A3F0D20590626740
:10059100E0B41E20E014F01214DF400CA3E024FFAD
:1005A100F09062E5E034FFF0C31214E0400302066C
:1005B1009102063E906267E060030206912001030A
:1005C100020691C201C39062E6E094709062E5E098
:1005D10094174003020691A3E004F070069062E5CF
:1005E100E004F022E47FC37E051214BCD31207FBA2
:1005F10040537F6D1214B9D31207FB40089060017C
:10060100E064047040200203020691C2029060017E
:10061100E0C394045003E004F0E4906002F0C205EA
:100621001214DF40028053C31214E0500DA3E00402
:10063100F070069062E5E004F0229062E5740BF040
:10064100A374B8F022E47FC37E051214BCD3120751
:10065100FB4006906002E06037300234C2029060D5
:10066100027401F0E4906001F0C205D39062E6E00B
:1006710094089062E5E09407400DA3E024FEF09019
:1006810062E5E034FFF0229062E57407F0A304F024
:010691002246
:100BE700C10744630B0000000044630F00000000CE
:020BF700C10833
:1015AD0090630BE0FCA3E0FDA3E0FEA3E022E47F4B
:1015BD00E87E03FDFCE0F8A3E0F9A3E0FAA3E0FB6D
:1015CD00C30207FB94E8FFEE9403FEED9400FDECDF
:1015DD009400FC020832FFEE3401FEE43DFDE43CD4
:1015ED00FC020832C39062EBE094D89062EAE0947A
:1015FD0009229062EDE0943C9062ECE0940F22CFD2
:0C160D00F0A3EFF09062ECE0FFA3E022FD
:1010E600E49062EAF0A3F09062ECF0A3F0D207126B
:1010F60015F140081215FF4003021181300863C242
:10110600081215AD243B90630B1215E390630B1286
:1011160015BB401A1215AD90630B1215D11215F1BD
:10112600500CA3E004F070069062EAE004F09063CD
:101136000F1215B024E790630F1215E390630F1298
:1011460015BB401E90630F1215B090630F1215D198
:10115600C31215FF500CA3E004F070069062ECE099
:1011660004F09062EAE0FEA3E0FF121A309062EC0F
:10117600E0FEA3E0FF121A390210F59062EAE0FFE2
:10118600A3E09062DF12160C9062E1CFF0A3EFF0BD
:101196009062EAE0FFA3E09062DB12160C9062DD3B
:0811A600CFF0A3EFF0C2072215
:10143700021300E493A3F8E493A34003F68001F2B8
:1014470008DFF48029E493A3F85407240CC8C333B6
:10145700C4540F4420C8834004F456800146F6DF85
:10146700E4800B0102040810204080900A92E47E79
:10147700019360BCA3FF543F30E509541FFEE4937A
:10148700A360010ECF54C025E060A840B8E493A341
:10149700FAE493A3F8E493A3C8C582C8CAC583CA6C
:1014A700F0A3C8C582C8CAC583CADFE9DEE780BE24
:010BF90000FB
:10069200BB010689828A83E0225002E722BBFE0266
:0906A200E32289828A83E4932299
:1006AB00BB010CE58229F582E5833AF583E0225004
:1006BB0006E92582F8E622BBFE06E92582F8E2224E
:0D06CB00E58229F582E5833AF583E4932268
:1006D800BB010FF8E58229F582E5833AF583E02826
:1006E800F0225009C58229F8E58226F622BBFE09C8
:1006F800C58229F8E22582F222F8EA2583F583E902
:0307080093282211
:10070B00F8BB010DE58229F582E5833AF583E8F024
:10071B00225006E92582C8F622BBFE05E92582C8D0
:02072B00F222B8
:10072D0075F008758200EF2FFFEE33FECD33CDCC83
:10073D0033CCC58233C5829BED9AEC99E582984006
:10074D000CF582EE9BFEED9AFDEC99FC0FD5F0D6E3
:10075D00E4CEFBE4CDFAE4CCF9A88222B800C1B90D
:10076D000059BA002DEC8BF084CFCECDFCE5F0CB4B
:10077D00F97818EF2FFFEE33FEED33FDEC33FCEB84
:10078D0033FB10D703994004EB99FB0FD8E5E4F93F
:10079D00FA227818EF2FFFEE33FEED33FDEC33FC2C
:1007AD00C933C910D7059BE99A4007EC9BFCE99A20
:1007BD00F90FD8E0E4C9FAE4CCFB2275F010EF2F65
:1007CD00FFEE33FEED33FDCC33CCC833C810D70765
:1007DD009BEC9AE899400AED9BFDEC9AFCE899F8A0
:0E07ED000FD5F0DAE4CDFBE4CCFAE4C8F92233
:1007FB00EB9FF5F0EA9E42F0E99D42F0E89C45F054
:01080B0022CA
:10080C00E8600FECC313FCED13FDEE13FEEF13FFCA
:03081C00D8F122EE
:10081F00E8600FEFC333FFEE33FEED33FDEC33FC37
:03082F00D8F122DB
:0C083200ECF0A3EDF0A3EEF0A3EFF02239
:10083E00A8828583F0D083D08212085512085512F3
:10084E000855120855E473E493A3C583C5F0C58318
:10085E00C8C582C8F0A3C583C5F0C583C8C582C804
:01086E002267
:10086F00BB010DE58229F582E5833AF5830208DBAA
:10087F005007E92582F80208D2BBFE07E92582F866
:10088F000208E4E58229F582E5833AF5830208ED53
:06089F008A838982E473E4
:1008A500EC8EF0A4CCC5F0CCCDF8EFA4CEC5F02DE0
:1008B500FDE43CFCE8A42EC8C5F03DFDE43CFCEF9E
:0D08C500A4FFE5F028FEE43DFDE43CFC222C
:0908D200E6FB08E6FA08E6F9224B
:0908DB00E0FBA3E0FAA3E0F9221E
:0908E400E2FB08E2FA08E2F92245
:0C08ED00E493FB740193FA740293F92267
:00000001FF
